:020000040800F2
:100000004807002091010008AF2D0008B12D00081D
:10001000B52D0008B92D0008BD2D00080000000016
:10002000000000000000000000000000C32D0008D8
:10003000C12D000800000000C52D0008C72D0008D4
:10004000AB010008AB010008AB010008AB010008E0
:10005000AB010008AB010008F72A0008AD2B00082F
:10006000052C0008AB010008AB010008AB0100083B
:10007000AB010008AB010008AB010008AB010008B0
:10008000AB010008AB010008AB010008AB010008A0
:10009000AB010008AB010008AB0100084F2B0008C2
:1000A000AB010008AB010008AB010008AB01000880
:1000B000AB010008AB010008AB010008AB01000870
:1000C000AB010008AB010008AB010008AB01000860
:1000D000AB010008AB010008592D0008AB01000876
:1000E000AB010008AB010008AB01000800F002F80A
:1000F00000F03FF80AA090E8000C82448344AAF183
:100100000107DA4501D100F034F8AFF2090EBAE880
:100110000F0013F0010F18BFFB1A43F0010318473B
:10012000F043000010440000103A24BF78C878C1A2
:10013000FAD8520724BF30C830C144BF04680C60ED
:10014000704700000023002400250026103A28BF35
:1001500078C1FBD8520728BF30C148BF0B60704739
:10016000632903F0A680002070471FB51FBD10B59E
:1001700010BD03F0AAF81146FFF7F7FF02F014FCD8
:1001800003F0C8F803B4FFF7F2FF03BC03F0D0F8A4
:100190000948804709480047FEE7FEE7FEE7FEE71B
:1001A000FEE7FEE7FEE7FEE7FEE7FEE70448054957
:1001B000054A064B70470000AF020008ED0000083A
:1001C0004801002048070020480300204803002081
:1001D0000CB50020019000906C48006840F480301D
:1001E0006A49086000BF6948006800F40030009068
:1001F0000198401C0190009818B90198B0F5A06FC3
:10020000F1D16248006800F4003010B10120009084
:1002100001E0002000900098012843D15C4800686C
:1002200040F010005A4908600846006820F00300BA
:1002300008600846006840F00200086053484068C3
:10024000524948600846406848600846406840F4A3
:10025000806048600846406820F47C10486008468A
:10026000406840F4E81048600846006840F080703C
:10027000086000BF4548006800F000700028F9D011
:100280004248406820F00300404948600846406802
:1002900040F00200486000BF3C48406800F00C009D
:1002A0000828F9D10CBD10B5FFF792FF10BD10B5AD
:1002B0003648006840F0010034490860084640684C
:1002C00034490840314948600846006832490840CE
:1002D0002E4908600846006820F48020086008461F
:1002E000406820F4FE0048604FF41F008860FFF76C
:1002F000DAFF4FF000602949086010BD10B50021F9
:1003000000200022214B5B6803F00C0121B104297D
:1003100006D0082928D107E0214B224C236027E092
:100320001F4B204C236023E0184B5B6803F47010D4
:10033000164B5B6803F48032022303EB904022B932
:10034000194B4343174C23600DE0104B5B6803F4DB
:10035000003323B1144B4343124C236003E0104B92
:100360004343104C236003E00D4B0E4C236000BF51
:1003700000BF064B5B68C3F303130C4CE15C094BF5
:100380001B68CB40074C236010BD000000100240EA
:10039000002002400000FFF8FFFFF6FE08ED00E03D
:1003A00000127A000000002000093D000400002037
:1003B00010B50446CC48844208D10121042000F045
:1003C0002DFB0021042000F029FB46E0C7488442B1
:1003D00008D10121082000F021FB0021082000F0B5
:1003E0001DFB3AE0C248844208D10121102000F0F0
:1003F00015FB0021102000F011FB2EE0BD488442C7
:1004000008D10121202000F009FB0021202000F06C
:1004100005FB22E0B848844208D10121402000F0C9
:10042000FDFA0021402000F0F9FA16E0B3488442BA
:1004300008D10121802000F0F1FA0021802000F095
:10044000EDFA0AE0AE48844207D10121801500F0A0
:10045000E5FA0021A01500F0E1FA10BD10B5012168
:10046000084600F0DBFA0021012000F0D7FA10BDA9
:100470002DE9F0410246002500260020002300243B
:10048000002791F803C00CF00F0591F803C00CF0A1
:10049000100CBCF1000F03D091F802C04CEA050526
:1004A00091F800C0BCF1000F31D0146800202BE09F
:1004B0004FF0010C0CFA00F3B1F800C00CEA03068F
:1004C0009E4220D183004FF00F0C0CFA03F7BC437F
:1004D00005FA03FC4CEA040491F803C0BCF1280FB0
:1004E00006D14FF0010C0CFA00FCC2F814C00AE06F
:1004F00091F803C0BCF1480F05D14FF0010C0CFA84
:1005000000FCC2F810C0401C0828D1D31460B1F818
:1005100000C0BCF1FF0F34DD546800202EE000F174
:10052000080C4FF0010808FA0CF3B1F800C00CEA0F
:1005300003069E4221D183004FF00F0C0CFA03F703
:10054000BC4305FA03FC4CEA040491F803C0BCF177
:10055000280F05D100F1080C08FA0CF8C2F8148035
:1005600091F803C0BCF1480F07D100F1080C4FF01F
:10057000010808FA0CF8C2F81080401C0828CED3F5
:100580005460BDE8F0814FF6FF7101800221817057
:100590000421C17070470246002093680B400BB1E4
:1005A000012000E0002070470146886880B2704753
:1005B00002460020D3680B400BB1012000E0002070
:1005C00070470146C86880B2704701617047416159
:1005D00070470AB1016100E041617047C160704736
:1005E0004FF480320A43826181618261826982694B
:1005F000704702460020434B18684FF6807318403E
:1006000040EA021008433F4B186070473E49C861FA
:100610007047F0B50A46002300240021002500F0B1
:100620000046B6F1004F02D1364EF16901E0354E79
:100630007168C0F3034583B200F44016B6F5401F5D
:1006400008D121F070612F4E766826F070662D4F2C
:100650007E6012E000F48016B6F5801F06D10326F6
:1006600006FA05F4A14341F0706106E0460D36013B
:1006700003FA06F6B14341F0706122B1460D36012E
:1006800003FA06F6314300F00046B6F1004F02D1FE
:100690001C4EF16101E01B4E7160F0BD30B50022CF
:1006A0008B071C0F0F2303FA04F2164B08338C1030
:1006B00053F824309343134C08348D1044F82530FC
:1006C00023468C1053F824308C07240F00FA04F4CE
:1006D00023430C4C08348D1044F8253030BD0A49B2
:1006E000DC3108607047000000080140000C014048
:1006F000001001400014014000180140001C01409E
:10070000002001400000014000002042DF48006856
:1007100040F00100DD49086008464068DC490840B7
:10072000DA49486008460068DA490840D749086055
:100730000846006820F4802008600846406820F4DD
:10074000FE0048604FF41F0088607047CF49096879
:1007500021F48031CD4A11601146096821F48021CD
:100760001160B0F5803F03D0B0F5802F0ED106E0C8
:10077000C649096841F48031C44A116007E0C349A1
:10078000096841F4A021C14A116000E000BF00BF28
:10079000704710B501460022002300204A11012AAB
:1007A00002D1BA4C236806E0022A02D1B74C236A70
:1007B00001E0B64C636A01F01F02012494401C4022
:1007C0000CB1012000E0002010BD38B500200090E1
:1007D0000024002500BF3120FFF7DBFF054600980D
:1007E000401C00900098B0F5A06F01D0002DF2D011
:1007F0003120FFF7CEFF08B1012400E0002420469D
:1008000038BD01460020A14A106820F0F80040EAF7
:10081000C10010607047A049086070470246002080
:100820009A4B586820F47C1042EA01031843974B16
:100830005860704798490866704701460020934AFF
:10084000506820F003000843506070478F484068AC
:1008500000F00C007047014600208C4A506820F0E0
:10086000F00008435060704701460020874A5068F6
:1008700020F4E06008435060704701460020834A3E
:10088000506820F4605040EAC1005060704729B1C0
:100890007E4A527A02437D4B5A7204E07B4A527A76
:1008A00082437A4B5A7270477B49D831086070474F
:1008B00001460020754A506820F4404008435060CB
:1008C00070470021714A20321170704A82F820105E
:1008D000012802D004280AD104E001216B4A203209
:1008E000117005E00521694A2032117000E000BF57
:1008F00000BF70476949086070476449096A01434D
:10090000624A11627047654944390860704730B5E2
:1009100000210022002400235C4D6D6805F00C01CD
:1009200021B1042905D0082923D105E05C4D0560DB
:1009300022E05B4D05601FE0544D6D6805F47012B8
:10094000524D6D6805F48034022505EB92421CB9C6
:10095000544D554305600BE04C4D6D6805F4003572
:100960001DB1504D5543056002E04D4D55430560A6
:1009700002E04B4D056000BF00BF444D6D6805F0BF
:10098000F0010909484D6B5C0568DD4045603F4D4D
:100990006D6805F4E061090A434D6B5C4568DD4014
:1009A00085603A4D6D6805F46051C90A3E4D6B5C37
:1009B0004568DD40C560354D6D6805F44041890BE3
:1009C0003A4D6B5CC568B5FBF3F5056130BD29B1E7
:1009D0002E4A526902432D4B5A6104E02B4A526958
:1009E00082432A4B5A61704729B1284A92690243CF
:1009F000264B9A6104E0254A92698243234B9A610F
:100A0000704729B1214AD2690243204BDA6104E0E0
:100A10001E4AD26982431D4BDA61704729B11B4AD5
:100A2000D2680243194BDA6004E0184AD268824364
:100A3000164BDA60704729B1144A12690243134B0E
:100A40001A6104E0114A12698243104B1A6170471F
:100A500012494039086070470F49C86470470B4914
:100A6000C87170470948406A40F080700749486281
:100A7000704701460020054A92680A400AB10120E9
:100A800000E0002070470149887270470010024062
:100A90000000FFF8FFFFF6FE0000424280044242E1
:100AA00000127A0000093D001400002024000020FC
:100AB00031490143314A1160704770B5002100236C
:100AC0000F22C47804B32D4C246804F4E064C4F508
:100AD000E064210AC1F10403CA40447804FA03F136
:100AE0008478144021430901254C0678A1550478E7
:100AF00004F01F050124AC4005786D11AD0005F12F
:100B0000E025C5F8004109E0047804F01F05012440
:100B1000AC401C4D0678761145F8264070BD1A4A47
:100B20000A400243154B1B1F1A60704739B1134A24
:100B3000121D12680243114B1B1D1A6006E00F4A7A
:100B4000121D126882430D4B1B1D1A60704704284A
:100B500008D14FF0E021096941F004014FF0E02293
:100B6000116107E04FF0E021096921F004014FF025
:100B7000E0221161704700000000FA050CED00E072
:100B800000E400E080E100E080FFFF1F0020444916
:100B90000860091D0860091D0860091D08604148BA
:100BA0003F4914310860704700213D498279002A8D
:100BB0003AD00A46126803689A430B461A600A1D27
:100BC000126803689A430B1D1A60027911440A687F
:100BD00003681A430A60324A0832126803689A436B
:100BE0002F4B08331A601A1D126803689A432C4B66
:100BF0000C331A604279102A0ED11A1F126803684A
:100C00001A43274B08331A601A1D126803681A43E7
:100C1000234B0C331A600DE02149427911440A68D4
:100C200003681A430A6005E0027911440A68036800
:100C30009A430A6070470021016001710C214171E3
:100C40000021817170471649103109680143144A27
:100C500010321160704701460020114A14321268A8
:100C60000A400AB1012000E0002070470C4914310D
:100C700008607047014600200022094B1B6803EA08
:100C80000102074B14331B680B4013B10AB101205A
:100C900000E00020704702491431086070470000EE
:100CA00000040140FFFF0F0010B50446FE488442D7
:100CB00008D10121C014FFF7B1FE0021E014FFF7B5
:100CC000ADFEC4E0B4F1804F08D101210846FFF722
:100CD000B2FE00210120FFF7AEFEB8E0F3488442E7
:100CE00008D101210220FFF7A6FE00210220FFF714
:100CF000A2FEACE0EE48844208D101210420FFF7B7
:100D00009AFE00210420FFF796FEA0E0E948844205
:100D100008D101210820FFF78EFE00210820FFF7EF
:100D20008AFE94E0E448844208D101211020FFF7B4
:100D300082FE00211020FFF77EFE88E0DF4884421B
:100D400008D101212020FFF776FE00212020FFF7A7
:100D500072FE7CE0DA48844208D101214014FFF79A
:100D60005DFE00216014FFF759FE70E0D548844213
:100D700009D10121C804FFF751FE00214FF40020E2
:100D8000FFF74CFE63E0D048844209D101210805F9
:100D9000FFF744FE00214FF48010FFF73FFE56E0BE
:100DA000CA48844209D101214805FFF737FE0021D6
:100DB0004FF40010FFF732FE49E0C548844208D1E5
:100DC00001214020FFF737FE00214020FFF733FECE
:100DD0003DE0C048844208D101218020FFF72BFE6E
:100DE00000218020FFF727FE31E0BB48844208D174
:100DF00001218015FFF71FFE0021A015FFF71BFE44
:100E000025E0B648844209D101210804FFF706FE17
:100E100000214FF48030FFF701FE18E0B048844213
:100E200009D101214804FFF7F9FD00214FF40030FA
:100E3000FFF7F4FD0BE0AB48844208D101218804A0
:100E4000FFF7ECFD00214FF48020FFF7E7FD10BD18
:100E500000220288944B98420ED0994B98420BD0B6
:100E6000B0F1804F08D0914B984205D0904B9842FA
:100E700002D0904B984204D14FF68F731A404B88A2
:100E80001A438D4B984207D08C4B984204D04FF6B2
:100E9000FF431A40CB881A4302808B8883850B88D6
:100EA0000385814B98420BD0854B984208D08B4BE1
:100EB000984205D08A4B984202D08A4B984201D181
:100EC0000B7A038601238382704770B500240022C9
:100ED0000023058C4FF6FE7635400584028C83880E
:100EE000048B4FF68F752C40B51E2C400D882C437B
:100EF000751E2A400D892A434D882A436A4DA8420F
:100F00000BD06F4DA84208D0744DA84205D0744D47
:100F1000A84202D0734DA84213D14FF6F7752A406C
:100F20004D892A434FF6FB752A408D882A434FF698
:100F3000FF652B404FF6FF552B408D892B43CD8904
:100F40002B4383800483CD888586028470BD70B571
:100F5000002400220023058C4FF6EF7635400584EF
:100F6000028C8388048B48F6FF752C404FF6FF45B2
:100F70002C400D884FF6FF7606EA05252C434FF6E8
:100F8000DF752A400D8906EA05152A434D8806EAD1
:100F900005152A43444DA84202D0494DA8421DD10F
:100FA0004FF67F752A404D894FF6FF7606EA051504
:100FB0002A434FF6BF752A408D8806EA05152A4355
:100FC0004FF6FF352B404FF2FF752B408D8906EA17
:100FD00085052B43CD8906EA85052B438380048351
:100FE000CD880587028470BD70B5002400220023DF
:100FF000058C4FF6FF6635400584028C8388848B10
:101000004FF68F752C404FF6FC752C400D882C4305
:101010004FF6FF552A400D894FF6FF7606EA052563
:101020002A434D8806EA05252A431F4DA84202D0CF
:10103000234DA8421DD14FF2FF752A404D894FF62E
:10104000FF7606EA05252A434FF6FF352A408D88AC
:1010500006EA05252A434EF6FF752B404DF6FF752F
:101060002B408D8906EA05152B43CD8906EA051527
:101070002B4383808483CD888587028470BD70B5BF
:10108000002200230024058C4EF6FF7635400584AF
:10109000038C8488828B48F6FF752A404FF6FF4503
:1010A0002A400D8820E00000002C01400004004090
:1010B00000080040000C00400010004000140040F8
:1010C00000340140004C01400050014000540140F8
:1010D00000180040001C004000200040004001407B
:1010E00000440140004801404FF6FF7606EA05251E
:1010F0002A434DF6FF752B400D8906EA05352B4333
:101100004D8806EA05352B43FA4DA84202D0FA4D28
:10111000A84208D14BF6FF752C408D894FF6FF761B
:1011200006EA85152C4384808283CD88A0F8405040
:10113000038470BD828B4FF2FF331A408283828B0F
:101140004FF6FF7303EA01231A4382837047F0B519
:101150000C461546002200210026078C4EF6FF7C27
:1011600007EA0C070784828B018C4FF6FF7707EAAA
:10117000043640F6FF473A404FF6FF7707EA052767
:101180003A434FF6FF7707EA03373A43D94FB8425D
:101190000ED0D94FB8420BD0B0F1804F08D0D74F06
:1011A000B84205D0D64FB84202D0D64FB84206D189
:1011B0004DF6FF77394046F48057394305E047F64E
:1011C000FF57394044F48057394382830184F0BD8E
:1011D000828B4FF6F3731A408283828B0A43828399
:1011E0007047F0B50C461546002200210026078CFA
:1011F0004FF6FF6C07EA0C070784828B018C4FF6D1
:10120000FF7707EA04264FF60C773A404FF6FF7750
:1012100007EA03172F433A43B64FB8420ED0B64FF2
:10122000B8420BD0B0F1804F08D0B44FB84205D0CF
:10123000B34FB84202D0B34FB84206D14FF6FF5772
:10124000394046F48077394305E04FF2FF57394083
:1012500044F48077394382830184F0BD028B4FF2DE
:10126000FF331A400283028B4FF6FF7303EA012318
:101270001A4302837047F0B50C4615460022002140
:101280000026078C4FF6EF7C07EA0C070784028BD9
:10129000018C4FF6FF7707EA041640F6FF473A4005
:1012A0004FF6FF7707EA03373A434FF6FF7707EA2F
:1012B00005273A438F4FB8420ED08F4FB8420BD01C
:1012C000B0F1804F08D08D4FB84205D08C4FB84256
:1012D00002D08C4FB84206D14FF6DF77394046F046
:1012E0001007394305E04FF65F77394044F01007A7
:1012F000394302830184F0BD028B4FF6F3731A4029
:101300000283028B0A4302837047F0B50C461546F0
:1013100000220021068C4FF6FE773E400684028BA9
:10132000018C4FF60C7632407E1C06EA03162E43E3
:101330003243704EB0420ED06F4EB0420BD0B0F17F
:10134000804F08D06D4EB04205D06D4EB04202D0F5
:101350006C4EB04206D14FF6FD76314044F00106A6
:10136000314305E04FF6F576314044F00106314354
:1013700002830184F0BD70B505460C465D48854288
:101380000ED05D4885420BD0B5F1804F08D05B4848
:10139000854205D05A48854202D05A48854200D13C
:1013A00000E000BF208850B92389A28861882846C0
:1013B000FFF7ABFFE1882846FFF79EFF25E0208876
:1013C00004280AD12389A28861882846FFF753FFA1
:1013D000E1882846FFF742FF17E0208808280AD155
:1013E0002389A28861882846FFF7FBFEE18828460A
:1013F000FFF7EEFE09E02389A28861882846FFF7FF
:10140000A6FEE1882846FFF795FE70BD2DE9F04164
:1014100005460C4600260127608808B9022600E030
:101420000026A088012801D1022700E0012720889A
:10143000A0B92389A28861882846FFF766FFE18862
:101440002846FFF759FF23893A4631462846FFF7D9
:1014500012FFE1882846FFF701FF13E02389A288E5
:1014600061882846FFF707FFE1882846FFF7F6FE68
:1014700023893A4631462846FFF747FFE188284648
:10148000FFF73AFFBDE8F0810A884B881A438B8842
:101490001A43CB881A430B891A434B891A438B8909
:1014A0001A43A0F8442070474FF6FF718180002155
:1014B0000180C1804180017270470021018041801C
:1014C0008180C180018141818181C181704700217A
:1014D00001804180012181800021C180018170470C
:1014E0000021018041808180C18001814181818111
:1014F00070470000002C014000340140000400400F
:1015000000080040000C004021B1028842F00102B6
:10151000028004E002884FF6FE731A400280704792
:1015200031B1B0F8442042F40042A0F8442005E074
:10153000B0F84420C2F30E02A0F8442070471AB15C
:1015400083890B43838102E083898B4383817047C6
:101550008182704741EA0203A0F8483070471AB10F
:1015600083890B43838102E083898B4383817047A6
:1015700001894FF6F8721140018170470A46002137
:1015800001894FF68F73194011430181704730B5BF
:1015900004460D4629462046FFF7F0FF208940F01B
:1015A0000700208130BD2DE9F04104460D46164666
:1015B0001F46602D06D13B46012231462046FFF7EB
:1015C0005AFE05E03B46012231462046FFF79DFECC
:1015D00029462046FFF7D2FF208940F007002081EE
:1015E000BDE8F08130B50C4600210189C9B24FF643
:1015F000FF7505EA0325154325432943018130BDC5
:101600002DE9F04105460E4617469846002443460C
:101610003A4631462846FFF7E5FF2C894FF6F87029
:10162000044044F007044FF68F70044044F0700407
:101630002C81BDE8F081F0B504460D4616461F46E4
:101640003B46324629462046FFF7CCFF208940F42E
:1016500080402081F0BD0185828270470A460021CA
:1016600001884FF68F731940114301807047F0B520
:101670000C4615461E460021002200230189028BDC
:10168000038C4FF6F877394021434FF6FC473A4038
:1016900040F201173A434FF6DD773B404FF6FF77B4
:1016A00007EA06172F433B43018102830384F0BD01
:1016B0000A460021018B4FF68F73194011430183B5
:1016C00070470A460021018B48F6FF7319404FF618
:1016D000FF7303EA02231943018370470A4600217E
:1016E000818B4FF68F7319401143818370470A46EF
:1016F0000021818B48F6FF7319404FF6FF7303EA10
:10170000022319438183704721B1028842F080028D
:10171000028004E002884FF67F731A40028070470F
:1017200021B1828842F00402828004E082884FF670
:10173000FB731A408280704721B1828842F0080210
:10174000828004E082884FF6F7731A4082807047E7
:1017500021B1828842F00102828004E082884FF643
:10176000FE731A40828070470A460021018B4FF6B3
:10177000F77319401143018370470A460021018B1A
:101780004FF2FF7319404FF6FF7303EA0223194328
:10179000018370470A460021818B4FF6F773194089
:1017A0001143818370470A460021818B4FF2FF73FA
:1017B00019404FF6FF7303EA0223194381837047F0
:1017C0000A460021018B4FF6FB7319401143018338
:1017D00070470A460021018B4FF6FF3319404FF640
:1017E000FF7303EA02231943018370470A4600216D
:1017F000818B4FF6FB7319401143818370470A4672
:101800000021818B4FF6FF3319404FF6FF7303EA37
:1018100002231943818370470A460021018B4FF64A
:101820007F7319401143018370470A460021018BE1
:10183000C1F30E014FF6FF7303EA0223194301833C
:1018400070470A460021818B4FF67F731940114380
:10185000818370470A460021818BC1F30E014FF648
:10186000FF7303EA02231943818370470A4600216C
:10187000018C4FF6FD7319401143018470470A46ED
:101880000021018C4FF6F773194011430184704712
:101890000A460021018C4FF6DF7319404FF6FF73A3
:1018A00003EA02131943018470470A460021018CA0
:1018B0004FF67F7319404FF6FF7303EA0213194383
:1018C000018470470A460021018C4FF6FF531940EE
:1018D0004FF6FF7303EA02231943018470470A4657
:1018E0000021018C4FF2FF7319404FF6FF7303EA9A
:1018F00002231943018470470A460021018C4DF6EA
:10190000FF7319404FF6FF7303EA02331943018452
:10191000704730B5002301248C40A3B2048C9C4353
:101920000484048C02FA01F5ADB22C43048430BD6A
:1019300030B5002304248C40A3B2048C9C4304845F
:10194000048C02FA01F5ADB22C43048430BD70B5AD
:101950000346002000241846183001258D40ACB203
:101960001D8CA5431D8409B1082909D100EB610034
:10197000056825F0700505600568154305600EE0F3
:101980000D1FC5F34E052844056825F4E0450560A4
:1019900005684FF6FF7606EA02263543056070BDFE
:1019A00021B1028842F00202028004E002884FF670
:1019B000FD731A400280704721B1028842F0040290
:1019C000028004E002884FF6FB731A4002807047E1
:1019D00021B1828842F08002828004E082884FF642
:1019E0007F731A408280704702884FF6F7731A405F
:1019F000028002880A430280704782884FF68F7304
:101A00001A40828082880A438280704702894FF69A
:101A1000F8731A40028102890A43028170470289E1
:101A20004FF67F731A40028102890A430281704790
:101A30008184704781857047818670470187704730
:101A400081877047A0F84010704702884FF6FF4327
:101A50001A40028002880A43028070470146888E3D
:101A600070470146088F70470146888F70470146CE
:101A7000B1F8400070470146888C70470146088DD8
:101A8000704702460020138A0B400BB1012000E092
:101A900000207047CA430282704730B502460020DA
:101AA00000230024158A05EA0103958905EA01044B
:101AB00013B10CB1012000E0002030BDCA43028206
:101AC0007047000010B50446FB48844209D101214B
:101AD0008803FEF7A3FF00214FF48040FEF79EFF2E
:101AE00032E0F648844209D101214804FEF7A3FF01
:101AF00000214FF40030FEF79EFF25E0F0488442BD
:101B000009D101218804FEF796FF00214FF48020BF
:101B1000FEF791FF18E0EB48844209D10121C80487
:101B2000FEF789FF00214FF40020FEF784FF0BE051
:101B3000E548844208D101210805FEF77CFF002119
:101B40004FF48010FEF777FF10BD2DE9F04786B007
:101B500005460E460024A24600BFA1460027B089D4
:101B600000B100BF2F462C8A4CF6FF700440F0886D
:101B700004432C82AC894EF6F3100440B0883189BE
:101B80000843718908430443AC81AC8A4FF6FF4097
:101B90000440B0890443AC8201A8FEF7B8FEC648F1
:101BA000874202D1DDF810A001E0DDF80CA0A88981
:101BB00000F4004040B10AEBCA0000EB0A103168A3
:101BC0004900B0FBF1F807E00AEBCA0000EB0A108D
:101BD00031688900B0FBF1F86420B8FBF0F0040133
:101BE0002009642101FB1089A88900F4004040B15C
:101BF000322000EBC900B0FBF1F000F00700044315
:101C000008E0322000EB09106421B0FBF1F000F095
:101C10000F0004432C8106B0BDE8F0874FF4165145
:101C2000016000218180C18001810C21418100215E
:101C30008181704710B502460020108A4FF2FF03E1
:101C400018400B884C8823438C882343CC8823433B
:101C50001843108210BD0021018041808180C18025
:101C6000704721B1828942F40052828104E0828966
:101C70004DF6FF731A4082817047F0B50346002489
:101C800000260025002040F66A17B94200D100BFA7
:101C90001846C1F3421401F01F06012707FA06F5A2
:101CA000012C01D10C3004E0022C01D1103000E0F5
:101CB00014301AB107682F43076002E00768AF438A
:101CC0000760F0BD1AB1838A0B43838202E0838AE6
:101CD0008B4383827047028A4FF6F0731A40028268
:101CE000028A0A430282704782894FF2FF731A40C8
:101CF000828182890A438281704721B1828942F0C0
:101D00000202828104E082894FF6FD731A408281CB
:101D10007047028A4FF6DF731A400282028A0A4332
:101D20000282704721B1028A42F48042028204E0BA
:101D3000028A4BF6FF731A4002827047C1F3080211
:101D40008280704701468888C0F308007047818907
:101D500041F0010181817047028BD2B20283028B74
:101D600042EA012202837047028B02F47F4202831F
:101D7000028B0A430283704721B1828A42F020021B
:101D8000828204E0828A4FF6DF731A4082827047B3
:101D900021B1828A42F01002828204E0828A4FF6E8
:101DA000EF731A408282704721B1828A42F00802A2
:101DB000828204E0828A4FF6F7731A40828270476B
:101DC00021B1828942F40042828103E08289C2F318
:101DD0000E028281704721B1828A42F400628282BF
:101DE00004E0828A4FF2FF731A4082827047828A2F
:101DF0004FF6FB731A408282828A0A4382827047BE
:101E000021B1828A42F00202828204E0828A4FF685
:101E1000FD731A408282704702460020B1F5007FB0
:101E200000D100BF13880B400BB1012000E000205F
:101E3000704701F40072B2F5007F00D100BFCA43C1
:101E40000280704770B50246002400230025002060
:101E500040F66A16B14200D100BFC1F3421501F04D
:101E60001F03012606FA03F3012D02D196893340A0
:101E700006E0022D02D1168A334001E0968A3340F3
:101E80000C12012606FA04F41688344013B10CB182
:101E9000012000E0002070BD10B50022002340F6B4
:101EA0006A14A14200D100BF0A1201249440A3B2D7
:101EB000DC43048010BD00000038014000440040B5
:101EC00000480040004C004000500040002109E064
:101ED000002201E0531C9AB240F6B8339A42F9DB73
:101EE0004B1C99B28142F3DB70474FF40072FA4BFE
:101EF0001A6052101A6020221B1F1A60F74AD06025
:101F000020221B1D1A601B1F1A60D2001A60F34AA0
:101F1000D16020221B1D1A601B1F1A60D2001A609C
:101F2000704700B501210020FFF7DFFF4FF47A7002
:101F3000FFF7CCFF00210120FFF7D7FF41F290719E
:101F40001020FFF7D2FF4FF41C516020FFF7CDFFA8
:101F500001216120FFF7C9FF02214620FFF7C5FFDD
:101F600048F210011320FFF7C0FF48F2FE011220D3
:101F7000FFF7BBFF4FF4A0610220FFF7B6FF41F26D
:101F800030010320FFF7B1FF40F203313020FFF7AB
:101F9000ACFF40F203313120FFF7A7FF40F20331DD
:101FA0003220FFF7A2FF4FF440713320FFF79DFF6F
:101FB00003213420FFF799FF40F203313520FFF76A
:101FC00094FF14213620FFF790FF40F203313720B1
:101FD000FFF78BFF40F203313820FFF786FF40F216
:101FE00003313920FFF781FF4FF440713A20FFF7AA
:101FF0007CFF03213B20FFF778FF40F203313C20B8
:10200000FFF773FF4FF4A0513D20FFF76EFF4FF431
:1020100000719220FFF769FF40F203319320FFF730
:1020200064FF40F60D019020FFF75FFF41F21801B9
:102030000320FFF75AFF40F273110720FFF755FF07
:1020400000BD00B543F20801E320FFF74EFF122167
:10205000E720FFF74AFF41F23121EF20FFF745FF6C
:1020600000210120FFF741FF4FF4E0610220FFF75C
:102070003CFF41F230010320FFF737FF002104202D
:10208000FFF733FF40F207210820FFF72EFF002162
:102090000920FFF72AFF00210A20FFF726FF002171
:1020A0000C20FFF722FF00210D20FFF71EFF00216B
:1020B0000F20FFF71AFF00211020FFF716FF07215E
:1020C0001120FFF712FF00211220FFF70EFF002161
:1020D0001320FFF70AFF4FF47A70FFF7F7FE41F283
:1020E00090611020FFF701FF40F227211120FFF738
:1020F000FCFE3220FFF7EAFE1D211220FFF7F5FE5D
:102100003220FFF7E3FE4FF400611320FFF7EDFEEE
:1021100014212920FFF7E9FE0B212B20FFF7E5FE14
:102120003220FFF7D3FE00212020FFF7DEFE002142
:102130002120FFF7DAFE07213020FFF7D6FE40F21C
:1021400007713120FFF7D1FE06213220FFF7CDFEC7
:1021500040F204713520FFF7C8FE41F604713620C5
:10216000FFF7C3FE04213720FFF7BFFE0021382010
:10217000FFF7BBFE40F206713920FFF7B6FE40F2D2
:1021800001713C20FFF7B1FE0F213D20FFF7ADFEAE
:1021900000215020FFF7A9FEEF215120FFF7A5FEF7
:1021A00000215220FFF7A1FE40F23F115320FFF71C
:1021B0009CFE4FF41C516020FFF797FE0121612027
:1021C000FFF793FE00216A20FFF78FFE0021802099
:1021D000FFF78BFE00218120FFF787FE0021822080
:1021E000FFF783FE00218320FFF77FFE002184207C
:1021F000FFF77BFE00218520FFF777FE102190205E
:10220000FFF773FE00219220FFF76FFE032193205A
:10221000FFF76BFE4FF488719520FFF766FE0021F3
:102220009720FFF762FE00219820FFF75EFE41F243
:1022300018010320FFF759FE40F273110720FFF742
:1022400054FE00BD08B54FF6FF70ADF80000032046
:102250008DF8020010208DF8030069461F48FEF734
:1022600007F908BD08B54FF6FF70ADF80000032070
:102270008DF8020048208DF8030069461748FEF7E4
:10228000F7F808BD70B504464FF4007012490860B5
:10229000401008602020091F08601048C4602020FA
:1022A000091D0860091F0860C0000860FFF7DAFF19
:1022B0004FF48060084908600848806885B20815B6
:1022C000091F0860FFF7BEFF4FF400700249091FA5
:1022D0000860284670BD0000140C01400010014049
:1022E00008B501211820FEF77FFB01212020FEF711
:1022F0007BFB4FF4E460ADF8000001208DF8020094
:1023000010208DF803006946FC48FEF7B1F8FFF78E
:1023100099FFFA481030006840F4C460F749103162
:10232000086008BD10B5FFF7DBFF0020FFF7AAFF2C
:10233000F34908800846008848F23021884202D1DB
:10234000FFF7EFFD01E0FFF77CFE0020FFF79AFFAB
:10235000EB49088010BD01B5BDF80000E9490880CF
:1023600008BD01B5BDF80000E749088008BD30B5DB
:1023700004460D4621462020FFF7B7FD29462120BF
:10238000FFF7B3FD30BD4FF40071DC4A1432116029
:102390004910121F116020211160DC49C860202102
:1023A000121D1160121F1160C900116049001160F7
:1023B00070474FF40070D149143108604010086034
:1023C0002020091F08602220D049C8602020CB4966
:1023D00014310860091F0860C000086040000860F0
:1023E00070472DE9F043064689461746002400252C
:1023F000A046B04649464046FFF7B9FF00BF1EE081
:10240000FFF7D7FF00250FE037F814000121A9409E
:10241000084020B9BC480088FFF7B5FF03E0B94881
:102420000088FFF7B0FF6D1C102DEDD308F10100FF
:1024300000F0FF0849464046FFF799FF641C182C3E
:10244000DED3BDE8F08370B505460E461446A4F110
:102450002000C4B204EB4400AD4901EB0012314648
:102460002846FFF7BEFF70BD2DE9F04107460C4638
:10247000A648C0680FFA80F8002540F23F1609E030
:10248000227831463846FFF7DEFFA6F1100086B20B
:10249000641C6D1C207808B1142DF1D39B48C0F842
:1024A0000C80BDE8F08110B504469AA12046FFF7E4
:1024B000DBFF10BD30B50546002400210846FFF7BC
:1024C00056FFFFF776FF00BF03E02846FFF75BFFEC
:1024D000641CB4F5963FF8D330BDF0B504460D4604
:1024E00016461F46B44206DBA01B401C81B250209A
:1024F000FFF7FBFC03E000215020FFF7F6FC21462C
:102500005120FFF7F2FCBD4206DBE81B401C81B204
:102510005220FFF7EAFC03E000215220FFF7E5FC20
:1025200029465320FFF7E1FC29462046FFF71FFF0D
:10253000F0BD00B54FF4A073F022591EEF20FFF755
:10254000CCFF41F218010320FFF7CFFC00BD2DE9BD
:10255000F0410646884615461F460024414630464F
:10256000FFF705FF5FB9FFF724FF00BF04E06548F0
:102570000088FFF708FF641CAC42F8D310E0002489
:102580000CE0FFF716FF5F480088FFF7FCFE701CA9
:10259000C6B241463046FFF7EAFE641CAC42F0D3B7
:1025A000BDE8F081F0B505460E4617461C460023EF
:1025B000224631462846FFF7CAFFE919C8B2002370
:1025C00022463146FFF7C3FF01233A4631462846EB
:1025D000FFF7BDFF301B401C81B201233A4628465D
:1025E000FFF7B5FFF0BD2DE9F04306460F469046D4
:1025F0000320A0EB4809002445466EE07A1991B209
:102600003219D0B2FFF7B3FEFFF7D3FE3D48008882
:10261000FFF7B9FE7A1B91B23219D0B2FFF7A7FECD
:10262000FFF7C7FE37480088FFF7ADFE7A1991B271
:10263000321BD0B2FFF79BFEFFF7BBFE314800888C
:10264000FFF7A1FE7A1B91B2321BD0B2FFF78FFECB
:10265000FFF7AFFE2B480088FFF795FE3A1991B2BD
:102660007219D0B2FFF783FEFFF7A3FE254800885A
:10267000FFF789FE3A1B91B27219D0B2FFF777FECD
:10268000FFF797FE1F480088FFF77DFE3A1991B2C9
:10269000721BD0B2FFF76BFEFFF78BFE1948008864
:1026A000FFF771FE3A1B91B2721BD0B2FFF75FFECB
:1026B000FFF77FFE13480088FFF765FEB9F1000FB2
:1026C00004DA062000EB8400814405E0601B0A2147
:1026D00001EB800081446D1E641CAC428ED9BDE8C4
:1026E000F08370B506460024002540F23F1100201B
:1026F000FFF73DFEFFF75DFE00BF2CE0000C014040
:102700002C000020280000202A000020001001409A
:102710003E330008202020202020202020202020C0
:1027200020202020202020200000000000250FE095
:1027300056F824000121A940084020B95F480088CC
:10274000FFF721FE03E05E480088FFF71CFE6D1CCA
:10275000202DEDD3641CB4F5166FE7D370BD70B5B2
:102760000446002500266688A08846EA004665895A
:10277000A08945EA0045701B46082C4441F2080137
:102780000320FFF7B2FBFFF714FE002504E02088CA
:10279000FFF7F9FDA41C6D1CB542F8D341F21801F6
:1027A0000320FFF7A2FB70BD10B54FF40070454940
:1027B0000860401008602020091F0860222042495C
:1027C000C86020203F490860091F0860C0000860F9
:1027D000FFF748FD4FF480603A4908603A48806846
:1027E00084B20815091F0860FFF72CFD4FF4007034
:1027F0003449091F0860204610BD00B50021102093
:10280000FFF773FB00211120FFF76FFB002112205F
:10281000FFF76BFB00211320FFF767FB1420FFF786
:1028200055FB41F2B0711020FFF75FFB40F237110A
:102830001120FFF75AFB0520FFF748FB40F2391142
:102840001220FFF752FB0520FFF740FB4FF4E85141
:102850001320FFF74AFB13212920FFF746FB052031
:10286000FFF734FB40F273110720FFF73EFB00BD7A
:1028700000B540F273110720FFF737FB00BD00B52C
:1028800000210720FFF731FB00BD30B505460021D0
:102890000846FFF76CFDFFF78CFD002409E015F8F2
:1028A00014206100491C695C42EA0120FFF76BFDBE
:1028B000641CB4F5963FF2DB30BD00002A00002016
:1028C00028000020140C01400010014010B5EFA1B9
:1028D0003020FFF7C9FDF1480278F1A1F64800F079
:1028E0004DFCF5496020FFF7BFFDEC484278F3A1AD
:1028F000F14800F043FCF0498420FFF7B5FDE748BC
:102900008278F4A1EC4800F039FCEB49A820FFF7ED
:10291000ABFD10BD10B5F5480068012820D101219C
:10292000000200F0C7FAC8214FF4FA6000F0D8FBAB
:10293000EF480068052813D100214FF4807000F0A3
:10294000B9FA0020E94908604020D449087048706D
:102950008870FFF7BBFF4FF4FA71480000F0C0FB2E
:10296000E248406803281ED1E1480068052813DAD0
:10297000E0480068C82190FBF1F201FB12006428D6
:1029800004DA0121480200F095FA0CE000214FF42E
:10299000007000F08FFA06E00220D4494860002160
:1029A000000200F087FA10BD00244FF4A060FEF78B
:1029B0007FF8D14800684FF47A72B0FBF2F1481EFC
:1029C000B0F1807F00D31BE0481E4FF0E022506141
:1029D00050170122002807DA13071E0EC74B00F01C
:1029E0000F052D1F5E5503E013071D0EC44B1D542C
:1029F00000BF00204FF0E02290610720106100BF6F
:102A000000F076FA00F099FA00F004FAFFF78AFC79
:102A10000020FFF74FFD0020FFF7A3FC4FF6FF70EB
:102A2000FFF799FCFFF752FF00214FF47F4000F0C1
:102A300041FA4FF4FA71480000F052FB40E0B1480F
:102A4000007801283AD1B0497820FFF70DFDAE4853
:102A50000078AE490870AC4840784870AA48807841
:102A6000887008460078AA490978884215D1A74895
:102A70004078A749497888420FD1A4488078A44972
:102A80008978884209D1A0480079A14908709E48F8
:102A9000407948709C4880798870012240F2255125
:102AA0009C48FFF7EAF8002403E000209649085507
:102AB000641C322CF9DB002092490870FFF72AFFD2
:102AC000BDE710B54FF6FF70FFF7F4FC92A1302080
:102AD000FFF7CAFC94A16020FFF7C6FC96A18420F2
:102AE000FFF7C2FC10BD9749086000BF954909680F
:102AF0000029FBD1704710B53220FFF7F4FF012009
:102B0000FEF7B8F810B300BF01218F48FDF743FD71
:102B10000028F9D075480068A8B9604800784028B6
:102B200003D130205D49087004E05C480078401C07
:102B30005A49087059480078392802DD3020574931
:102B40000870FFF7C3FE0120FEF7A5F810BD10B511
:102B50003220FFF7C8FF4FF48070FEF78BF820B3E8
:102B600000BF4FF480717848FDF715FD0028F8D0BC
:102B70005E48006870B949484078402803D1302049
:102B80004649487004E045484078401C4349487035
:102B9000FFF79CFE41484078392802DD30203F494C
:102BA00048704FF48070FEF776F810BD10B53220F3
:102BB000FFF799FF0220FEF75DF810B300BF022176
:102BC0006248FDF7E8FC0028F9D048480068A8B939
:102BD00032488078402803D130203049887004E0A2
:102BE0002E488078401C2D4988702C4880783928E0
:102BF00002DD302029498870FFF768FE0220FEF7C9
:102C00004AF810BD10B53220FFF76DFF0420FEF723
:102C100031F8002833D000BF04214C48FDF7BBFC3D
:102C20000028F9D03A4800781C490978884216D122
:102C30003748407819494978884210D1344880781B
:102C40001649897888420AD10120284908604FF640
:102C5000FF70FFF72FFC00202449486009E0402066
:102C60000E4908704870887020484068401C1F4911
:102C7000486000201E4908600420FEF70CF81B483D
:102C8000006810B9FFF722FE64E061E020202020F8
:102C90002020202020505344000000003700002056
:102CA00020202020204220313A256320202020208F
:102CB0002020202020000000A00000202020202034
:102CC000204220323A25632020202020202020206E
:102CD0002000000020202020204220333A256320BD
:102CE0002020202020202020200000005000002054
:102CF0004C000020480000200000002018ED00E0FB
:102D000000E400E044000020B40000203A0000206D
:102D100034000020004400402020202020202020DB
:102D20002053544100000000202020202046203A5B
:102D300032303030687A0000202020202044203AB1
:102D4000313025003000002000080140000C014017
:102D5000FFF7B7FE10BD000010B540F22551264820
:102D6000FFF770F810B32448FEF7ECFFC1B2234818
:102D700002680068401C214B1860214881541846A5
:102D80000068401E1E49085C782803D01846006879
:102D900007280BD100201949086001201949087043
:102DA000002240F225511448FEF767FF10BD70471E
:102DB00000BFFEE700BFFEE700BFFEE700BFFEE783
:102DC00070477047704710480068401C0E49086003
:102DD00008460068B0F57A7F07D10C480068401CAF
:102DE0000A49086000200849086009480068401E38
:102DF0000749086070470000004400404000002080
:102E0000B400002044000020480000204C000020B6
:102E10003000002000B587B001210520FDF7E4FD5A
:102E200001214804FDF7EDFD0820ADF80400042061
:102E30008DF8070001A91D48FDF71AFB0420ADF825
:102E4000040003208DF8060018208DF8070001A962
:102E50001648FDF70DFB26208DF8080000208DF8A0
:102E60000A0001208DF80B0002A8FDF726FE4FF4A2
:102E7000165003900020ADF81000ADF81200ADF828
:102E80001400ADF818000C20ADF8160003A908488E
:102E9000FEF75BFE012240F225510548FEF7EDFEEC
:102EA00001210348FEF7DDFE07B000BD0008014028
:102EB0000044004070B504460D4665B9214684487B
:102EC000FDF783FB04218348FDF77FFB0421814844
:102ED000FDF77DFB0BE021467D48FDF778FB0421E3
:102EE0007C48FDF772FB04217A48FDF770FB70BD4A
:102EF00008B501211020FDF777FD10208DF80300A3
:102F000003208DF802004FF47F40ADF800006946C1
:102F10006F48FDF7ADFA01212020FDF765FD102077
:102F20008DF803000420ADF8000003208DF80200A6
:102F300069466848FDF79CFA08BD1FB501210420C9
:102F4000FDF752FD0120ADF8040004208DF80700C4
:102F500001A96148FDF78CFA01210846FDF744FDFF
:102F600000210846FDF79AFB0120029000208DF811
:102F70000C0008208DF80D0001208DF80E0002A82D
:102F8000FDF712FE06208DF800000F208DF80100DD
:102F90008DF8020001208DF803006846FDF78DFDD5
:102FA00001210820FDF720FD0220ADF804000420D7
:102FB0008DF8070001A94948FDF75AFA0121084692
:102FC000FDF712FD01210846FDF768FB0220029083
:102FD00000208DF80C0008208DF80D0001208DF8E0
:102FE0000E0002A8FDF7E0FD07208DF800000F207D
:102FF0008DF801008DF8020001208DF8030068466D
:10300000FDF75BFD01210820FDF7EEFC0420ADF883
:1030100004008DF8070001A93048FDF729FA0121C5
:103020000846FDF7E1FC02210120FDF737FB0420F3
:10303000029000208DF80C0008208DF80D00012072
:103040008DF80E0002A8FDF7AFFD08208DF80000F6
:103050000F208DF801008DF8020001208DF803008B
:103060006846FDF72AFD01210420FDF7BDFC4FF461
:103070008070ADF8040004208DF8070001A91748FE
:10308000FDF7F6F901210846FDF7AEFC0821002006
:10309000FDF704FB4FF48070029000208DF80C00C7
:1030A00008208DF80D0001208DF80E0002A8FDF714
:1030B0007BFD17208DF800000F208DF801008DF8A2
:1030C000020001208DF803006846FDF7F6FC1FBDE5
:1030D000001001400014014000080140000C0140B4
:1030E00030B589B004460D4601210846FDF789FC3C
:1030F00001210520FDF778FC0220ADF82000182002
:103100008DF8230003208DF8220008A91A48FDF746
:10311000AFF94FF47A7090FBF4F0401E80B2ADF836
:1031200018004720ADF814000020ADF81A00ADF8E3
:10313000160005A94FF08040FDF78AFE6020ADF82B
:1031400004000120ADF80600ADF80A500020ADF8EB
:103150000C0001A94FF08040FDF7F9FE0821C806D8
:10316000FEF70BFB01218807FEF7CEFA0121880745
:10317000FEF7CAF909B030BD000801400FB41CB514
:10318000074B06AA7B4469460090059800F06FF84B
:103190000020694600F07EF81CBC5DF814FB0000BE
:1031A0000D0100002DE9F0410E460446002020628A
:1031B0002046E168884730B3252805D0D4E90121AD
:1031C0009047206A401CF2E7E168204600278847C4
:1031D000050018D0A5F14100192802D820354FF478
:1031E00000673246294620462760FCF7B9FF40B108
:1031F000012804D0F61D26F007060836D8E7361D4C
:10320000D6E72846DAE7206ABDE8F08170B50C46BB
:103210000546012A05D02878800600D5EA690023F2
:1032200002E0012305E05B1C934202D2E05C00282F
:10323000F9D1A869E618C01AA861286A184428625A
:103240002846AFF3008004E0D5E9012114F8010B12
:103250009047B442F8D32846AFF3008070BD704762
:103260007047704701694A1C02610878704700B5D1
:103270008FB0CDE901310021059105497944CDE9AF
:10328000031011466846FFF78DFF0FB000BD000028
:10329000E5FFFFFF0A6802F8010B0A60704710B5EE
:1032A000436913B1AFF3008001E0FFF7AFFF0120E6
:1032B00010BD127800F124010A7000224A70012228
:1032C000EDE711684FF0FF32E9E7754600F02CF8A2
:1032D000AE4605006946534620F00700854618B003
:1032E00020B5FCF763FFBDE820404FF000064FF02B
:1032F00000074FF000084FF0000B21F00701AC462B
:10330000ACE8C009ACE8C009ACE8C009ACE8C00949
:103310008D46704710B50446AFF300802046BDE8E7
:103320001040FCF72FBF000000487047E800002065
:1033300001491820ABBEFEE72600020070470000DE
:10334000000000000000000000000000000000007D
:10335000000000000000000000000000000000006D
:10336000000000000000000000000000000000005D
:103370008001800180018001800180018001800145
:103380008001800180018001800100000000800137
:1033900080010000000000000000000000000000AC
:1033A0000000CC00CC00CC00CC00CC00CC00000055
:1033B000000000000000000000000000000000000D
:1033C00000000000000000000000000000000000FD
:1033D00000000000000000000000600C600C600CA9
:1033E00030063006FE1FFE1F300638071803FE1F8A
:1033F000FE1F180318038C018C018C0100000000D3
:103400008000E003F80F9C0E8C1C8C188C00980038
:10341000F801E007800E801C8C188C189C18B80CE2
:10342000F00FE003800080000000000000000000BA
:10343000000000000E181B0C110C110611061103E0
:1034400011039B018E01C038C06C6044604430445D
:1034500030441844186C0C380000000000000000D4
:10346000E001F0033807180618063003F001F000F9
:10347000F8009C310E33061E061C061C063FFC732A
:10348000F02100000000000000000000000000002B
:1034900000000C000C000C000C000C000C000000E4
:1034A000000000000000000000000000000000001C
:1034B000000000000000000000000000000000000C
:1034C000000200038001C000C00060006000300006
:1034D000300030003000300030003000300060003C
:1034E0006000C000C0008001000300020000000076
:1034F00020006000C000800180010003000300067E
:10350000000600060006000600060006000600038E
:10351000000380018001C000600020000000000066
:1035200000000000000000000000C000C000D8063D
:10353000F807E00130033807000000000000000039
:10354000000000000000000000000000000000007B
:1035500000000000000000000000800180018001E8
:1035600080018001FC3FFC3F8001800180018001DF
:1035700080010000000000000000000000000000CA
:10358000000000000000000000000000000000003B
:10359000000000000000000000000000000000002B
:1035A0008001800100010001800000000000000097
:1035B000000000000000000000000000000000000B
:1035C000000000000000E007E0070000000000002D
:1035D00000000000000000000000000000000000EB
:1035E00000000000000000000000000000000000DB
:1035F00000000000000000000000000000000000CB
:10360000C000C0000000000000000000000000003A
:10361000000C000C00060006000600030003000377
:103620008003800180018001C000C000C0006000F4
:10363000600000000000000000000000000000002A
:10364000E003F007380E180C0C180C180C180C18A6
:103650000C180C180C180C180C18180C380EF00755
:10366000E003000000000000000000000000000077
:1036700000018001C001F0019801880180018001F2
:103680008001800180018001800180018001800132
:1036900080010000000000000000000000000000A9
:1036A000E003F80F180C0C180C1800180018000C88
:1036B000000600038001C000600030001800FC1FFD
:1036C000FC1F0000000000000000000000000000DF
:1036D000E001F807180E0C0C0C0C000C0006C003DF
:1036E000C007000C001800180C180C18180CF8076C
:1036F000E0030000000000000000000000000000E7
:10370000000C000E000F000F800DC00C600C600C50
:10371000300C180C0C0CFC3FFC3F000C000C000C97
:10372000000C00000000000000000000000000008D
:10373000F80FF80F180018000C00EC03FC071C0E23
:10374000001C0018001800180C181C0C180EF807A4
:10375000E003000000000000000000000000000086
:10376000C007F00F381C181818000C00CC03EC0F21
:103770003C0E1C1C0C180C180C18181C380EF007EA
:10378000E003000000000000000000000000000056
:10379000FC1FFC1F000C00060006000380038001D4
:1037A000C001C000E0006000600070003000300028
:1037B00030000000000000000000000000000000D9
:1037C000E003F007380E180C180C180C3806F00738
:1037D000F007180C0C180C180C180C18380CF80FF3
:1037E000E0030000000000000000000000000000F6
:1037F000E003F007380E1C0C0C180C180C181C1CDD
:10380000381EF81BE0190018000C000C1C0EF807FD
:10381000F0010000000000000000000000000000B7
:103820000000000000000000000080018001000096
:103830000000000000000000000000000000800107
:1038400080010000000000000000000000000000F7
:103850000000000000000000000080018001000066
:1038600000000000000000000000000000008001D7
:103870008001000100018000000000000000000045
:103880000000000000000000000000000000001028
:10389000001C800FE003F8001800F800E003800F20
:1038A000001C0010000000000000000000000000EC
:1038B0000000000000000000000000000000F81FF1
:1038C000000000000000F81F0000000000000000E1
:1038D00000000000000000000000000000000000E8
:1038E00000000000000000000000000000000800D0
:1038F0003800F001C007001F0018001FC007F001CA
:103900003800080000000000000000000000000077
:10391000E003F80F180C0C180C180018000C000627
:1039200000038001C000C000C00000000000C00013
:10393000C0000000000000000000000000000000C7
:103940000000E00718180420C229224A1144094443
:103950000944094409221113E20C024004201818FA
:10396000E007000000000000000000000000000070
:1039700080038003C006C006C006600C600C3018CF
:1039800030183018F83FF83F1C700C600C6006C00F
:1039900006C0000000000000000000000000000061
:1039A000FC03FC0F0C0C0C180C180C180C0CFC076E
:1039B000FC0F0C180C300C300C300C300C18FC1FA9
:1039C000FC070000000000000000000000000000F4
:1039D000C007F01F38381C300C7006600600060067
:1039E000060006000600060006600C701C30F01F82
:1039F000E0070000000000000000000000000000E0
:103A0000FE03FE0F060E06180618063006300630B6
:103A1000063006300630063006180618060EFE0F71
:103A2000FE03000000000000000000000000000095
:103A3000FC3FFC3F0C000C000C000C000C00FC1FB9
:103A4000FC1F0C000C000C000C000C000C00FC3FD8
:103A5000FC3F00000000000000000000000000002B
:103A6000F83FF83F18001800180018001800F81F59
:103A7000F81F180018001800180018001800180087
:103A8000180000000000000000000000000000001E
:103A9000E00FF83F3C780E6006E007C0030003002B
:103AA00003FE03FE03C007C006C00EC03CF0F83F93
:103AB000E00F000000000000000000000000000017
:103AC0000C300C300C300C300C300C300C30FC3F17
:103AD000FC3F0C300C300C300C300C300C300C3007
:103AE0000C3000000000000000000000000000009A
:103AF00080018001800180018001800180018001BE
:103B000080018001800180018001800180018001AD
:103B10008001000000000000000000000000000024
:103B20000006000600060006000600060006000665
:103B30000006000600060006180618063807F003FF
:103B4000E001000000000000000000000000000094
:103B500006300618060C060606038601C600660037
:103B60007600DE008E0106030606060C06180630F7
:103B700006600000000000000000000000000000DF
:103B80001800180018001800180018001800180075
:103B90001800180018001800180018001800F81F66
:103BA000F81F0000000000000000000000000000FE
:103BB0000EE01EF01EF01EF036D836D836D836D8B5
:103BC00066CC66CC66CCC6C6C6C6C6C6C6C686C3E6
:103BD00086C300000000000000000000000000009C
:103BE0000C301C303C303C306C306C30CC30CC3045
:103BF0008C310C330C330C360C360C3C0C3C0C3832
:103C00000C30000000000000000000000000000078
:103C1000E007F81F1C380E70066003C003C003C025
:103C200003C003C003C003C006600E701C38F81F39
:103C3000E00700000000000000000000000000009D
:103C4000FC0FFC1F0C380C300C300C300C300C18F6
:103C5000FC1FFC070C000C000C000C000C000C00FE
:103C60000C00000000000000000000000000000048
:103C7000E007F81F1C380E70066003E003C003C0A5
:103C800003C003C003C007E006630E3F1C3CF83FBF
:103C9000E0F700C00000000000000000000000008D
:103CA000FE0FFE1F06380630063006300638FE1FAF
:103CB000FE0706030606060C061806180630063030
:103CC000066000000000000000000000000000008E
:103CD000E003F80F1C0C0C180C180C001C00F80367
:103CE000E00F001E0038063006300E301C1CF80FA6
:103CF000E0070000000000000000000000000000DD
:103D0000FE7FFE7F800180018001800180018001B3
:103D1000800180018001800180018001800180019B
:103D20008001000000000000000000000000000012
:103D30000C300C300C300C300C300C300C300C30A3
:103D40000C300C300C300C300C300C301818F81FC4
:103D5000E00700000000000000000000000000007C
:103D600003600630063006300C180C180C18180CBE
:103D7000180C380E30063006700760036003C0016F
:103D8000C001000000000000000000000000000072
:103D90000360C361C361C3616633663366336633F0
:103DA000663366336C1B6C1B6C1B2C1A3C1E380E66
:103DB000380E0000000000000000000000000000BD
:103DC0000FE00C7018303018700C600EC0078003C4
:103DD0008003C003E006700C301C18180C300E6015
:103DE00007E00000000000000000000000000000EC
:103DF00003C006600C301C383818300C6006E00731
:103E0000C003800180018001800180018001800168
:103E10008001000000000000000000000000000021
:103E2000FC7FFC7F006000300018000C00060003DF
:103E30008001C0006000300018000C000600FE7F0A
:103E4000FE7F0000000000000000000000000000F5
:103E5000E003E0036000600060006000600060005C
:103E60006000600060006000600060006000600052
:103E70006000600060006000E003E00300000000FC
:103E800030003000600060006000C000C000C00072
:103E9000C0018001800180010003000300030006CF
:103EA000000600000000000000000000000000000C
:103EB000E003E0030003000300030003000300032A
:103EC00000030003000300030003000300030003DA
:103ED0000003000300030003E003E0030000000010
:103EE0000000C001C00160036003600330063006BB
:103EF000180C180C0000000000000000000000007A
:103F000000000000000000000000000000000000B1
:103F100000000000000000000000000000000000A1
:103F20000000000000000000000000000000000091
:103F3000FFFFFFFF00000000000000000000000085
:103F40000C000C000C000C000C000C000000000029
:103F50000000000000000000000000000000000061
:103F60000000000000000000000000000000000051
:103F700000000000000000000000F003F8071C0C27
:103F80000C0C000FF00FF80C0C0C0C0C1C0FF80FA5
:103F9000F018000000000000000000000000000019
:103FA00018001800180018001800D803F80F380C73
:103FB000181818181818181818181818380CF80F96
:103FC000D803000000000000000000000000000016
:103FD00000000000000000000000C003F007300EE9
:103FE000180C1800180018001800180C300EF007F4
:103FF000C0030000000000000000000000000000FE
:1040000000180018001800180018C01BF01F301C02
:10401000181818181818181818181818301CF01F25
:10402000C01B0000000000000000000000000000B5
:1040300000000000000000000000C003F00F300C82
:104040001818F81FF81F180018003818301CF00F47
:10405000C007000000000000000000000000000099
:10406000800FC00FC000C000C000F007F007C00004
:10407000C000C000C000C000C000C000C000C00040
:10408000C000000000000000000000000000000070
:1040900000000000000000000000E00DF80F180E06
:1040A0000C0C0C0C0C0C0C0C0C0C0C0C180EF80F53
:1040B000E00D000C0C0C1C06F807F00100000000DD
:1040C00018001800180018001800D807F80F381C3E
:1040D0001818181818181818181818181818181860
:1040E00018180000000000000000000000000000A0
:1040F000C000C000000000000000C000C000C00000
:10410000C000C000C000C000C000C000C000C000AF
:10411000C0000000000000000000000000000000DF
:10412000C000C000000000000000C000C000C000CF
:10413000C000C000C000C000C000C000C000C0007F
:10414000C000C000C000C000F800780000000000FF
:104150000C000C000C000C000C000C0C0C060C03EA
:104160008C01CC006C00FC009C018C030C030C0641
:104170000C0C000000000000000000000000000027
:10418000C000C000C000C000C000C000C000C0002F
:10419000C000C000C000C000C000C000C000C0001F
:1041A000C00000000000000000000000000000004F
:1041B000000000000000000000007C3CFF7EC7E320
:1041C00083C183C183C183C183C183C183C183C1CF
:1041D00083C100000000000000000000000000009B
:1041E000000000000000000000009807F80F381CD5
:1041F000181818181818181818181818181818183F
:10420000181800000000000000000000000000007E
:1042100000000000000000000000C003F00F300CA0
:10422000181818181818181818181818300CF00F33
:10423000C0030000000000000000000000000000BB
:1042400000000000000000000000D803F80F380C48
:10425000181818181818181818181818380CF80FF3
:10426000D8031800180018001800180000000000FB
:1042700000000000000000000000C01BF01F301C08
:10428000181818181818181818181818301CF01FB3
:10429000C01B0018001800180018001800000000CB
:1042A00000000000000000000000B007F0037000F4
:1042B000300030003000300030003000300030007E
:1042C00030000000000000000000000000000000BE
:1042D00000000000000000000000E003F003380EC2
:1042E000180C3800F003C007000C180C380EF0074B
:1042F000E0030000000000000000000000000000DB
:1043000000008000C000C000C000F007F007C0003F
:10431000C000C000C000C000C000C000C000C00796
:104320008007000000000000000000000000000006
:1043300000000000000000000000181818181818ED
:10434000181818181818181818181818381CF01FEA
:10435000E019000000000000000000000000000064
:10436000000000000000000000000C18180C180CE1
:10437000180C300630063006600360036003C0018D
:10438000C00100000000000000000000000000006C
:1043900000000000000000000000C141C141C361F5
:1043A0006363636363633636363636361C1C1C1C07
:1043B0001C1C0000000000000000000000000000C5
:1043C000000000000000000000001C38381C300C09
:1043D000600660036003600360036006300C381CF5
:1043E0001C38000000000000000000000000000079
:1043F00000000000000000000000183030183018E5
:104400007018600C600CE00CC006C00680038003CE
:10441000800380018001C001F000700000000000F6
:1044200000000000000000000000FC1FFC1F000C4A
:10443000000600038001C000600030001800FC1F6F
:10444000FC1F000000000000000000000000000051
:1044500000038001C000C000C000C000C000C00058
:1044600060006000300060004000C000C000C0007C
:10447000C000C000C0008001000300000000000078
:104480008001800180018001800180018001800124
:104490008001800180018001800180018001800114
:1044A0008001800180018001800180010000000006
:1044B0006000C000C0018001800180018001800196
:1044C0000003000300060003000180018001800159
:1044D000800180018001C000600000000000000039
:1044E0000000000000000000000000000000F010CC
:1044F000F81F080F0000000000000000000000008E
:1045000000000000000000000000000000000000AB
:10451000304500080000002050000000280100087D
:104520008045000850000020F80600004401000803
:1045300000A24A0400000000000000000102030481
:104540000607080900000000010203040102030439
:1045500006070809020406080000FFFF000000002B
:1045600000000000313233404040000000000000F5
:10457000000000000000000000000000000000003B
:04000005080000ED02
:00000001FF
