:020000040800F2
:10000000A8070020B9010008F52E0008F72E000807
:10001000FB2E0008FF2E0008032F00080000000040
:10002000000000000000000000000000092F000890
:10003000072F0008000000000B2F00080D2F0008FC
:10004000D3010008D3010008D3010008D301000840
:10005000D3010008D3010008D3010008D301000830
:10006000D3010008D3010008D3010008D301000820
:10007000D3010008D3010008D3010008D301000810
:10008000D3010008D3010008D3010008D301000800
:10009000D3010008D3010008D3010008D3010008F0
:1000A000D3010008D3010008D3010008D3010008E0
:1000B000D3010008D3010008D3010008D3010008D0
:1000C000D3010008D3010008D3010008D3010008C0
:1000D000D3010008D30100083B2F0008D30100081A
:1000E000D3010008D3010008D301000800F002F892
:1000F00000F053F80AA090E8000C82448344AAF16F
:100100000107DA4501D100F048F8AFF2090EBAE86C
:100110000F0013F0010F18BFFB1A43F0010318473B
:10012000E867000008680000103A24BF78C878C16A
:10013000FAD8520724BF30C830C144BF04680C60ED
:10014000704700000023002400250026103A28BF35
:1001500078C1FBD8520728BF30C148BF0B60704739
:10016000662905F01F82642903F08E80632903F05D
:10017000EA83002070471FB503F042FC0400002012
:10018000002104F0A1FF401C60600020002104F069
:1001900085FFE0601FBD10B510BD03F059FD11468D
:1001A000FFF7E9FF02F0E1FD03F0D2FF03B4FFF730
:1001B000F2FF03BC04F040FA0948804709480047B1
:1001C000FEE7FEE7FEE7FEE7FEE7FEE7FEE7FEE707
:1001D000FEE7FEE704480549054A064B7047000064
:1001E000D7020008ED000008A8010020A8070020A1
:1001F000A8030020A80300200CB500200190009067
:100200006C48006840F480306A49086000BF694863
:10021000006800F4003000900198401C01900098A4
:1002200018B90198B0F5A06FF1D16248006800F4E8
:10023000003010B10120009001E0002000900098F3
:10024000012843D15C48006840F010005A4908601A
:100250000846006820F0030008600846006840F087
:1002600002000860534840685249486008464068A8
:1002700048600846406840F480604860084640682E
:1002800020F47C1048600846406840F4E81048605C
:100290000846006840F08070086000BF454800686C
:1002A00000F000700028F9D04248406820F00300B8
:1002B000404948600846406840F00200486000BF7E
:1002C0003C48406800F00C000828F9D10CBD10B57E
:1002D000FFF792FF10BD10B53648006840F00100EE
:1002E000344908600846406834490840314948604C
:1002F00008460068324908402E49086008460068F0
:1003000020F4802008600846406820F4FE00486021
:100310004FF41F008860FFF7DAFF4FF000602949B3
:10032000086010BD10B5002100200022214B5B6841
:1003300003F00C0121B1042906D0082928D107E0D7
:10034000214B224C236027E01F4B204C236023E0ED
:10035000184B5B6803F47010164B5B6803F4803233
:10036000022303EB904022B9194B4343174C2360FF
:100370000DE0104B5B6803F4003323B1144B43438F
:10038000124C236003E0104B4343104C236003E006
:100390000D4B0E4C236000BF00BF064B5B68C3F3E0
:1003A00003130C4CE15C094B1B68CB40074C2360EA
:1003B00010BD000000100240002002400000FFF8C5
:1003C000FFFFF6FE08ED00E000127A0000000020BA
:1003D00000093D000400002010B50446CC488442CA
:1003E00008D10121042000F02DFB0021042000F0A1
:1003F00029FB46E0C748844208D10121082000F0CB
:1004000021FB0021082000F01DFB3AE0C248844295
:1004100008D10121102000F015FB0021102000F070
:1004200011FB2EE0BD48844208D10121202000F0BC
:1004300009FB0021202000F005FB22E0B84884429F
:1004400008D10121402000F0FDFA0021402000F0F9
:10045000F9FA16E0B348844208D10121802000F067
:10046000F1FA0021802000F0EDFA0AE0AE48844263
:1004700007D10121801500F0E5FA0021A01500F058
:10048000E1FA10BD10B50121084600F0DBFA0021A9
:10049000012000F0D7FA10BD2DE9F04102460025F9
:1004A0000026002000230024002791F803C00CF050
:1004B0000F0591F803C00CF0100CBCF1000F03D035
:1004C00091F802C04CEA050591F800C0BCF1000F9C
:1004D00031D0146800202BE04FF0010C0CFA00F32F
:1004E000B1F800C00CEA03069E4220D183004FF011
:1004F0000F0C0CFA03F7BC4305FA03FC4CEA0404A6
:1005000091F803C0BCF1280F06D14FF0010C0CFA92
:1005100000FCC2F814C00AE091F803C0BCF1480F17
:1005200005D14FF0010C0CFA00FCC2F810C0401CC1
:100530000828D1D31460B1F800C0BCF1FF0F34DD3E
:10054000546800202EE000F1080C4FF0010808FA72
:100550000CF3B1F800C00CEA03069E4221D18300DF
:100560004FF00F0C0CFA03F7BC4305FA03FC4CEAFE
:10057000040491F803C0BCF1280F05D100F1080C68
:1005800008FA0CF8C2F8148091F803C0BCF1480FC7
:1005900007D100F1080C4FF0010808FA0CF8C2F876
:1005A0001080401C0828CED35460BDE8F0814FF67F
:1005B000FF710180022181700421C17070470246E1
:1005C000002093680B400BB1012000E00020704731
:1005D0000146886880B2704702460020D3680B400D
:1005E0000BB1012000E0002070470146C86880B2CE
:1005F000704701617047416170470AB1016100E0D5
:1006000041617047C16070474FF480320A43826194
:100610008161826182698269704702460020434B92
:1006200018684FF68073184040EA021008433F4BA9
:10063000186070473E49C8617047F0B50A4600230C
:1006400000240021002500F00046B6F1004F02D141
:10065000364EF16901E0354E7168C0F3034583B24F
:1006600000F44016B6F5401F08D121F070612F4EFE
:10067000766826F070662D4F7E6012E000F48016DA
:10068000B6F5801F06D1032606FA05F4A14341F012
:10069000706106E0460D360103FA06F6B14341F0FB
:1006A000706122B1460D360103FA06F6314300F0BF
:1006B0000046B6F1004F02D11C4EF16101E01B4E25
:1006C0007160F0BD30B500228B071C0F0F2303FAB9
:1006D00004F2164B08338C1053F824309343134C18
:1006E00008348D1044F8253023468C1053F82430FC
:1006F0008C07240F00FA04F423430C4C08348D10AB
:1007000044F8253030BD0A49DC31086070470000EC
:1007100000080140000C014000100140001401409D
:1007200000180140001C0140002001400000014071
:1007300000002042DF48006840F00100DD49086009
:1007400008464068DC490840DA49486008460068C5
:10075000DA490840D74908600846006820F480203C
:1007600008600846406820F4FE0048604FF41F000F
:1007700088607047CF49096821F48031CD4A116003
:100780001146096821F480211160B0F5803F03D043
:10079000B0F5802F0ED106E0C649096841F48031DA
:1007A000C44A116007E0C349096841F4A021C14A65
:1007B000116000E000BF00BF704710B50146002285
:1007C000002300204A11012A02D1BA4C236806E016
:1007D000022A02D1B74C236A01E0B64C636A01F0E9
:1007E0001F02012494401C400CB1012000E00020B5
:1007F00010BD38B5002000900024002500BF312036
:10080000FFF7DBFF05460098401C00900098B0F50C
:10081000A06F01D0002DF2D03120FFF7CEFF08B13C
:10082000012400E00024204638BD01460020A14AF2
:10083000106820F0F80040EAC10010607047A0493D
:1008400008607047024600209A4B586820F47C10DC
:1008500042EA01031843974B58607047984908666D
:10086000704701460020934A506820F00300084377
:10087000506070478F48406800F00C007047014698
:1008800000208C4A506820F0F00008435060704708
:1008900001460020874A506820F4E0600843506019
:1008A000704701460020834A506820F4605040EAB7
:1008B000C1005060704729B17E4A527A02437D4B95
:1008C0005A7204E07B4A527A82437A4B5A727047DA
:1008D0007B49D8310860704701460020754A50684E
:1008E00020F440400843506070470021714A203294
:1008F0001170704A82F82010012802D004280AD111
:1009000004E001216B4A2032117005E00521694A9B
:100910002032117000E000BF00BF704769490860D5
:1009200070476449096A0143624A11627047654928
:1009300044390860704730B50021002200240023AC
:100940005C4D6D6805F00C0121B1042905D0082922
:1009500023D105E05C4D056022E05B4D05601FE0A2
:10096000544D6D6805F47012524D6D6805F4803475
:10097000022505EB92421CB9544D554305600BE02E
:100980004C4D6D6805F400351DB1504D5543056063
:1009900002E04D4D5543056002E04B4D056000BF40
:1009A00000BF444D6D6805F0F0010909484D6B5CCE
:1009B0000568DD4045603F4D6D6805F4E061090A5A
:1009C000434D6B5C4568DD4085603A4D6D6805F4CC
:1009D0006051C90A3E4D6B5C4568DD40C560354DD0
:1009E0006D6805F44041890B3A4D6B5CC568B5FBF9
:1009F000F3F5056130BD29B12E4A526902432D4BF2
:100A00005A6104E02B4A526982432A4B5A6170476B
:100A100029B1284A92690243264B9A6104E0254A8B
:100A200092698243234B9A61704729B1214AD26966
:100A30000243204BDA6104E01E4AD26982431D4B17
:100A4000DA61704729B11B4AD2680243194BDA6058
:100A500004E0184AD2688243164BDA60704729B125
:100A6000144A12690243134B1A6104E0114A1269D5
:100A70008243104B1A617047124940390860704731
:100A80000F49C86470470B49C87170470948406AEC
:100A900040F0807007494862704701460020054ACF
:100AA00092680A400AB1012000E000207047014925
:100AB00088727047001002400000FFF8FFFFF6FE4A
:100AC000000042428004424200127A0000093D00C8
:100AD000140000202400002031490143314A1160F4
:100AE000704770B5002100230F22C47804B32D4C49
:100AF000246804F4E064C4F5E064210AC1F104034D
:100B0000CA40447804FA03F184781440214309016F
:100B1000254C0678A155047804F01F050124AC404B
:100B200005786D11AD0005F1E025C5F8004109E03B
:100B3000047804F01F050124AC401C4D06787611A2
:100B400045F8264070BD1A4A0A400243154B1B1F48
:100B50001A60704739B1134A121D12680243114BD3
:100B60001B1D1A6006E00F4A121D126882430D4BCE
:100B70001B1D1A607047042808D14FF0E021096955
:100B800041F004014FF0E022116107E04FF0E02155
:100B9000096921F004014FF0E02211617047000063
:100BA0000000FA050CED00E000E400E080E100E068
:100BB00080FFFF1F10B50446FE48844208D1012182
:100BC000C014FFF73FFF0021E014FFF73BFFC4E034
:100BD000B4F1804F08D101210846FFF740FF002102
:100BE0000120FFF73CFFB8E0F348844208D101211F
:100BF0000220FFF734FF00210220FFF730FFACE0B6
:100C0000EE48844208D101210420FFF728FF00218B
:100C10000420FFF724FFA0E0E948844208D1012125
:100C20000820FFF71CFF00210820FFF718FF94E0C1
:100C3000E448844208D101211020FFF710FF002171
:100C40001020FFF70CFF88E0DF48844208D1012123
:100C50002020FFF704FF00212020FFF700FF7CE0A9
:100C6000DA48844208D101214014FFF7EBFE00214D
:100C70006014FFF7E7FE70E0D548844209D10121F6
:100C8000C804FFF7DFFE00214FF40020FFF7DAFE73
:100C900063E0D048844209D101210805FFF7D2FE64
:100CA00000214FF48010FFF7CDFE56E0CA48844281
:100CB00009D101214805FFF7C5FE00214FF40010BE
:100CC000FFF7C0FE49E0C548844208D10121402019
:100CD000FFF7C5FE00214020FFF7C1FE3DE0C04800
:100CE000844208D101218020FFF7B9FE0021802035
:100CF000FFF7B5FE31E0BB48844208D101218015E1
:100D0000FFF7ADFE0021A015FFF7A9FE25E0B648CC
:100D1000844209D101210804FFF794FE00214FF419
:100D20008030FFF78FFE18E0B048844209D10121DE
:100D30004804FFF787FE00214FF40030FFF782FEE2
:100D40000BE0AB48844208D101218804FFF77AFE0A
:100D500000214FF48020FFF775FE10BD00220288AD
:100D6000944B98420ED0994B98420BD0B0F1804FE3
:100D700008D0914B984205D0904B984202D0904BAE
:100D8000984204D14FF68F731A404B881A438D4B0B
:100D9000984207D08C4B984204D04FF6FF431A403C
:100DA000CB881A4302808B8883850B880385814B0F
:100DB00098420BD0854B984208D08B4B984205D077
:100DC0008A4B984202D08A4B984201D10B7A038613
:100DD00001238382704770B5002400220023058C14
:100DE0004FF6FE7635400584028C8388048B4FF6DF
:100DF0008F752C40B51E2C400D882C43751E2A4043
:100E00000D892A434D882A436A4DA8420BD06F4D65
:100E1000A84208D0744DA84205D0744DA84202D013
:100E2000734DA84213D14FF6F7752A404D892A43D6
:100E30004FF6FB752A408D882A434FF6FF652B40FD
:100E40004FF6FF552B408D892B43CD892B43838053
:100E50000483CD888586028470BD70B5002400228D
:100E60000023058C4FF6EF7635400584028C83888D
:100E7000048B48F6FF752C404FF6FF452C400D883B
:100E80004FF6FF7606EA05252C434FF6DF752A401C
:100E90000D8906EA05152A434D8806EA05152A43F9
:100EA000444DA84202D0494DA8421DD14FF67F754E
:100EB0002A404D894FF6FF7606EA05152A434FF67C
:100EC000BF752A408D8806EA05152A434FF6FF357F
:100ED0002B404FF2FF752B408D8906EA85052B4389
:100EE000CD8906EA85052B4383800483CD88058759
:100EF000028470BD70B5002400220023058C4FF6DB
:100F0000FF6635400584028C8388848B4FF68F758D
:100F10002C404FF6FC752C400D882C434FF6FF55A6
:100F20002A400D894FF6FF7606EA05252A434D88AB
:100F300006EA05252A431F4DA84202D0234DA842A8
:100F40001DD14FF2FF752A404D894FF6FF7606EA14
:100F500005252A434FF6FF352A408D8806EA0525E8
:100F60002A434EF6FF752B404DF6FF752B408D89B9
:100F700006EA05152B43CD8906EA05152B43838028
:100F80008483CD888587028470BD70B500220023DC
:100F90000024058C4EF6FF7635400584038C84884A
:100FA000828B48F6FF752A404FF6FF452A400D8890
:100FB00020E00000002C0140000400400008004038
:100FC000000C0040001000400014004000340140BC
:100FD000004C014000500140005401400018004006
:100FE000001C00400020004000400140004401403F
:100FF000004801404FF6FF7606EA05252A434DF6E4
:10100000FF752B400D8906EA05352B434D8806EA0E
:1010100005352B43FA4DA84202D0FA4DA84208D11B
:101020004BF6FF752C408D894FF6FF7606EA851545
:101030002C4384808283CD88A0F84050038470BD07
:10104000828B4FF2FF331A408283828B4FF6FF73FD
:1010500003EA01231A4382837047F0B50C46154614
:10106000002200210026078C4EF6FF7C07EA0C07C1
:101070000784828B018C4FF6FF7707EA043640F62F
:10108000FF473A404FF6FF7707EA05273A434FF606
:10109000FF7707EA03373A43D94FB8420ED0D94F0A
:1010A000B8420BD0B0F1804F08D0D74FB84205D02E
:1010B000D64FB84202D0D64FB84206D14DF6FF7790
:1010C000394046F48057394305E047F6FF57394029
:1010D00044F48057394382830184F0BD828B4FF6FC
:1010E000F3731A408283828B0A4382837047F0B580
:1010F0000C461546002200210026078C4FF6FF6C97
:1011000007EA0C070784828B018C4FF6FF7707EA0A
:1011100004264FF60C773A404FF6FF7707EA03179D
:101120002F433A43B64FB8420ED0B64FB8420BD019
:10113000B0F1804F08D0B44FB84205D0B34FB84299
:1011400002D0B34FB84206D14FF6FF57394046F4AC
:101150008077394305E04FF2FF57394044F48077F8
:10116000394382830184F0BD028B4FF2FF331A4072
:101170000283028B4FF6FF7303EA01231A430283B3
:101180007047F0B50C461546002200210026078C5A
:101190004FF6EF7C07EA0C070784028B018C4FF6B1
:1011A000FF7707EA041640F6FF473A404FF6FF770D
:1011B00007EA03373A434FF6FF7707EA05273A4332
:1011C0008F4FB8420ED08F4FB8420BD0B0F1804F46
:1011D00008D08D4FB84205D08C4FB84202D08C4F0A
:1011E000B84206D14FF6DF77394046F01007394351
:1011F00005E04FF65F77394044F01007394302832A
:101200000184F0BD028B4FF6F3731A400283028B08
:101210000A4302837047F0B50C46154600220021B0
:10122000068C4FF6FE773E400684028B018C4FF60B
:101230000C7632407E1C06EA03162E433243704E73
:10124000B0420ED06F4EB0420BD0B0F1804F08D0FC
:101250006D4EB04205D06D4EB04202D06C4EB042E1
:1012600006D14FF6FD76314044F00106314305E0EA
:101270004FF6F576314044F0010631430283018494
:10128000F0BD70B505460C465D4885420ED05D4800
:1012900085420BD0B5F1804F08D05B48854205D020
:1012A0005A48854202D05A48854200D100E000BF2A
:1012B000208850B92389A28861882846FFF7ABFFB0
:1012C000E1882846FFF79EFF25E0208804280AD100
:1012D0002389A28861882846FFF753FFE1882846C2
:1012E000FFF742FF17E0208808280AD12389A28847
:1012F00061882846FFF7FBFEE1882846FFF7EEFEEF
:1013000009E02389A28861882846FFF7A6FEE188C4
:101310002846FFF795FE70BD2DE9F04105460C46C5
:1013200000260127608808B9022600E00026A08870
:10133000012801D1022700E001272088A0B92389D4
:10134000A28861882846FFF766FFE1882846FFF7F4
:1013500059FF23893A4631462846FFF712FFE188B4
:101360002846FFF701FF13E02389A28861882846F9
:10137000FFF707FFE1882846FFF7F6FE23893A4684
:1013800031462846FFF747FFE1882846FFF73AFF36
:10139000BDE8F0810A884B881A438B881A43CB88B2
:1013A0001A430B891A434B891A438B891A43A0F8B5
:1013B000442070474FF6FF71818000210180C18079
:1013C0004180017270470021018041808180C1808D
:1013D000018141818181C18170470021018041806B
:1013E000012181800021C18001817047002101809D
:1013F00041808180C18001814181818170470000ED
:10140000002C01400034014000040040000800406E
:10141000000C004021B1028842F00102028004E089
:1014200002884FF6FE731A400280704731B1B0F85F
:10143000442042F40042A0F8442005E0B0F84420E3
:10144000C2F30E02A0F8442070471AB183890B43FF
:10145000838102E083898B43838170478182704757
:1014600041EA0203A0F8483070471AB183890B4360
:10147000838102E083898B438381704701894FF622
:10148000F8721140018170470A46002101894FF628
:101490008F73194011430181704730B504460D46E2
:1014A00029462046FFF7F0FF208940F00700208101
:1014B00030BD2DE9F04104460D4616461F46602D0D
:1014C00006D13B46012231462046FFF75AFE05E091
:1014D0003B46012231462046FFF79DFE2946204625
:1014E000FFF7D2FF208940F007002081BDE8F0819E
:1014F00030B50C4600210189C9B24FF6FF7505EAE7
:101500000325154325432943018130BD2DE9F041D1
:1015100005460E4617469846002443463A4631464D
:101520002846FFF7E5FF2C894FF6F870044044F099
:1015300007044FF68F70044044F070042C81BDE81E
:10154000F081F0B504460D4616461F463B4632462E
:1015500029462046FFF7CCFF208940F480402081B7
:10156000F0BD0185828270470A46002101884FF64E
:101570008F731940114301807047F0B50C46154632
:101580001E460021002200230189028B038C4FF6A6
:10159000F877394021434FF6FC473A4040F20117B3
:1015A0003A434FF6DD773B404FF6FF7707EA0617E1
:1015B0002F433B43018102830384F0BD0A4600218F
:1015C000018B4FF68F7319401143018370470A4610
:1015D0000021018B48F6FF7319404FF6FF7303EAB1
:1015E00002231943018370470A460021818B4FF67D
:1015F0008F7319401143818370470A460021818B04
:1016000048F6FF7319404FF6FF7303EA02231943AC
:101610008183704721B1028842F08002028004E099
:1016200002884FF67F731A400280704721B182888A
:1016300042F00402828004E082884FF6FB731A4075
:101640008280704721B1828842F00802828004E0E3
:1016500082884FF6F7731A408280704721B18288E2
:1016600042F00102828004E082884FF6FE731A4045
:10167000828070470A460021018B4FF6F7731940AC
:101680001143018370470A460021018B4FF2FF731B
:1016900019404FF6FF7303EA022319430183704791
:1016A0000A460021818B4FF6F7731940114381835D
:1016B00070470A460021818B4FF2FF7319404FF6A5
:1016C000FF7303EA02231943818370470A4600210E
:1016D000018B4FF6FB7319401143018370470A4693
:1016E0000021018B4FF6FF3319404FF6FF7303EAD9
:1016F00002231943018370470A460021818B4FF66C
:10170000FB7319401143818370470A460021818B86
:101710004FF6FF3319404FF6FF7303EA02231943D4
:10172000818370470A460021018B4FF67F73194071
:101730001143018370470A460021018BC1F30E015A
:101740004FF6FF7303EA02231943018370470A46E9
:101750000021818B4FF67F731940114381837047BD
:101760000A460021818BC1F30E014FF6FF7303EA95
:1017700002231943818370470A460021018C4FF6EA
:10178000FD7319401143018470470A460021018C02
:101790004FF6F77319401143018470470A46002140
:1017A000018C4FF6DF7319404FF6FF7303EA021303
:1017B0001943018470470A460021018C4FF67F735C
:1017C00019404FF6FF7303EA02131943018470476F
:1017D0000A460021018C4FF6FF5319404FF6FF7364
:1017E00003EA02231943018470470A460021018C51
:1017F0004FF2FF7319404FF6FF7303EA02231943B8
:10180000018470470A460021018C4DF6FF73194090
:101810004FF6FF7303EA023319430184704730B572
:10182000002301248C40A3B2048C9C430484048CC8
:1018300002FA01F5ADB22C43048430BD30B500236B
:1018400004248C40A3B2048C9C430484048C02FACC
:1018500001F5ADB22C43048430BD70B503460020C1
:1018600000241846183001258D40ACB21D8CA543CC
:101870001D8409B1082909D100EB6100056825F034
:10188000700505600568154305600EE00D1FC5F382
:101890004E052844056825F4E045056005684FF6C7
:1018A000FF7606EA02263543056070BD21B1028845
:1018B00042F00202028004E002884FF6FD731A40F3
:1018C0000280704721B1028842F00402028004E0E5
:1018D00002884FF6FB731A400280704721B182885C
:1018E00042F08002828004E082884FF67F731A40C3
:1018F0008280704702884FF6F7731A400280028890
:101900000A430280704782884FF68F731A408280A4
:1019100082880A438280704702894FF6F8731A4022
:10192000028102890A430281704702894FF67F7360
:101930001A40028102890A430281704781847047FC
:10194000818570478186704701877047818770471E
:10195000A0F84010704702884FF6FF431A400280FB
:1019600002880A43028070470146888E704701460C
:10197000088F70470146888F70470146B1F84000D4
:1019800070470146888C70470146088D70470246B3
:101990000020138A0B400BB1012000E000207047AB
:1019A000CA430282704730B502460020002300245B
:1019B000158A05EA0103958905EA010413B10CB102
:1019C000012000E0002030BDCA43028270470000C1
:1019D00010B50446FB48844209D101218803FFF772
:1019E00031F800214FF48040FFF72CF832E0F64840
:1019F000844209D101214804FFF731F800214FF456
:101A00000030FFF72CF825E0F048844209D101218D
:101A10008804FFF724F800214FF48020FFF71FF817
:101A200018E0EB48844209D10121C804FFF717F8F8
:101A300000214FF40020FFF712F80BE0E548844244
:101A400008D101210805FFF70AF800214FF48010A2
:101A5000FFF705F810BD2DE9F04786B005460E46A4
:101A60000024A24600BFA1460027B08900B100BFF4
:101A70002F462C8A4CF6FF700440F08804432C82D9
:101A8000AC894EF6F3100440B0883189084371895F
:101A900008430443AC81AC8A4FF6FF400440B08950
:101AA0000443AC8201A8FEF746FFC648874202D134
:101AB000DDF810A001E0DDF80CA0A88900F40040DA
:101AC00040B10AEBCA0000EB0A1031684900B0FBD4
:101AD000F1F807E00AEBCA0000EB0A103168890050
:101AE000B0FBF1F86420B8FBF0F004012009642198
:101AF00001FB1089A88900F4004040B1322000EBBE
:101B0000C900B0FBF1F000F00700044308E0322008
:101B100000EB09106421B0FBF1F000F00F0004436A
:101B20002C8106B0BDE8F0874FF41651016000210A
:101B30008180C18001810C21418100218181704718
:101B400010B502460020108A4FF2FF0318400B88A0
:101B50004C8823438C882343CC882343184310822A
:101B600010BD0021018041808180C180704721B17A
:101B7000828942F40052828104E082894DF6FF732B
:101B80001A4082817047F0B50346002400260025E4
:101B9000002040F66A17B94200D100BF1846C1F3D1
:101BA000421401F01F06012707FA06F5012C01D1A6
:101BB0000C3004E0022C01D1103000E014301AB1D6
:101BC00007682F43076002E00768AF430760F0BD76
:101BD0001AB1838A0B43838202E0838A8B43838218
:101BE0007047028A4FF6F0731A400282028A0A4353
:101BF0000282704782894FF2FF731A408281828984
:101C00000A438281704721B1828942F002028281B7
:101C100004E082894FF6FD731A4082817047028A80
:101C20004FF6DF731A400282028A0A43028270472B
:101C300021B1028A42F48042028204E0028A4BF619
:101C4000FF731A4002827047C1F308028280704716
:101C500001468888C0F308007047818941F001017E
:101C600081817047028BD2B20283028B42EA012249
:101C700002837047028B02F47F420283028B0A4385
:101C80000283704721B1828A42F02002828204E0FE
:101C9000828A4FF6DF731A408282704721B1828AAE
:101CA00042F01002828204E0828A4FF6EF731A40FB
:101CB0008282704721B1828A42F00802828204E067
:101CC000828A4FF6F7731A408282704721B1828967
:101CD00042F40042828103E08289C2F30E028281D3
:101CE000704721B1828A42F40062828204E0828AD3
:101CF0004FF2FF731A4082827047828A4FF6FB735D
:101D00001A408282828A0A438282704721B1828A83
:101D100042F00202828204E0828A4FF6FD731A408A
:101D20008282704702460020B1F5007F00D100BFDB
:101D300013880B400BB1012000E00020704701F434
:101D40000072B2F5007F00D100BFCA430280704725
:101D500070B50246002400230025002040F66A16D4
:101D6000B14200D100BFC1F3421501F01F030126AB
:101D700006FA03F3012D02D19689334006E0022DC5
:101D800002D1168A334001E0968A33400C120126B4
:101D900006FA04F41688344013B10CB1012000E0B7
:101DA000002070BD10B50022002340F66A14A14245
:101DB00000D100BF0A1201249440A3B2DC43048086
:101DC00010BD0000003801400044004000480040C1
:101DD000004C004000500040002109E0002201E0DA
:101DE000531C9AB240F6B8339A42F9DB4B1C99B2B5
:101DF0008142F3DB704710B5FD4BDB689AB24FF4BC
:101E00000073FC4C23605B1023602023241F23609D
:101E1000F74BD8602023241D2360241F2360DB00A0
:101E20002360F34BD9602023241D2360241F2360EB
:101E3000DB002360EE4BDA6010BD00B5012100200D
:101E4000FFF7D9FF4FF47A70FFF7C6FF002101209A
:101E5000FFF7D1FF41F290711020FFF7CCFF4FF454
:101E60001C516020FFF7C7FF01216120FFF7C3FF6E
:101E700002214620FFF7BFFF48F210011320FFF7B1
:101E8000BAFF48F2FE011220FFF7B5FF4FF4A06140
:101E90000220FFF7B0FF41F230010320FFF7ABFF54
:101EA00040F203313020FFF7A6FF40F2033131202A
:101EB000FFF7A1FF40F203313220FFF79CFF4FF400
:101EC00040713320FFF797FF03213420FFF793FF82
:101ED00040F203313520FFF78EFF14213620FFF743
:101EE0008AFF40F203313720FFF785FF40F20331CC
:101EF0003820FFF780FF40F203313920FFF77BFFE6
:101F00004FF440713A20FFF776FF03213B20FFF7A3
:101F100072FF40F203313C20FFF76DFF4FF4A051F8
:101F20003D20FFF768FF4FF400719220FFF763FF39
:101F300040F203319320FFF75EFF40F60D01902041
:101F4000FFF759FF41F218010320FFF754FF40F259
:101F500073110720FFF74FFF00BD00B543F20801E2
:101F6000E320FFF748FF1221E720FFF744FF41F28B
:101F70003121EF20FFF73FFF00210120FFF73BFF5A
:101F80004FF4E0610220FFF736FF41F230010320F9
:101F9000FFF731FF00210420FFF72DFF40F207215A
:101FA0000820FFF728FF00210920FFF724FF002168
:101FB0000A20FFF720FF00210C20FFF71CFF002163
:101FC0000D20FFF718FF00210F20FFF714FF00215D
:101FD0001020FFF710FF07211120FFF70CFF002151
:101FE0001220FFF708FF00211320FFF704FF4FF432
:101FF0007A70FFF7F1FE41F290611020FFF7FBFECF
:1020000040F227211120FFF7F6FE3220FFF7E4FE11
:102010001D211220FFF7EFFE3220FFF7DDFE4FF407
:1020200000611320FFF7E7FE14212920FFF7E3FEEC
:102030000B212B20FFF7DFFE3220FFF7CDFE002122
:102040002020FFF7D8FE00212120FFF7D4FE072132
:102050003020FFF7D0FE40F207713120FFF7CBFEB2
:1020600006213220FFF7C7FE40F204713520FFF74A
:10207000C2FE41F604713620FFF7BDFE0421372071
:10208000FFF7B9FE00213820FFF7B5FE40F20671D8
:102090003920FFF7B0FE40F201713C20FFF7ABFEA4
:1020A0000F213D20FFF7A7FE00215020FFF7A3FEE0
:1020B000EF215120FFF79FFE00215220FFF79BFEEA
:1020C00040F23F115320FFF796FE4FF41C51602061
:1020D000FFF791FE01216120FFF78DFE00216A20AC
:1020E000FFF789FE00218020FFF785FE0021812077
:1020F000FFF781FE00218220FFF77DFE0021832073
:10210000FFF779FE00218420FFF775FE002185206E
:10211000FFF771FE10219020FFF76DFE0021922045
:10212000FFF769FE03219320FFF765FE4FF48871E6
:102130009520FFF760FE00219720FFF75CFE00214D
:102140009820FFF758FE41F218010320FFF753FED5
:1021500040F273110720FFF74EFE00BD08B54FF6A1
:10216000FF70ADF8000003208DF8020010208DF8FC
:10217000030069461E48FEF78FF908BD08B54FF603
:10218000FF70ADF8000003208DF8020048208DF8A4
:10219000030069461648FEF77FF908BD70B504468E
:1021A0004FF4007013490860401008602020091F98
:1021B00008600F48C4602020091D0860091F0860DE
:1021C000C0000860FFF7DAFF4FF48060094908603B
:1021D0000748806885B20815091F0860FFF7BEFF31
:1021E0004FF400700349091F0860284670BD0000C5
:1021F00000100140140C014008B501211820FEF721
:1022000007FC01212020FEF703FC4FF4E460ADF849
:10221000000001208DF8020010208DF803006946AF
:10222000F648FEF739F9FFF799FFF44810300068D7
:1022300040F4C460F1491031086008BD10B5FFF7E3
:10224000DBFF0020FFF7AAFFED4908800846008861
:1022500048F23021884202D1FFF7EFFD01E0FFF79D
:102260007CFE0020FFF79AFFE549088010BD01B50C
:10227000BDF80000E349088008BD01B5BDF80000C5
:10228000E149088008BD30B504460D4621462020AE
:10229000FFF7B1FD29462120FFF7ADFD30BDDB4A38
:1022A000D26891B24FF40072D44B14331A605210BA
:1022B0001B1F1A6020221A60D44AD06020221B1DE6
:1022C0001A601B1F1A60D2001A6052001A60CF4AAF
:1022D000D1607047CD49C96888B24FF40071C74AD0
:1022E00014321160491011602021121F1160222147
:1022F000C64AD1602021C14A14321160121F1160F8
:10230000C900116049001160C049C86070472DE9DB
:10231000F04306468946174600240025A046B046ED
:1023200049464046FFF7AFFF00BF1EE0FFF7D2FF70
:1023300000250FE037F814000121A940084020B91A
:10234000B1480088FFF7ABFF03E0AE480088FFF715
:10235000A6FF6D1C102DEDD308F1010000F0FF0861
:1023600049464046FFF78FFF641C182CDED3BDE8BA
:10237000F08370B505460E461446A4F12000C4B2A1
:1023800004EB4400A24901EB001231462846FFF756
:10239000BEFF70BDF0B507460C46002540F23F1663
:1023A00009E0227831463846FFF7E3FFA6F1100036
:1023B00086B2641C6D1C207808B1142DF1D3F0BDD9
:1023C00010B5044693A12046FFF7E4FF10BD30B5D9
:1023D0000546002400210846FFF755FFFFF77AFF66
:1023E00000BF03E02846FFF75AFF641CB4F5963F90
:1023F000F8D330BDF0B504460D4616461F46B4422C
:1024000006DBA01B401C81B25020FFF7F4FC03E068
:1024100000215020FFF7EFFC21465120FFF7EBFC95
:10242000BD4206DBE81B401C81B25220FFF7E3FCF3
:1024300003E000215220FFF7DEFC29465320FFF77E
:10244000DAFC29462046FFF71EFFF0BD00B54FF429
:10245000A073F022591EEF20FFF7CCFF41F21801C4
:102460000320FFF7C8FC00BD2DE9F0410646884671
:1024700015461F46002441463046FFF704FF5FB96A
:10248000FFF728FF00BF04E05E480088FFF707FF62
:10249000641CAC42F8D310E000240CE0FFF71AFFF4
:1024A00058480088FFF7FBFE701CC6B24146304614
:1024B000FFF7E9FE641CAC42F0D3BDE8F081F0B553
:1024C00005460E4617461C4600232246314628463E
:1024D000FFF7CAFFE919C8B2002322463146FFF7C9
:1024E000C3FF01233A4631462846FFF7BDFF301BA4
:1024F000401C81B201233A462846FFF7B5FFF0BDE4
:102500002DE9F04306460F4690460320A0EB48090C
:10251000002445466EE07A1991B23219D0B2FFF725
:10252000B2FEFFF7D7FE37480088FFF7B8FE7A1BE8
:1025300091B23219D0B2FFF7A6FEFFF7CBFE3148B9
:102540000088FFF7ACFE7A1991B2321BD0B2FFF7C8
:102550009AFEFFF7BFFE2B480088FFF7A0FE7A1B0C
:1025600091B2321BD0B2FFF78EFEFFF7B3FE2548C3
:102570000088FFF794FE3A1991B27219D0B2FFF7B2
:1025800082FEFFF7A7FE1F480088FFF788FE3A1B70
:1025900091B27219D0B2FFF776FEFFF79BFE194891
:1025A0000088FFF77CFE3A1991B2721BD0B2FFF798
:1025B0006AFEFFF78FFE13480088FFF770FE3A1B94
:1025C00091B2721BD0B2FFF75EFEFFF783FE0D489B
:1025D0000088FFF764FEB9F1000F04DA062000EB73
:1025E0008400814405E0601B0A2101EB80008144E6
:1025F0006D1E641CAC428ED9BDE8F083000C014016
:102600002C000020280000202A000020001001409B
:10261000A456000820202020202020202020202038
:1026200020202020202020200000000070B5064639
:102630000024002540F23F110020FFF724FEFFF7A1
:1026400049FE00BF14E000250FE056F824000121E8
:10265000A940084020B95F480088FFF720FE03E04A
:102660005D480088FFF71BFE6D1C202DEDD3641C18
:10267000B4F5166FE7D370BD70B50446002500268B
:102680006688A08846EA00466589A08945EA004533
:10269000701B46082C4441F208010320FFF7ABFBF6
:1026A000FFF718FE002504E02088FFF7F8FDA41CC2
:1026B0006D1CB542F8D341F218010320FFF79BFBD4
:1026C00070BD10B54FF400704449086040100860B8
:1026D0002020091F086022204149C86020203F496E
:1026E0000860091F0860C0000860FFF747FD4FF44D
:1026F00080603A4908603A48806884B20815091F2A
:102700000860FFF72BFD4FF400703449091F086083
:10271000204610BD00B500211020FFF76CFB002102
:102720001120FFF768FB00211220FFF764FB002156
:102730001320FFF760FB1420FFF74EFB41F2B0714E
:102740001020FFF758FB40F237111120FFF753FB21
:102750000520FFF741FB40F239111220FFF74BFB38
:102760000520FFF739FB4FF4E8511320FFF743FB37
:1027700013212920FFF73FFB0520FFF72DFB40F237
:1027800073110720FFF737FB00BD00B540F273114E
:102790000720FFF730FB00BD00B500210720FFF741
:1027A0002AFB00BD30B5054600210846FFF76BFD4A
:1027B000FFF790FD002409E015F814206100491C82
:1027C000695C42EA0120FFF76AFD641CB4F5963F9C
:1027D000F2DB30BD2A00002028000020140C01404C
:1027E0000010014010B50020FE4908600120FE499C
:1027F00008600DE0FD48FC490968405CF94909683A
:102800000844F8490860F8480068401CF649086028
:10281000F54800680B28EDDBF24800680A2809DC5F
:1028200000214FF4007000F0F9FB0121080200F0D4
:10283000F5FB08E000214FF4807000F0EFFB012170
:10284000480200F0EBFB10BD002100EB4002E84B1A
:1028500003EB8202516000EB400203F8221000EB10
:10286000400203EB8202916070477CB5E14800684A
:1028700002F088FDCDE90001DF48E0A14268E448AC
:1028800000F0C4FCE2497820FFF784FD7CBDF8B578
:10289000D94880683C2190FBF1F201FB1206D64832
:1028A000806890FBF1F090FBF1F201FB1205D24839
:1028B00080684FF4616190FBF1F42B462246D5A16C
:1028C000D348009600F0A2FCD1497820FFF762FDC2
:1028D000C948D7A14268CE4800F098FCCC4978207E
:1028E000FFF758FDF8BDC449496800EB4002C04BF2
:1028F00003EB82025160C049097800EB400203F803
:102900002210CD49096800EB400203EB820291607E
:102910007047CA49086000BFC84909680029FBD14F
:10292000704770B5B448C6A14268B94800F06EFC63
:10293000C4484078B049087008460278C2A1B4483B
:1029400000F064FCC5A000F046FCB14800F043FC78
:10295000C2A000F040FCA848007846282ED0B94814
:10296000C0783038A4494860B648C078312805D1CD
:10297000B4480079302801D10A2048609E48B8A1A7
:102980004268A34800F042FCB4A000F024FCAD482B
:1029900000F021FCB1A000F01EFC6420FFF7B9FF9D
:1029A000AEA000F018FC9A4800F015FCA2480068A0
:1029B00091498860A9A000F00EFC31E0A7A000F0CA
:1029C0000AFCAA48006802F0DDFC044622460B46D9
:1029D000A7A18F4800F01AFC8D4800F0FCFB9FA0D7
:1029E00000F0F9FB0020804908600DE095497E4821
:1029F0000068C01C095CA1487B4A126881547A486F
:102A00000068401C78490860774800680228EDDBC0
:102A10009A4802F0C7FA044602F06CFB934908603A
:102A200070BD10B59648007800287DD0FFF779FF7B
:102A30008AA000F0D0FB93A000F0CDFB814800F00D
:102A4000CAFB86A000F0C7FB01206749086018E0B8
:102A5000664865490968405C02280DD10120634938
:102A6000614A1268885489A000F0B5FB5E4800688E
:102A7000FFF739FFFFF70BFF5B480068401C5A491E
:102A80000860594800680B28E2DB8348006800288A
:102A900048D001205449086039E05348006800EBF1
:102AA0004000534901EB800040685349496888421F
:102AB00028D14D49096801EB41014D4A02EB8101E2
:102AC00089685D4A1268501A02F088FC044667481B
:102AD0000168204602F09AFC46490860FFF7C5FEEF
:102AE0006EA000F078FB002140483F4A12688154F4
:102AF0003D480068FFF7A8FE002067490860632092
:102B00003949086038480068401C37490860364831
:102B100000680B28C1DB344800681E2802DA63A075
:102B200000F059FB012200E009E040F22551634822
:102B3000FFF729F80020524908705749086010BD76
:102B400010B54FF480715E48FDF739FDC0B96420BF
:102B5000FFF7DFFE4FF480715948FDF730FD78B97B
:102B600058A000F038FB00205949086001204A496C
:102B700008600020FFF72BFC56A14820FFF70AFC55
:102B800010BD10B501214E48FDF719FD002826D1D2
:102B90006420FFF7BEFE01214948FDF710FD002823
:102BA000F5D11049086001200F4908600DE00F4879
:102BB0000D490968405C0B490968084409490860E7
:102BC00009480068401C08490860074800680B284D
:102BD000EDDB044800680A2802DA002184E0C3E043
:102BE00087E0000054000020500000206400002016
:102BF0007C0000204C0000207000002020202020BD
:102C000020256420202020202020252E3266000050
:102C1000000100202020202020202020202020250E
:102C20002E32643A252E32643A252E32640000009A
:102C300020202020202564003000002058000020A3
:102C4000256400003201002055534152545F525810
:102C50004255465B315D3A20256300000A000000C2
:102C600063616C49443A256400000000380000208C
:102C70006368617267653A25660000003C000020C9
:102C80005C0000205265636976653A000A696E202F
:102C90006F6B6B21210A0000340000200A206F7541
:102CA00074206F6B6B21210A000000000A206F75F1
:102CB000742066616C736521210A000000440040A5
:102CC0000008014074727920746F206F75740A00D7
:102CD0004400002020494420436F646520202020C8
:102CE00020466565000000004FF4005000F096F9A2
:102CF00003E00121480300F091F90020FFF767FB92
:102D000054A14820FFF746FB01205749086057A00F
:102D100000F061FA01205949086021E058485749FC
:102D20000968405CB8B954A000F055FA5348AFF2B6
:102D3000FC010268534800F069FA524800F04BFA6F
:102D40004DA000F048FA02204D494C4A12688854C0
:102D500063204A49086049480068401C47490860A8
:102D6000464800680B28D9DB10BD474800684FF47F
:102D70007A72B0FBF2F1481EB0F1807F00D31BE005
:102D8000481E4FF0E022506150170F22002807DA4A
:102D900013071D0E3D4B00F00F04241F1D5503E0CB
:102DA00013071C0E3A4B1C5400BF00204FF0E022CA
:102DB00090610720106100BF00F0F4F800F09CF96A
:102DC00000F0C7F9FFF73AFA0020FFF700FB0020F8
:102DD000FFF753FA4FF6FF70FFF749FA2DA148208D
:102DE000FFF7D8FA30A16020FFF7D4FA30A178209D
:102DF000FFF7D0FA31A19020FFF7CCFA19E0FFF7E6
:102E0000C0FEFFF79DFEFFF70CFEFFF7EBFC002076
:102E10002F4948602F48006802F0B4FA0446224661
:102E20000B462DA1174800F0F1F91649D820FFF7FD
:102E3000B1FAE4E701462648406801EB41022C4B19
:102E400003EB82025268904201D1012070470020BA
:102E5000FCE7000020494420436F646520202020C7
:102E60002054696D650000004400002074727920D0
:102E7000746F20676F696E670A00000050000020C1
:102E800064000020000100200000002018ED00E098
:102E900000E400E0506C656173652073656C6563E8
:102EA00074203A200000000020676F20696E200027
:102EB00020676F206F757420000000002063686138
:102EC0006E67652074686520707269636500000034
:102ED000700000203800002020202020202020200A
:102EE000202020202052617465733A252E3266001E
:102EF0007C000020704700BFFEE700BFFEE700BF78
:102F0000FEE700BFFEE77047704770471E48006845
:102F1000401C1D49086008460068B0F57A7F06D15C
:102F20000020086019480068401C184908601848CB
:102F30000068401E16490860704710B540F22551E0
:102F40001448FEF705FFF0B140F225511148FEF795
:102F500029FF1048FEF77CFEC4B20F480078401CE1
:102F60000D4908700D48097844540A2C0BD10020F3
:102F70000949087001200A490870002240F22551D1
:102F80000448FEF700FE10BD600000203000002065
:102F900058000020004400405D0000203201002065
:102FA0005C00002008B501210420FDF731FD01215E
:102FB0000820FDF72DFD40F21110ADF8000048206B
:102FC0008DF8030001208DF8020069462248FDF7C4
:102FD00063FA0620ADF8000069462048FDF75CFA68
:102FE00001211020FDF714FD01212020FDF710FD27
:102FF0004FF47F40ADF8000010208DF80300012051
:103000008DF8020069461648FDF746FA0420ADF82F
:10301000000069461348FDF73FFA08BD70B5044645
:103020000D4665B921460E48FDF7E3FA04210D4827
:10303000FDF7DFFA04210B48FDF7DDFA0BE021462E
:103040000748FDF7D8FA04210648FDF7D2FA042113
:103050000448FDF7D0FA70BD00080140000C0140A3
:10306000001001400014014030B587B004460D4601
:1030700001210220FDF7D9FC40F2CF70ADF8140019
:103080000020ADF81000ADF81600ADF8120004A94C
:103090002348FDF763FE012247212148FEF761FA2C
:1030A0007020ADF800000120ADF802000420ADF85A
:1030B0000400ADF806400220ADF808000020ADF88D
:1030C0000A004FF48070ADF80C000020ADF80E003F
:1030D00069461348FDF7C1FEADF806406946104841
:1030E000FDF708FF01210E48FEF794F901210C4875
:1030F000FEF79CF907B030BD08B501210420FDF7AB
:1031000087FC8020ADF8000018208DF80300032014
:103110008DF8020069460348FDF7BEF908BD0000BE
:10312000000400400008014008B54FF4C060FDF7FE
:10313000D3FC26208DF8000001208DF8010000202E
:103140008DF8020001208DF803006846FDF7C9FCE8
:1031500008BD00B585B001210420FDF759FC01210F
:103160004804FDF762FCFFF7DFFF0420ADF8100014
:1031700018208DF8130003208DF8120004A92148AF
:10318000FDF78AF90820ADF8100004208DF813002F
:1031900004A91C48FDF780F94FF416500090002058
:1031A000ADF80400ADF80600ADF80800ADF80C006D
:1031B0000C20ADF80A0069461348FEF74CFC0122CA
:1031C00040F225511048FEF7DEFC01210E48FEF7C3
:1031D000CEFC05B000BD70B50446002500BF6057A9
:1031E00081B20948FEF730FD00BF80210648FEF796
:1031F00099FD0028F9D0681CC5B2605D0028EED1A9
:1032000070BD000000080140004400400FB41CB530
:10321000074B06AA7B4469460090059800F071FBB5
:103220000020694600F080FB1CBC5DF814FB000028
:103230001107000070B50C460546012A05D0287814
:10324000800600D5EA69002302E0012305E05B1C4B
:10325000934202D2E05C0028F9D1A869E618C01AAE
:10326000A861286A184428622846AFF3008004E069
:10327000D5E9012114F8010B9047B442F8D3284650
:10328000AFF3008070BD00002DE9F0410646002438
:1032900010687529314616A510D0AFF300800028BC
:1032A00002DA404213A507E031688A0701D512A56A
:1032B00002E0490704D511A5012401E0AFF3008025
:1032C00000210A2206F1240709E0B0FBF2FCB0FB62
:1032D000F2F302FB1C00303078541846491C0028D9
:1032E000F3D123462A463046BDE8F04100F09DB8B0
:1032F000000000002D0000002B0000002000000056
:103300002DE9F0474FF0000A89460446C0F820A096
:103310002046E1688847002876D0252806D0D4E9E1
:1033200001219047206A401C2062F1E7E1682046B5
:1033300000258847C4F81CA006460027C4F818A03A
:103340002A2E09D0304601F026FE38B304EB870858
:10335000303EC8F8186019E059F8041B204604EB09
:1033600087029161E1688847012F064618D1E0691C
:10337000002820DA25F020051DE0D8F8180000EB21
:10338000800006EB40003038C8F818002046E1689D
:103390008847064601F0FFFD0028EED1012F0AD034
:1033A0002E2E08D12046E16888477F1C0646022F52
:1033B00045F02005C4DBA069002803DA404245F04F
:1033C0000105A061E80701D025F01005B6B1A6F10E
:1033D0004100192802D8203645F400654A46314696
:1033E000204625604D46FCF7BBFE58B1012806D0AB
:1033F000ED1D25F0070000F1080989E704E005F15B
:10340000040985E730468AE7206ABDE8F0877047FF
:103410007047704710B500F0F7FA006810BD10B59E
:10342000044600F0F1FA046010BD2DE9F0470D46A6
:1034300099469246044600F124080168880604D59E
:10344000E06921F01001216000E00120A84201DDC7
:10345000471B00E00027A1697A1902EB0900081A4E
:10346000A0612078C00602D42046AFF30080002679
:1034700008E0D4E901211AF806009047206A401CB0
:10348000761C20624E45F4DB2078C0060AD5204623
:10349000AFF3008006E0D4E9012130209047206A94
:1034A000401C2062381EA7F10107F4DC07E0D4E9D4
:1034B000012118F805009047206A401C2062281E50
:1034C000A5F10105F3DC2046AFF30080207800066B
:1034D00002D50220BDE8F0870120FBE770472DE907
:1034E000FF4F0C461E464FF0FF378BB0D2E900016C
:1034F000DDF860800A908A46C1F30A5505B93D4659
:10350000002108464FF00000BAF1000F00F440001F
:1035100005DA00EB80004FF4400101EA50004FEA69
:103520009059B9F1010F00DDB9460A9850EA4A00F6
:103530000ED044F61050A5F2FF3545432F14B8F1D4
:10354000000F1ED07542291E1EDDC9F100021CE0CD
:10355000B8F1010F4FF0000001D0302103E0F24339
:1035600005E02154401CB042FBDB30460022002124
:1035700021540B99C1F80880C1E900200FB0BDE8C3
:10358000F08FBD1B6D1CDEE74A4600DA694206A8D3
:1035900000F0ECFA06AB93E8070003AB83E8070002
:1035A00050460A9901F070F88DE80700A0F5005028
:1035B0001F3800900398002D09DD42F21F014A4692
:1035C000084403A90390684601F0F9FA08E0A0F561
:1035D00000504A461F3803A90390684601F017FBC4
:1035E0008DE807000004000C03D04FF0FF304108C5
:1035F00000E01046B8F1000F03D0002200921546FB
:103600001EE0751E05D400F003FA303262556D1EBF
:10361000F9D5B3460122084302D000227F1C04E002
:103620002078302801D100227F1E002A099786D0F9
:103630001DE0112D07DA00F0EBF9303262556D1CF8
:1036400050EA0102F5D1084302D00098C8B10EE05B
:103650000021681E05E0235C625C63542254401E16
:10366000491C8142F7DBAB46A81B401E0990002095
:1036700004F80B000B98099AC0F80880C0E9002BE9
:103680007CE711264FF0000859E72DE9F04F8846F6
:103690000446D21D22F0070191B0D1E90001CDE925
:1036A0000A0101F0FEFB02460B98C00F01D02D204D
:1036B00007E02068810701D52B2002E0202101EAE4
:1036C000C000032A099001D0072A05DB03464146C2
:1036D000204600F0EBF90BE12078800601D5E06987
:1036E00000E00620B8F1650F814606D0B8F1660FFC
:1036F00018D0B8F1670F70D131E00020B9F1110F87
:10370000009001DB112301E009F101030AAA01A9DC
:103710000CA8FFF7E4FEDDE90C70002609F10105B5
:10372000834647E001204B4600904FF000470AAA2D
:1037300001A90CA8FFF7D3FEDDE90DB00C995D4699
:10374000002610B909F101000D18B9EB050003D4EA
:10375000C0F1FF3609F10105A5EB09002BE0B9F135
:10376000010F01DA4FF001090020B9F1110F0090AB
:10377000484601DD112300E003460AAA01A90CA86E
:10378000FFF7ADFEDDE90C704D460026834620783C
:1037900000070AD4AB4500DA5D4601A8012D04DD1F
:1037A000411911F8011C302907D04F4502DA17F1F1
:1037B000040F04DA012082460FE06D1EEEE7002FB1
:1037C00002DCED1B3E4403E0781CA84200DD7D1CBA
:1037D000B81B00F1010A4FF000472078000703D41E
:1037E000AA4501DB4FF0FF3A0021B7F1004F0DF180
:1037F00043088DF8431024D002202B23002F01DA38
:103800007F422D230A21021EA0F1010000DC5FB1DE
:1038100097FBF1FC97FBF1F201FB1C7C17460CF1C6
:10382000300C08F801CDEEE7A8F101000370218803
:10383000090501D5452100E06521A0F1010800F846
:10384000011C09980FA9A1EB0807FF1D00B1012079
:10385000411901EBEA70A1693844081A401EA061C1
:103860002078C00602D42046AFF30080099828B122
:10387000D4E901219047206A401C20622078C006CC
:1038800022D52046AFF300801EE0002E04DBB345B6
:1038900002DD01A8805D00E03020D4E901219047DD
:1038A000206A401C2062761CAAF101005FEA000A2F
:1038B0000AD100F0A5F8C0680168405CD4E9012194
:1038C0009047206A401C2062281EA5F10105DCDC1F
:1038D00007E0D4E9012118F8010B9047206A401C49
:1038E0002062381EA7F10107F3DC2046AFF3008009
:1038F000032011B043E6000001694A1C0261087808
:10390000704700B58FB0CDE901310021059105491F
:103910007944CDE9031011466846FFF7F1FC0FB07A
:1039200000BD0000E5FFFFFF0A6802F8010B0A6016
:10393000704710B5436913B1AFF3008001E0FFF7A2
:1039400079FC012010BD127800F124010A700022D8
:103950004A700122EDE711684FF0FF32E9E70000FD
:103960000FB4002300B589B00CA900910B99CB606E
:10397000204B7B440693204B7B44079304236FF03A
:103980000042CDE901321D4A7A446B460892024654
:10399000002001F069FE09B05DF814FB70B5064621
:1039A0004FF0FF3015460C46324686B00091CDE907
:1039B000010169460020049004A8FFF7D1FF0346E7
:1039C0000498211825B108B10A4600E022462A6071
:1039D00000280DD0002B02DD0098884208D0324626
:1039E000081B69460094CDE9010404A8FFF7B8FF5D
:1039F00006B070BDB7010000CF0100000F0100004C
:103A000000487047680100200048704748010020C6
:103A100030B5B0F10A024FEA900E71F100034EEAA0
:103A2000817EB0EB0E0061EB91014FEA101E4EEA71
:103A3000017E10EB0E0041EB11114FEA102E4EEA01
:103A4000016E10EB0E0041EB11214FEA104E4EEAD1
:103A5000014E10EB0E0041EB1141401841F1000105
:103A60004FEAD00040EA41704FEAD10110EB8005E7
:103A70004FEA810444EA907444EB01046D1944EB6D
:103A80000404521BA3414FF0000348BF0A3200D583
:103A900030BD401C41F1000130BD10B5044600F0BE
:103AA000FDF80068005D00F0010010BD2DE9F04157
:103AB0001F46044603260168072A01F4006004DB60
:103AC00008B116A505E016A503E008B115A500E0AC
:103AD00015A521F010002060A069C01EA0610FB1E3
:103AE000401EA0612046AFF300804FB1D4E9012110
:103AF00038469047206A401C2062C01C206206E0C5
:103B0000206AFAE7D4E9012115F8010B9047761EE7
:103B1000F8D22046AFF30080BDE8F0814E414E0060
:103B20006E616E00494E4600696E6600426842B1A1
:103B3000016811F8013B23B1521EC0E9001218467A
:103B400070470121C160881E704742685AB1C3683E
:103B5000016843B983688B4205D0491E521CC0E9F5
:103B60000012002070474FF0FF3070472DE9F047FA
:103B7000814616468AB0334878440DC88DE80D005A
:103B800030487844801C03AC0DC884E80D0041F631
:103B90009B300844372190FBF1F290FBF1F5A5F141
:103BA000800501FB12041B3C02D56442012000E0A9
:103BB0000020DFF890A080460027FA44AAF1BE0A50
:103BC0000DE0E00709D03246684607EB47010AEBF3
:103BD000810101F01CF88DE8070064107F1C002CA7
:103BE000EFD1184F7F44AC3F18E0E80714D007EB43
:103BF00004100DF1180A90E80E008AE80E00C06863
:103C0000F04201D198190890324606A903A800F0A5
:103C1000FEFF03AB83E807006D10641C002DE4D1A8
:103C200032466946B8F1000F03A802D000F0C7FF82
:103C300001E000F0ECFFC9E90001C9F808200AB072
:103C4000BDE8F087742D000000487047480100204F
:103C50007546FFF7F9FFAE4605006946534620F06A
:103C60000700854618B020B5FCF7B4FABDE820403F
:103C70004FF000064FF000074FF000084FF0000B28
:103C800021F00701AC46ACE8C009ACE8C009ACE8DB
:103C9000C009ACE8C0098D467047000010B5FFF7B9
:103CA000AFFE001D10BD00BF211400002DE9FF4F25
:103CB000064689B00878FF2806D0491C2D2805D073
:103CC00000244FF0000908E000200CE00124F8E790
:103CD00009EB8903491C00EB43090878FF28F7D159
:103CE00014B1C9F100008146107800252C46AA467F
:103CF00029462D2801D02B2804D1521C2D2813D061
:103D0000002082468B461078FF280FD04FF0000C21
:103D10000A21521CA5FB017804FB018105FB0C1153
:103D2000C5194BEB0104EEE70120EAE70021084644
:103D30004FF00000BAF1000F02D000EB8000400805
:103D4000C0F38158B8F1010F01DD4FF0FF380C9836
:103D500009EB000755EA040009D04FF0020917F5F6
:103D6000FA7F0BDA4FEACA70C6E900B012E04FEAF8
:103D7000CA70C6E900B00DB0BDE8F08FB7F5FA7FA4
:103D80000DDDF0487844D0E90010C6E9001040EAA3
:103D9000CA707060FFF738FEC0F80090EBE7391E7C
:103DA00002DAC8F1000200E0424600DA794206A8D1
:103DB000FFF7DCFE06AB93E8070003AB83E80700E0
:103DC00044F23E005BEA04010090584604D144F2FC
:103DD0001E012C465D460091210C0904014306D1C9
:103DE0000099240444EA15442D041039009104F08C
:103DF0007F41014306D10099240244EA15642D0253
:103E00000839009104F07041014306D10099240162
:103E100044EA15742D01091F009104F0404101434B
:103E200006D10099A40044EA9574AD00891E009162
:103E300004F00041084304D100986D196441401E0C
:103E4000009042466846002FCDE9014503A902DDF6
:103E500000F0F1FE01E000F0C6FEBAF1000F0446EA
:103E60000D4601D084F0004440F2FF7724F000407A
:103E7000284303D0C4F30A50B84212D1FFF7C4FD5F
:103E8000C0F80090C4F30A50B8420AD1AE48784452
:103E9000D0E90010C6E9001004F00041084370604A
:103EA00069E7C6E9005466E72DE9FF4F1F464FF06A
:103EB000000A4FF0FF38454691B0D7E90146CDF8EA
:103EC0003CA0FFF79DFDC0680168405C1090B96997
:103ED00012986D1C8847396A814688470028F6D1B8
:103EE000B9F1FF3F0AD0002E24F4D06411DDB9F1FE
:103EF0002B0F08D0B9F12D0F0BD102E0404615B0C1
:103F00003AE744F48064B96912986D1C8847761EBC
:103F10008146600504A901D52D2000E02B20002E4C
:103F200001F1010B0DF130088DF810003FDDB9F102
:103F3000690F08D0B9F1490F05D0B9F16E0F02D061
:103F4000B9F14E0F1CD13B4601A8009580E8500204
:103F5000DDE912126FF0020001F08AFBC11CCED124
:103F60000EE0B96912986D1C884781461398761E39
:103F700044F4007405600F98401C002E0F9016DD6D
:103F8000B9F1300FEDD0B9F1780F02D0B9F1580F77
:103F90000DD10F9801280AD13B46CDE90054DDE947
:103FA0001212001F029601F061FBC11CA7D11099EB
:103FB00089453ED144F0800406E01399681CAAF1BB
:103FC000010A44F400740860B9696D1C1298761EE9
:103FD000884730288146F0D02BE01099894505D1DB
:103FE000200603D4761E44F0800418E0484600F012
:103FF000D2FF08B3761E0DF123018B4544F4007403
:1040000008D2A9F130000BF8010B200607D5AAF160
:10401000010003E0200602D40AF101008246A00557
:1040200002D51399681C0860B96912986D1C8847FD
:104030008146002ED1DC53E0002E51DDB9F1650F31
:1040400002D0B9F1450F4BD1A00549D5B9696D1C16
:104050001298761E24F440748847002E81460CDDA9
:104060002B2804D0B9F12D0F07D144F48074B9691D
:1040700012986D1C8847761E8146E00501D52D21DA
:1040800000E02B2108F8011BCDF8008021E0761E0E
:104090000DF13901884544F400740CD2A9F13000C7
:1040A00010F0FF0088F8000002D10099884509D976
:1040B00008F1010806E0E00501D5244801E042F2DC
:1040C0000F708246B96912986D1C88478146139813
:1040D0000560002E04DD484600F05DFF0028D6D1C3
:1040E000F96912988847FF2053468BF8000088F83A
:1040F000000000200A900B9004AA0CA90AA8FFF760
:10410000D5FDA00502D46FF00100F8E614F0240FED
:104110000AD0E00714D13868DDE90A12031D3B60BC
:104120000068C0E900120BE00AA9684600F0DCFE56
:10413000E00705D13868009A011D39600068026007
:104140002846DCE6A02B0000962A0000F1D8FFFFED
:1041500010B50446AFF300802046BDE81040FCF7E0
:1041600025B800004FF0013C50F8042B51F8043BF7
:104170009A4221D1A2EB0C03934313EACC1317D13B
:1041800050F8042B51F8043B9A4215D1A2EB0C03D2
:10419000934313EACC130BD150F8042B51F8043B92
:1041A0009A4209D1A2EB0C03934313EACC13DBD060
:1041B0004FF00000704700BFD01A01BAB1FA81F188
:1041C00001F0180122FA01F0CB40C1F12001DBB26D
:1041D000C0B2C01A2CFA01F3D11A914311EAC311EB
:1041E000E6D170472DE9FF4F1F464FF03C0987B0DD
:1041F0004FF00042DDE9141001F10108DDF858A08C
:1042000002EA40500390002005908346054604468C
:104210000490B969461E08988847AAF1010A0290DD
:10422000BAF1000F3BDD02982E2815D0102100F0C6
:104230001CFA00282EDB4FF0010B0599014317D023
:10424000B9F1000F0BDB4A46C11700F0FBF905433B
:104250000C43A9F1040905E0012004900BE008B12A
:1042600045F0010501200590049820B9361D02E0B3
:10427000049800B1361FB969089808F10108884709
:10428000BBF1000FAAF1010A0290C9D00999C1F847
:104290000080C5E70298702808D0502806D0F96938
:1042A00008988847BBF1000F14D04FE0002002901F
:1042B0000120BBF1000F049009D0B969089808F1FA
:1042C00001088847AAF10109B9F1000F07DCF96973
:1042D000089888476FF001000BB0BDE8F08F2B28DD
:1042E00004D02D280CD14FF0FF300490B969089804
:1042F00008F101088847A9F10109B9F1000FE6DDCD
:10430000411CE4D00A2100F0B0F90028DFDB02995B
:1043100008F1010801EB810100EB41000290B9694D
:10432000089888470A2100F0A0F9099AA9F1010923
:10433000B9F1000FC2F8008001DD0028E7DAF96961
:10434000089888470499029800FB016655EA040022
:1043500004D004F04041090002D006E0039898E040
:10436000A40044EA9574AD00B61E04F000410800B4
:1043700002D16D196441761E159810F0240F03D0F8
:104380004FF00B095C4803E04FF028096FF07D0007
:104390008246564507DAAAEB06018944B9F1410F76
:1043A00001DD4FF0410901200021A9F1010200F0D7
:1043B00049F9024628400B462140084301D001211B
:1043C00000E00021501E029143F1FF3128402140BE
:1043D000084301D0012000E000200299834651EA01
:1043E0000B014FD0002108464FF00000039900F464
:1043F000400039B100EB80004FF4400100EBD07079
:1044000001EA60008015012802DD4FF0FF3000E076
:1044100013D0401C36D0029860B3BBF1000F0CD112
:104420004A460120002100F00DF9284021400843B0
:1044300001D0012000E00020E0B101204A46002127
:1044400000F000F9034640190A4661412D1A8C41DB
:1044500011D3B9F1400F09DD159810F0240F02D0E7
:10446000AAF1340603E0AAF1170600E0761C002545
:104470004FF0004406E05B1E42F1FF3220EA0305E4
:1044800021EA0204CAF10100B04206DA1B4903988E
:1044900008430190002000900EE0039AC4F3D3215A
:1044A000E80A0A43164940EA44500A433146CDE936
:1044B0000002684600F064FD159810F0240F0BD040
:1044C0001598C00715D13868DDE90012031D3B605F
:1044D0000068C0E900120CE002A8694600F004FD83
:1044E0001598C00705D13868029A011D3960006827
:1044F00002604046F0E6000002FCFFFF0000F07F93
:104500000000F03F2DE9FF4F92461D4685B04FF069
:104510000041DDE9124BDDE914727F1E01EA4B50C8
:10452000414940F0FF4940EA0108002122F0200003
:104530004928049102D04E2828D04CE03BA0012607
:1045400007C88DE80700A9690698641C88477F1E84
:10455000014606D41DF8060018B121F02001814261
:104560000BD0E96906988847032E34D0082E32D044
:104570006FF0010009B0BDE8F08F761C032E01D06A
:10458000082EE0D1601CCAF80000DCE7A969069893
:10459000641C88477F1E2AD420F02000412826D1A1
:1045A000A9690698641C88477F1E20D420F020004B
:1045B0004E281CD1A9690698641C88477F1E48F4C0
:1045C000002849F48009CAF8004001D4282806D000
:1045D000E969069888475FEACB7012D022E0A969A2
:1045E0000698641C88477F1E01D4002803DAE96915
:1045F00006988847BCE72928F1D1641CCAF8004016
:10460000E9E71BF0240F07D028680499031D2B60ED
:104610000068C0E9001805E02868021D2A600068EB
:10462000C0F800902046A5E70000F07F494E4649BB
:104630004E4954590000000001491820ABBEFEE766
:1046400026000200B2F120030AD5C2F1200301FACC
:1046500002F120FA03F300FA02F041EA0301704785
:1046600000FA03F14FF0000070473A2800D23038CA
:1046700020F02002412A01D3A2F13700884201D361
:104680004FF0FF30704770475FEA400C08BF91F071
:10469000000F4FEA8C234FEAC12243EA51514FEAFF
:1046A0001C5018BF00F5F0404FEA300018BF41F031
:1046B00000415FEA6C5C00F02980BCF1FF3F08BF5D
:1046C00040F080407047130C06BF12044FF0100CEE
:1046D0004FF0000C130E04BF12020CF1080C130F64
:1046E00004BF12010CF1040C930F04BF92000CF1F3
:1046F000020CD30F04BF52000CF1010C11464FF015
:104700000002A0F11F00A0EB0C00704711F0004F59
:1047100008BF704731F000413FF4D5AF0B0C06BF26
:1047200009044FF0100C4FF0000C0B0E04BF0902EF
:104730000CF1080C0B0F04BF09010CF1040C8B0FDA
:1047400004BF89000CF1020CCB0F04BF49000CF12F
:10475000010CCCF12003A0EB0C0022FA03F302FAC7
:104760000CF241EA030100F10100704720F07F4C98
:1047700080EA030023F07F47ACEB070303F57C538B
:1047800000F0004003F1FF032DE980494FEA154B8B
:1047900009B44FEA144325EA0B4E24EA03480FF20A
:1047A000042606EB132749083E785FEA320203FB32
:1047B0000667C7F5000707FB06F64FEA54374FEACE
:1047C000D64606F1020607FB066CCCF1005C4FEA08
:1047D0001C472CEA074C07FB06F40CFB06F504EB20
:1047E00015464FEA961634BF00204FF000404FEABE
:1047F000D13706FB07FC4FEA1C4C0CFB0BF7D21B16
:1048000003FB0CF761EB07010CFB0EF7B0EB074065
:1048100072EB17420CFB08F734BFA2EB0742B2EB76
:10482000074261EB17414FEA0C444FEA910706FB40
:1048300007FC4FEA1C4C0CFB0BF7B0EBC74072EBCC
:10484000573203FB0CF734BFA2EBC742B2EBC742AF
:1048500061EB57310CFB0EF7B0EBC70072EB5772F0
:104860000CFB08F734BFA2EBC702B2EBC70261EB47
:104870005771039F4FEA816141EA921104EBCC0426
:104880004FEAD1374FEA826206FB07FC42EA9012F8
:104890004FEA80604FEA1C4C0CFB0BF7D21B03FB6A
:1048A0000CF761EB07010CFB0EF7B0EB074072EB66
:1048B00017420CFB08F734BFA2EB0742B2EB0742EA
:1048C00061EB17414FEA8C554FEA910704EB9C24AA
:1048D00006FB07FC4FEA1C4C0CFB0BF7B0EBC74088
:1048E00072EB573203FB0CF734BFA2EBC742B2EBBB
:1048F000C74261EB57310CFB0EF7B0EBC70072EB10
:1049000057720CFB08F734BFA2EBC702B2EBC70229
:1049100061EB577115EB4C254FEA816141EA921129
:104920004FEA82624FEAD13742EA901206FB07FC57
:1049300044F100044FEA80604FEA1C4C0CFB0BF77B
:10494000D21B03FB0CF761EB07010CFB0EF7B0EB7E
:10495000074072EB17420CFB08F734BFA2EB07428B
:10496000B2EB074261EB174115EB1C154FEA8131A1
:1049700041EA92414FEA823242EA90424FEA803065
:104980004FEA0C7644F1000448EA03434EEA0B4830
:104990004FF0000EB2EB080C71EB030724BF624628
:1049A00039464EEB0E0E4FF0000B001852414941B4
:1049B0004BEB0B0BB2EB080C71EB03077BF1000B1D
:1049C00024BF624639464EEB0E0E4FF0000B001826
:1049D000524149414BEB0B0BB2EB080C71EB030757
:1049E0007BF1000B24BF624639464EEB0E0E51EAB6
:1049F000020718BF46F0010616EB0E7655F10002CD
:104A000054F1000103D5BDE88901BDE80088BDE887
:104A10008901BDE80048B619524141EB0101A3F1FB
:104A20000103704780807F7E7D7C7B7A7978777602
:104A300076757473727171706F6E6E6D6C6C6B6A7B
:104A40006A69686867666665646463636261616019
:104A5000605F5F5E5E5D5D5C5C5B5B5A5A59595896
:104A60005857575656555555545453535252525100
:104A7000515050504F4F4F4E4E4D4D4D4C4C4C4B56
:104A80004B4B4A4A4A49494948484847474747469D
:104A900046464545454444444443434343424242D9
:104AA0004241414146EA0646A3F570534FEA164695
:104AB00046EA42564FEAD22242EA415210B54FEA44
:104AC000D121A3F1010300F017F820F0004000F11C
:104AD000010C00F0004701EB00501146BCF5006FDF
:104AE00040EA070000D210BD02484FF0000140EA42
:104AF000070010BD0000F07F002B26D4770021D0E6
:104B00001CB54FEA370703B44FF010004FF0100107
:104B10004FF000000FBCBDE810400BF1010BBBF1E2
:104B2000010F08BF5FEA170722BF12F1010211F15E
:104B300001014FF0004143F1000300F0004043EA5F
:104B400000007047F9D35708DAE746EA064613F142
:104B5000400F4FEA16461FDD13F1200FDFBF16434B
:104B60000A46002120335B42C8D0C3F1200746EA41
:104B7000064602FA07F74FEA164646EA0706C3F169
:104B8000200722FA03F201FA07F721FA03F14FF0A6
:104B9000000342EA0702B1E746EA020646EA064691
:104BA0004FEA164646EA0106BCBF46EA0646360C00
:104BB0004FF000034FF000024FF000019EE72DE997
:104BC000C048934630B491E8380007C831EA400C39
:104BD00048BF34EA430C03D5FFF7C8FDFFF78CFF4D
:104BE000F0BCBDE800882DE9C048934630B491E898
:104BF000380007C831EA400C48BF34EA430C03D5FB
:104C0000FFF7B4FDFFF74EFFF0BCBDE800882DE9CB
:104C1000C048934630B491E8380007C810F0804F80
:104C200008BF13F0804F03D100F019F8FFF764FFBD
:104C3000F0BCBDE800882DE9C048934630B491E847
:104C4000380007C810F0804F08BF13F0804F03D121
:104C500000F005F8FFF726FFF0BCBDE8008820F063
:104C60007F4780EA030023F07F4C07EB0C03A3F59A
:104C70007C5300F00040A3F1FE0392F0000F00F01F
:104C8000B38095F0000F00F077802DE901494FEADD
:104C900011404FEA144621EA004800FB06FC24EAD2
:104CA000064708FB06F607FB08F800FB07F718EBBA
:104CB00006484CEB164C4FEA124B18EB07484FEAEC
:104CC00015464CEB174022EA0B4E0BFB06FC25EA7F
:104CD00006470EFB06F607FB0EFE0BFB07F71EEB67
:104CE000064E4CEB164C4FF000061EEB074E4CEBFD
:104CF000174B18EB0B0840F1000018EB0E0B58EBAC
:104D0000000840F100008F1A4FF000013CBFC9437A
:104D1000661B14BFB5EB040C00213CBFC943F61B56
:104D20004FEA17444EEA8E0E27EA04454FEA1C4725
:104D300004FB07622CEA074C05FB07F70CFB05F6A2
:104D400004FB0CFC16EB074642EB174216EB0C4635
:104D500042EB1C421BEB060658EB0202414146EABD
:104D60009E0601D5BDE80189B619524141EB01010A
:104D7000A3F10103BDE801894FEA14454FEA114749
:104D800024EA054621EA074C05FB07F406FB07F772
:104D90000CFB06F105FB0CFC11EB074144EB17443F
:104DA0004FEA124711EB0C4144EB1C4422EA074C3A
:104DB00005FB07F206FB07F70CFB06F605FB0CFCF0
:104DC00016EB074642EB174216EB0C4642EB1C452E
:104DD0006A1854F1000148BF7047B619524141EBBF
:104DE0000101A3F10103704795F0000F37D04FEA9E
:104DF00011424FEA144721EA024624EA074C02FB1B
:104E000007F106FB07F70CFB06F402FB0CFC14EBA6
:104E1000074441EB17414FEA154714EB0C4441EBB3
:104E20001C4125EA074C02FB07F506FB07F70CFBC4
:104E300006F602FB0CFC16EB074645EB174516EB96
:104E40000C4645EB1C42121951F1000148BF704756
:104E5000B619524141EB0101A3F1010370474FEA3A
:104E600014454FEA114724EA054621EA074C05FBA1
:104E700007F106FB07F70CFB06F24FF0000605FBF7
:104E80000CFC12EB074241EB174112EB0C4251EBC9
:104E90001C4148BF7047921841EB0101A3F1010387
:104EA0007047490050EAC12018BF04204A0D18BFBE
:104EB00040F0010040F2FF72B2EB515F08BF40F0DA
:104EC0000200012808BF0520704740F2013200208F
:104ED0004FF0E04100F09ABB024A0020110700F0B9
:104EE00095BB000001FDFFFF10B50446D1E90001AC
:104EF00000F002F8206010BDF8B504460D466A4681
:104F000000F066F800987E30009000281FDC002238
:104F100013462046294600F033F918D0002140F608
:104F200008004FF0000006462046294600F0E2F84F
:104F3000044640F6080006EA00014FF0000034F095
:104F4000004004BF0220FEF76AFA2046F8BD009830
:104F5000FF280DDB0220FEF762FA002213462046EE
:104F6000294600F0D9F98CBF04484FF0FF40F8BD46
:104F700020462946BDE8F84000F0BCB8000080FF9C
:104F800010B504460A46D4E90003194600F04CF86F
:104F9000C4E9000110BD30380A2801D20120704751
:104FA0000020704730B583B00446FEF733FA05465B
:104FB0000020CDE90000024621466846FEF7EEFCDF
:104FC0002846FEF72CFADDE9000103B030BD0000F1
:104FD00010B5144600222260114A21F0004393428A
:104FE000A8BF10BD53EA000208BF10BDB3F5801F73
:104FF000A8BF226807DA362200F008FB6FF03502FE
:1050000021F000432260DFF81CC06FF31E510CEB4F
:1050100023531A4441F0FF5141F00051226010BD6A
:105020000000F07F02FCFFFF2DE9F04106460C4630
:1050300040F2FF75174635EA14502BD00022134674
:10504000304600F09DF825D03A463046214600F023
:10505000DDFA06460C4635EA145010D000221346FD
:10506000304600F08DF815D10220FEF7D8F9FFF791
:1050700033FF0A46214662F31E01BDE8F08102209B
:10508000FEF7CDF9FFF721FF0A46214662F31E0124
:10509000BDE8F08130462146BDE8F08110B5002919
:1050A0000AD00878002807D005487844FFF75AF856
:1050B000002801D0002010BD0248784410BD000037
:1050C000861800007E18000010B500290AD0087864
:1050D000002807D005487844FFF744F8002801D09D
:1050E000002010BD0248784410BD00007618000072
:1050F0006E18000021F00042A2F16052B2F5801F4C
:1051000001F0004328BFD2F17F6C0BD95FEA001C8D
:1051100043EAC20242EB507018BF704728BF20F02C
:1051200001007047B2F5801FBCBF184670474FEAB8
:10513000410C1CF5001F02D2084600F02EBA70B5D3
:1051400000F096F800000089FFF7F6BF4FF000402E
:10515000A0F580007047000002494FF0000000F009
:1051600023BA00BF0000F87F491058BFC1F1404189
:105170005B1058BFC3F140438B42EFF30080704790
:1051800051EA030C17D41CF5801F58BFBCF5801FD3
:1051900000F10680994218BF704708BF90427047DF
:1051A00007D711F5801F58BF13F5801F19D49942F6
:1051B0007047894270471CF5801F08D5BCF5801FD9
:1051C000F7D58B4218BF704708BF824270474FF433
:1051D000001C1CEB410F38BF1CEB430F01D28B426C
:1051E000704770B500F044F8922449004FF0005128
:1051F0004FF08053FFF7B8BF51EA030C17D41CF5EA
:10520000801F58BFBCF5801F00F10680994218BF6F
:10521000704708BF9042704707D711F5801F58BFED
:1052200013F5801F19D499427047894270471CF5C5
:10523000801F08D5BCF5801FF7D58B4218BF70477B
:1052400008BF824270474FF4001C1CEB410F38BF6F
:105250001CEB430F01D28B42704770B500F008F889
:10526000922449004FF000514FF08053FFF77CBF6C
:105270000EF1020E2EF0030E5EF8046B364205D4DA
:10528000012A43EB030515F5001F12D8012841EB55
:10529000010C1CF5001F0CD80ED14FEAD17C15F57E
:1052A000001F0CEB4C0C0CF1020C08BF4CEBD37C38
:1052B00004E04FF0080C01E04FEAD37C0CEB4C0506
:1052C00026FA05F606F00706B6F1040C06D20EEB38
:1052D000860CBDE870404CF0010C6047DFE80CF034
:1052E000090B02024FF000414FF00000A1F5002130
:1052F00070BD19461046012851EB010418BFD4F5C2
:10530000001484BF002001F0004170BD0808A0F522
:1053100000114FEA3101704753EA010C17D41CF514
:10532000801F58BFBCF5801F00F106808B4218BF5C
:10533000704708BF8242704707D713F5801F58BFD8
:1053400011F5801F19D48B4270479B4270471CF5A2
:10535000801F08D5BCF5801FF7D5994218BF70474C
:1053600008BF904270474FF4001C1CEB430F38BF3E
:105370001CEB410F01D2994270470FB40CBC03BC27
:10538000FFF76BBF43004FEAD30C4FEA3C0C43409E
:105390001FBF40070CF1605113F0FE4F70471CF027
:1053A000006F03D100200CF0004170470CF0004367
:1053B00043EA507010B540EACC0000F0A8F800BFF6
:1053C000000000924FEA0001FFF7A0BF4FF000413C
:1053D0004FF00000A1F500217047000010F00041DF
:1053E00048BF4042B0FA80F310FA03F2C3F19D03C4
:1053F0000BD051EAC35101EB1220530638BF70475E
:1054000000F1010008BF20F0010070474FF47F0C4D
:105410001CEAD0121EBF1CEAD11392EA0C0F93EAC9
:105420000C0F00F0478090EA010F48BF42F48072F1
:105430004FF0004C4CEA00204CEA012102EB030241
:10544000A0FB0113A2F50002002918BF43F00103DD
:105450005B0028BF4FEA330342EB22425FEA132C82
:105460004CEBC2502EBFBCEB436FB2F57C0F7047C4
:105470004FEA036CBCF1004F08BF20F00100B2F509
:105480007C0F38BF70470BD582F0FF0212F5803FCA
:10549000C8BF704700F1C040D8BF00F0004070475F
:1054A00000F5000C5FEA4C0C48BF7047B0F1C040FB
:1054B00000F073B890EA010F0CEAD11348BF42F430
:1054C0008072624538BF634504D280EA010000F073
:1054D0000040704710B500F01AF800BF8900013E87
:1054E00000F007B800F009B85FEA410C5FEA1C6CF5
:1054F00008D080EA010000F050B85FEA400C5FEA93
:105500001C6CF6D14FF00040A0F5800070470EF102
:10551000020E2EF0030E5EF8044B244204D44FEA30
:105520004102B2F17F4F11D84FEA4003B3F17F4FF0
:105530000CD80ED14FEAD07CB2F17F4F0CEB4C0C63
:105540000CF1020C08BF4CEBD17C04E04FF0080CCE
:1055500001E04FEAD17C0CEB4C0324FA03F404F095
:105560000704B4F1040C06D20EEB840CBDE8104025
:105570004CF0010C6047DFE80CF0070802024FF026
:105580000040A0F5800010BD0846420018BFD2F1CF
:10559000807288BF00F0004010BDFF2141EAD0506A
:1055A000C0057047FEF771B80CF00F03092B08BF58
:1055B000082000F05F800A2B0BD0082B18BF704723
:1055C00008BF1CF0400F0AD04FF000004FF0000160
:1055D00070471CF0400F18BF4FF0004070471CF0A0
:1055E000100F08D020F0704300F07F4242EAD30150
:1055F0004FEA4370704700F0604021F07F4242EA7A
:10560000000201F07F4040EA727070474FF0FF0CDB
:105610004CF4E06C1CEA11531CBF9CEA030C94454B
:10562000C2BFDA4201EB02517047002B0DD0BCF132
:10563000000F0FD0002A01F00041A4BF41F0E0416B
:1056400041F07F614FF00000704701F000414FF0E2
:105650000000704750EA01334FF09B0C18BF4CF02C
:10566000806C7FF479AD7047FEF71EBCFEF7BABDC3
:10567000FEF748BF1CF4801F11D01CF4E02F03D0AC
:105680006FEACC31490070474FF04050EFF3008291
:1056900022F0704242EA000282F3008870474FF025
:1056A0000000704700000000000000000000000043
:1056B00000000000000000000000000000000000EA
:1056C00000000000000000000000000000000000DA
:1056D0000000000000008001800180018001800145
:1056E00080018001800180018001800180018001B2
:1056F00000000000800180010000000000000000A8
:105700000000000000000000CC00CC00CC00CC0069
:10571000CC00CC00000000000000000000000000F1
:105720000000000000000000000000000000000079
:105730000000000000000000000000000000000069
:10574000600C600C600C30063006FE1FFE1F300639
:1057500038071803FE1FFE1F180318038C018C0165
:105760008C01000000008000E003F80F9C0E8C1CF0
:105770008C188C009800F801E007800E801C8C18B3
:105780008C189C18B80CF00FE0038000800000001B
:10579000000000000000000000000E181B0C110C9F
:1057A00011061106110311039B018E01C038C06C54
:1057B00060446044304430441844186C0C38000095
:1057C000000000000000E001F0033807180618068A
:1057D0003003F001F000F8009C310E33061E061C69
:1057E000061C063FFC73F0210000000000000000D2
:1057F00000000000000000000C000C000C000C0079
:105800000C000C0000000000000000000000000080
:105810000000000000000000000000000000000088
:10582000000000000000000200038001C000C00072
:105830006000600030003000300030003000300088
:105840003000300060006000C000C0008001000334
:1058500000020000000020006000C0008001800104
:10586000000300030006000600060006000600060E
:10587000000600060003000380018001C0006000F4
:1058800020000000000000000000000000000000F8
:10589000C000C000D806F807E00130033807000058
:1058A00000000000000000000000000000000000F8
:1058B00000000000000000000000000000000000E8
:1058C00080018001800180018001FC3FFC3F80015C
:1058D00080018001800180010000000000000000C4
:1058E00000000000000000000000000000000000B8
:1058F00000000000000000000000000000000000A8
:105900000000000000008001800100010001800013
:105910000000000000000000000000000000000087
:10592000000000000000000000000000E007E007A9
:105930000000000000000000000000000000000067
:105940000000000000000000000000000000000057
:105950000000000000000000000000000000000047
:10596000000000000000C000C000000000000000B7
:10597000000000000000000C000C000600060006FD
:105980000003000300038003800180018001C00048
:10599000C000C000600060000000000000000000C7
:1059A000000000000000E003F007380E180C0C188F
:1059B0000C180C180C180C180C180C180C180C18C7
:1059C000180C380EF007E003000000000000000093
:1059D00000000000000000018001C001F0019801FA
:1059E00088018001800180018001800180018001A7
:1059F00080018001800180010000000000000000A3
:105A0000000000000000E003F80F180C0C180C1840
:105A100000180018000C000600038001C0006000A0
:105A200030001800FC1FFC1F0000000000000000F8
:105A3000000000000000E001F807180E0C0C0C0C30
:105A4000000C0006C003C007000C001800180C185A
:105A50000C18180CF807E00300000000000000001C
:105A6000000000000000000C000E000F000F800D71
:105A7000C00C600C600C300C180C0C0CFC3FFC3F94
:105A8000000C000C000C000C0000000000000000E6
:105A9000000000000000F80FF80F180018000C00BC
:105AA000EC03FC071C0E001C0018001800180C1852
:105AB0001C0C180EF807E0030000000000000000B6
:105AC000000000000000C007F00F381C1818180074
:105AD0000C00CC03EC0F3C0E1C1C0C180C180C1802
