:020000040800F2
:1000000050280020ED010008C9260008CB26000872
:10001000CF260008D3260008D726000800000000DD
:10002000000000000000000000000000DD260008C5
:10003000DB26000800000000DF260008E12600089B
:1000400007020008070200080702000863260008EC
:10005000070200080702000807020008070200085C
:10006000070200080702000807020008070200084C
:10007000070200080702000807020008070200083C
:10008000070200080702000807020008070200082C
:10009000070200080702000807020008070200081C
:1000A000070200080702000807020008070200080C
:1000B00007020008152600080702000807020008CA
:1000C00007020008070200080702000807020008EC
:1000D000070200085B420008932600080702000898
:1000E00007020008070200080702000800F002F8F3
:1000F00000F06DF80AA090E8000C82448344AAF155
:100100000107DA4501D100F062F8AFF2090EBAE852
:100110000F0013F0010F18BFFB1A43F0010318473B
:10012000C0770000E07700000A444FF0000C10F8A0
:10013000013B13F0070408BF10F8014B1D1108BF65
:1001400010F8015B641E05D010F8016B641E01F805
:10015000016BF9D113F0080F1EBF10F8014BAD1C55
:100160000C1B09D16D1E58BF01F801CBFAD505E073
:1001700014F8016B01F8016B6D1EF9D59142D6D3CD
:10018000704700000023002400250026103A28BFF5
:1001900078C1FBD8520728BF30C148BF0B607047F9
:1001A000662905F04687642904F0DC80632904F0A1
:1001B0004284002070471FB504F04AFC0400002070
:1001C000002105F085F9E0601FBD10B510BD04F0F9
:1001D0003BFD1146FFF7EFFF02F0ACF904F059FDCB
:1001E00003B4FFF7F2FF03BC03F0DCFF09488047CC
:1001F00009480047FEE7FEE7FEE7FEE7FEE7FEE709
:10020000FEE7FEE7FEE7FEE704480549054A064B20
:10021000704700000B030008ED000008502200208A
:100220005028002050240020502400200CB500202D
:10023000019000906C48006840F480306A49086082
:1002400000BF6948006800F4003000900198401C2D
:100250000190009818B90198B0F5A06FF1D16248EB
:10026000006800F4003010B10120009001E000208F
:1002700000900098012843D15C48006840F01000CD
:100280005A4908600846006820F0030008600846E4
:10029000006840F0020008605348406852494860D6
:1002A0000846406848600846406840F480604860FE
:1002B0000846406820F47C1048600846406840F4D6
:1002C000E81048600846006840F08070086000BF91
:1002D0004548006800F000700028F9D042484068A6
:1002E00020F00300404948600846406840F00200A2
:1002F000486000BF3C48406800F00C000828F9D175
:100300000CBD10B5FFF792FF10BD10B53648006860
:1003100040F001003449086008464068344908400C
:100320003149486008460068324908402E49086053
:100330000846006820F4802008600846406820F4E1
:10034000FE0048604FF41F008860FFF7DAFF4FF0AF
:1003500000602949086010BD10B50021002000226E
:10036000214B5B6803F00C0121B1042906D0082958
:1003700028D107E0214B224C236027E01F4B204C63
:10038000236023E0184B5B6803F47010164B5B6826
:1003900003F48032022303EB904022B9194B43430C
:1003A000174C23600DE0104B5B6803F4003323B15E
:1003B000144B4343124C236003E0104B4343104C57
:1003C000236003E00D4B0E4C236000BF00BF064BC3
:1003D0005B68C3F303130C4CE15C094B1B68CB4017
:1003E000074C236010BD00000010024000200240B6
:1003F0000000FFF8FFFFF6FE08ED00E000127A00B3
:100400000000002000093D000400002010B5044653
:10041000CC48844208D10121042000F02DFB0021AA
:10042000042000F029FB46E0C748844208D101219E
:10043000082000F021FB0021082000F01DFB3AE01D
:10044000C248844208D10121102000F015FB002190
:10045000102000F011FB2EE0BD48844208D101219C
:10046000202000F009FB0021202000F005FB22E005
:10047000B848844208D10121402000F0FDFA002153
:10048000402000F0F9FA16E0B348844208D1012177
:10049000802000F0F1FA0021802000F0EDFA0AE05F
:1004A000AE48844207D10121801500F0E5FA002111
:1004B000A01500F0E1FA10BD10B50121084600F0CA
:1004C000DBFA0021012000F0D7FA10BD2DE9F04140
:1004D000024600250026002000230024002791F872
:1004E00003C00CF00F0591F803C00CF0100CBCF128
:1004F000000F03D091F802C04CEA050591F800C046
:10050000BCF1000F31D0146800202BE04FF0010C3B
:100510000CFA00F3B1F800C00CEA03069E4220D1A9
:1005200083004FF00F0C0CFA03F7BC4305FA03FCF1
:100530004CEA040491F803C0BCF1280F06D14FF037
:10054000010C0CFA00FCC2F814C00AE091F803C0D8
:10055000BCF1480F05D14FF0010C0CFA00FCC2F8B9
:1005600010C0401C0828D1D31460B1F800C0BCF101
:10057000FF0F34DD546800202EE000F1080C4FF02E
:10058000010808FA0CF3B1F800C00CEA03069E4219
:1005900021D183004FF00F0C0CFA03F7BC4305FA8E
:1005A00003FC4CEA040491F803C0BCF1280F05D108
:1005B00000F1080C08FA0CF8C2F8148091F803C096
:1005C000BCF1480F07D100F1080C4FF0010808FA00
:1005D0000CF8C2F81080401C0828CED35460BDE847
:1005E000F0814FF6FF710180022181700421C170FA
:1005F00070470246002093680B400BB1012000E0D9
:10060000002070470146886880B27047024600208B
:10061000D3680B400BB1012000E000207047014679
:10062000C86880B2704701617047416170470AB184
:10063000016100E041617047C16070474FF4803252
:100640000A438261816182618269826970470246E0
:100650000020434B18684FF68073184040EA0210A0
:1006600008433F4B186070473E49C8617047F0B57A
:100670000A46002300240021002500F00046B6F1C0
:10068000004F02D1364EF16901E0354E7168C0F37A
:10069000034583B200F44016B6F5401F08D121F09F
:1006A00070612F4E766826F070662D4F7E6012E0E6
:1006B00000F48016B6F5801F06D1032606FA05F46D
:1006C000A14341F0706106E0460D360103FA06F6DB
:1006D000B14341F0706122B1460D360103FA06F6CE
:1006E000314300F00046B6F1004F02D11C4EF161DB
:1006F00001E01B4E7160F0BD30B500228B071C0F6E
:100700000F2303FA04F2164B08338C1053F82430ED
:100710009343134C08348D1044F8253023468C1035
:1007200053F824308C07240F00FA04F423430C4CB4
:1007300008348D1044F8253030BD0A49DC3108609A
:100740007047000000080140000C0140001001400B
:100750000014014000180140001C0140002001402D
:100760000000014000002042DF48006840F0010026
:10077000DD49086008464068DC490840DA494860BD
:1007800008460068DA490840D7490860084600680A
:1007900020F4802008600846406820F4FE0048608D
:1007A0004FF41F0088607047CF49096821F48031F9
:1007B000CD4A11601146096821F480211160B0F51D
:1007C000803F03D0B0F5802F0ED106E0C6490968FE
:1007D00041F48031C44A116007E0C349096841F41B
:1007E000A021C14A116000E000BF00BF704710B5F2
:1007F00001460022002300204A11012A02D1BA4CEE
:10080000236806E0022A02D1B74C236A01E0B64C05
:10081000636A01F01F02012494401C400CB10120C6
:1008200000E0002010BD38B5002000900024002515
:1008300000BF3120FFF7DBFF05460098401C009009
:100840000098B0F5A06F01D0002DF2D03120FFF755
:10085000CEFF08B1012400E00024204638BD014647
:100860000020A14A106820F0F80040EAC1001060A2
:100870007047A04908607047024600209A4B5868AC
:1008800020F47C1042EA01031843974B58607047EC
:1008900098490866704701460020934A506820F046
:1008A00003000843506070478F48406800F00C0018
:1008B0007047014600208C4A506820F0F000084341
:1008C0005060704701460020874A506820F4E0607D
:1008D00008435060704701460020834A506820F466
:1008E000605040EAC1005060704729B17E4A527A98
:1008F00002437D4B5A7204E07B4A527A82437A4B20
:100900005A7270477B49D831086070470146002011
:10091000754A506820F440400843506070470021F9
:10092000714A20321170704A82F82010012802D0DA
:1009300004280AD104E001216B4A2032117005E03D
:100940000521694A2032117000E000BF00BF7047E6
:100950006949086070476449096A0143624A116243
:100960007047654944390860704730B5002100225E
:10097000002400235C4D6D6805F00C0121B10429B1
:1009800005D0082923D105E05C4D056022E05B4DD0
:1009900005601FE0544D6D6805F47012524D6D688E
:1009A00005F48034022505EB92421CB9544D5543A1
:1009B00005600BE04C4D6D6805F400351DB1504DE0
:1009C0005543056002E04D4D5543056002E04B4D37
:1009D000056000BF00BF444D6D6805F0F0010909D6
:1009E000484D6B5C0568DD4045603F4D6D6805F422
:1009F000E061090A434D6B5C4568DD4085603A4D16
:100A00006D6805F46051C90A3E4D6B5C4568DD4078
:100A1000C560354D6D6805F44041890B3A4D6B5CFE
:100A2000C568B5FBF3F5056130BD29B12E4A5269A1
:100A300002432D4B5A6104E02B4A526982432A4BF0
:100A40005A61704729B1284A92690243264B9A613C
:100A500004E0254A92698243234B9A61704729B189
:100A6000214AD2690243204BDA6104E01E4AD2696E
:100A700082431D4BDA61704729B11B4AD268024399
:100A8000194BDA6004E0184AD2688243164BDA60E8
:100A9000704729B1144A12690243134B1A6104E0EA
:100AA000114A12698243104B1A617047124940394A
:100AB000086070470F49C86470470B49C871704798
:100AC0000948406A40F08070074948627047014613
:100AD0000020054A92680A400AB1012000E0002087
:100AE0007047014988727047001002400000FFF80B
:100AF000FFFFF6FE000042428004424200127A00EC
:100B000000093D0014000020240000203149014369
:100B1000314A1160704770B5002100230F22C4785C
:100B200004B32D4C246804F4E064C4F5E064210AA5
:100B3000C1F10403CA40447804FA03F184781440F4
:100B400021430901254C0678A155047804F01F05BE
:100B50000124AC4005786D11AD0005F1E025C5F824
:100B6000004109E0047804F01F050124AC401C4D4D
:100B70000678761145F8264070BD1A4A0A400243AD
:100B8000154B1B1F1A60704739B1134A121D1268AA
:100B90000243114B1B1D1A6006E00F4A121D12681A
:100BA00082430D4B1B1D1A607047042808D14FF07B
:100BB000E021096941F004014FF0E022116107E0F2
:100BC0004FF0E021096921F004014FF0E0221161AA
:100BD000704700000000FA050CED00E000E400E0C2
:100BE00080E100E080FFFF1F10B50446FA48844210
:100BF00008D101214015FFF73FFF00216015FFF7E5
:100C00003BFF17E0F548844208D101210015FFF7AA
:100C100033FF00212015FFF72FFF0BE0F04884423F
:100C200008D10121C803FFF727FF00214FF400403E
:100C3000FFF722FF10BD30B50246002000235068A8
:100C4000E84C20400D790C6844EA052420435060AC
:100C50009068E54C2040D1E902542C434D7944EA98
:100C6000450420439060D06A20F470000C7C641E20
:100C7000E4B2234340EA0350D06230BD002101605A
:100C8000017141718160C16001210174704721B11E
:100C9000826842F00102826003E0826822F0010271
:100CA0008260704721B1826842F48072826003E002
:100CB000826822F480728260704710B50023CBB244
:100CC0001AB144681C43446002E044689C43446099
:100CD00010BD816841F00801816070470146002025
:100CE0008A6802F008020AB1012000E00020704783
:100CF000816841F0040181607047014600208A68E4
:100D000002F004020AB1012000E00020704721B186
:100D1000826842F4A002826003E0826822F4A002AA
:100D200082607047014600208A6802F480020AB19E
:100D3000012000E00020704710B50A460021002382
:100D4000416821F46041531E41EA4331416010BDC6
:100D500021B1426842F40062426003E0426822F43A
:100D6000006242607047F0B504460D460020002145
:100D7000092D11DDE068A5F10A0606EB46070726F6
:100D800006FA07F18843A5F10A0606EB460603FAC0
:100D900006F10843E0600CE0206905EB45070726F3
:100DA00006FA07F1884305EB450603FA06F1084306
:100DB0002061072A0FDA606B561E06EB86071F2696
:100DC00006FA07F18843561E06EB860605FA06F179
:100DD0000843606322E00D2A0FDA206BD61F06EB72
:100DE00086071F2606FA07F18843D61F06EB8606FC
:100DF00005FA06F10843206310E0E06AA2F10D064F
:100E000006EB86071F2606FA07F18843A2F10D06B6
:100E100006EB860605FA06F10843E062F0BD21B153
:100E2000826842F48012826003E0826822F48012B9
:100E3000826070470146C86C80B2704766484C308B
:100E40000068704721B1426842F48062426003E06A
:100E5000426822F480624260704721B1426842F4E5
:100E60008052426003E0426822F480524260704740
:100E70000A460021816821F4E041114381607047F6
:100E800021B1826842F40042826003E0826822F469
:100E900000428260704721B1826842F4021282608F
:100EA00003E0826822F4021282607047014600204B
:100EB0008A6802F400120AB1012000E000207047A5
:100EC000F0B504461546002000220026092911DD50
:100ED000E068A1F10A0707EB470C072707FA0CF2B5
:100EE0009043A1F10A0707EB470703FA07F2104303
:100EF000E0600CE0206901EB410C072707FA0CF2D7
:100F0000904301EB410703FA07F210432061A06B05
:100F1000C0F30156EF1C06F1010CA7EB0C0707EB21
:100F2000870C1F2707FA0CF29043EF1C06F1010C07
:100F3000A7EB0C0707EB870701FA07F21043A06342
:100F4000F0BD10B50A4600210023816B21F4401149
:100F5000531E41EA0351816310BD08B5002300937D
:100F60000090009B0B440093009B1A6008BD08B5DD
:100F7000024600200090009201F12800009B1844D6
:100F800000900098006880B208BD0A4600214168C0
:100F9000164B1940114341607047416282627047AD
:100FA0000A460021416821F01F011143416070474A
:100FB00040B109490831096841F40001064A083284
:100FC000116007E004490831096821F40001024A70
:100FD00008321160704700000024014000280140E1
:100FE000003C0140FFFEF0FFFDF7F1FFFFFD3FFF7A
:100FF0000246002013680B400BB1012000E00020E6
:101000007047CA430260704770B502460020002353
:1010100000240B125568CEB205EA060415681D407F
:1010200015B10CB1012000E0002070BD00220A12B1
:10103000D34303607047000010B50120FFF736FD71
:101040000020FFF733FD10BD2A4908607047294989
:10105000091F0860704727498431086070470146BE
:101060000020254A10884FF67F4210400843224A4C
:1010700010807047014600201F4A10884FF680728A
:10108000104008431C4A1080704708B500220092A7
:10109000194A2C3A0092009A02440092009A116078
:1010A00008BD08B501460020009013482C38009078
:1010B0000098084400900098008808BD0D489C30B6
:1010C0000068C0B270470C480830008840F001004A
:1010D00009490831088070470648A0300068C0B24E
:1010E000704705480830008840F002000249083186
:1010F0000880704704860D422C6C004010B5012119
:101100000807FFF7C6FC00214FF08050FFF7C1FC35
:1011100010BD2A4908627047284908617047014696
:101120000020274A106820F0E00008431060704754
:101130002249A0310860704710B502460020204BBC
:10114000186820F00300104318601E4B1B6843F022
:1011500004031C4C2360012901D130BF00E020BFF3
:10116000184B1B6823F00403164C236010BD144871
:10117000006840F00400124908600846006840F02A
:10118000020008600F48006840F004000D49086044
:1011900000BF00BF30BF704701460020084A5268B8
:1011A0000A400AB1012000E00020704704490968A4
:1011B00041EA8001024A11607047000000000E42BF
:1011C0000070004010ED00E029B1504A128802433F
:1011D0004E4B1A8004E04D4A128882434B4B1A80D2
:1011E00070474A48001D008840F010004749091D1B
:1011F000088070474548001D00884FF6EF71084091
:101200004249091D08807047002140481C30018870
:10121000001F008841EA0040704700B50246FFF712
:10122000E0FF100C394918310880091D0A80FFF7CA
:10123000E1FF00BD00B50246FFF7D3FFC2F3034054
:10124000324908310880091D0A80FFF7D3FF00BD2D
:1012500000B50246FFF7C5FF100C2C49203108806D
:10126000091D0A80FFF7C6FF00BD00202749103185
:1012700009880907080B2549143109880843704774
:1012800000BF2248001D008800F020000028F8D090
:1012900070471E48001D00884FF6F77108401B4933
:1012A000091D088000BF1948001D008800F00800D3
:1012B0000028F8D0704701460020144A121D1288F9
:1012C0000A400AB1012000E0002070470F49091DC3
:1012D000098881430D4A121D118070470146002084
:1012E0000A4A121D12880A40D0B2084A12880A40DF
:1012F00012B108B1012000E0002070470349091D28
:1013000009888143014A121D11807047002800405E
:1013100010B50446FE48844208D10121C014FFF7ED
:10132000ABFB0021E014FFF7A7FBC4E0B4F1804F52
:1013300008D101210846FFF7ACFB00210120FFF78F
:10134000A8FBB8E0F348844208D101210220FFF74E
:10135000A0FB00210220FFF79CFBACE0EE4884429A
:1013600008D101210420FFF794FB00210420FFF79E
:1013700090FBA0E0E948844208D101210820FFF752
:1013800088FB00210820FFF784FB94E0E4488442B6
:1013900008D101211020FFF77CFB00211020FFF76E
:1013A00078FB88E0DF48844208D101212020FFF744
:1013B00070FB00212020FFF76CFB7CE0DA488442C0
:1013C00008D101214014FFF757FB00216014FFF7FB
:1013D00053FB70E0D548844209D10121C804FFF7CE
:1013E0004BFB00214FF40020FFF746FB63E0D048A1
:1013F000844209D101210805FFF73EFB00214FF48B
:101400008010FFF739FB56E0CA48844209D1012118
:101410004805FFF731FB00214FF40010FFF72CFBCC
:1014200049E0C548844208D101214020FFF731FB43
:1014300000214020FFF72DFB3DE0C048844208D149
:1014400001218020FFF725FB00218020FFF721FBF1
:1014500031E0BB48844208D101218015FFF719FB18
:101460000021A015FFF715FB25E0B648844209D1FD
:1014700001210804FFF700FB00214FF48030FFF743
:10148000FBFA18E0B048844209D101214804FFF773
:10149000F3FA00214FF40030FFF7EEFA0BE0AB480F
:1014A000844208D101218804FFF7E6FA00214FF4B5
:1014B0008020FFF7E1FA10BD00220288944B984289
:1014C0000ED0994B98420BD0B0F1804F08D0914B81
:1014D000984205D0904B984202D0904B984204D14C
:1014E0004FF68F731A404B881A438D4B984207D0A2
:1014F0008C4B984204D04FF6FF431A40CB881A43D6
:1015000002808B8883850B880385814B98420BD0A2
:10151000854B984208D08B4B984205D08A4B984215
:1015200002D08A4B984201D10B7A03860123838231
:10153000704770B5002400220023058C4FF6FE761C
:1015400035400584028C8388048B4FF68F752C40C0
:10155000B51E2C400D882C43751E2A400D892A4348
:101560004D882A436A4DA8420BD06F4DA84208D03F
:10157000744DA84205D0744DA84202D0734DA842C4
:1015800013D14FF6F7752A404D892A434FF6FB7564
:101590002A408D882A434FF6FF652B404FF6FF55B2
:1015A0002B408D892B43CD892B4383800483CD88A9
:1015B0008586028470BD70B5002400220023058C4E
:1015C0004FF6EF7635400584028C8388048B48F60D
:1015D000FF752C404FF6FF452C400D884FF6FF76E7
:1015E00006EA05252C434FF6DF752A400D8906EAE9
:1015F00005152A434D8806EA05152A43444DA8429D
:1016000002D0494DA8421DD14FF67F752A404D8921
:101610004FF6FF7606EA05152A434FF6BF752A40B6
:101620008D8806EA05152A434FF6FF352B404FF209
:10163000FF752B408D8906EA85052B43CD8906EA87
:1016400085052B4383800483CD880587028470BD84
:1016500070B5002400220023058C4FF6FF6635404C
:101660000584028C8388848B4FF68F752C404FF64F
:10167000FC752C400D882C434FF6FF552A400D89F0
:101680004FF6FF7606EA05252A434D8806EA05252A
:101690002A431F4DA84202D0234DA8421DD14FF22C
:1016A000FF752A404D894FF6FF7606EA05252A4345
:1016B0004FF6FF352A408D8806EA05252A434EF667
:1016C000FF752B404DF6FF752B408D8906EA0515F9
:1016D0002B43CD8906EA05152B4383808483CD886F
:1016E0008587028470BD70B5002200230024058C1C
:1016F0004EF6FF7635400584038C8488828B48F64D
:10170000FF752A404FF6FF452A400D8820E0000073
:10171000002C01400004004000080040000C004084
:10172000001000400014004000340140004C014013
:10173000005001400054014000180040001C0040CF
:1017400000200040004001400044014000480140AA
:101750004FF6FF7606EA05252A434DF6FF752B4026
:101760000D8906EA05352B434D8806EA05352B43DE
:10177000FA4DA84202D0FA4DA84208D14BF6FF75A7
:101780002C408D894FF6FF7606EA85152C43848020
:101790008283CD88A0F84050038470BD828B4FF2C5
:1017A000FF331A408283828B4FF6FF7303EA0123D3
:1017B0001A4382837047F0B50C461546002200217B
:1017C0000026078C4EF6FF7C07EA0C070784828B05
:1017D000018C4FF6FF7707EA043640F6FF473A40A0
:1017E0004FF6FF7707EA05273A434FF6FF7707EAF8
:1017F00003373A43D94FB8420ED0D94FB8420BD035
:10180000B0F1804F08D0D74FB84205D0D64FB8427C
:1018100002D0D64FB84206D14DF6FF77394046F494
:101820008057394305E047F6FF57394044F4805765
:10183000394382830184F0BD828B4FF6F3731A40E3
:101840008283828B0A4382837047F0B50C4615462B
:10185000002200210026078C4FF6FF6C07EA0C07D8
:101860000784828B018C4FF6FF7707EA04264FF638
:101870000C773A404FF6FF7707EA03172F433A43B6
:10188000B64FB8420ED0B64FB8420BD0B0F1804F31
:1018900008D0B44FB84205D0B34FB84202D0B34FCE
:1018A000B84206D14FF6FF57394046F480773943A6
:1018B00005E04FF2FF57394044F480773943828383
:1018C0000184F0BD028B4FF2FF331A400283028B7A
:1018D0004FF6FF7303EA01231A4302837047F0B502
:1018E0000C461546002200210026078C4FF6EF7C9F
:1018F00007EA0C070784028B018C4FF6FF7707EA93
:10190000041640F6FF473A404FF6FF7707EA0337E1
:101910003A434FF6FF7707EA05273A438F4FB8421D
:101920000ED08F4FB8420BD0B0F1804F08D08D4F02
:10193000B84205D08C4FB84202D08C4FB84206D185
:101940004FF6DF77394046F01007394305E04FF690
:101950005F77394044F01007394302830184F0BDBA
:10196000028B4FF6F3731A400283028B0A43028301
:101970007047F0B50C46154600220021068C4FF644
:10198000FE773E400684028B018C4FF60C76324087
:101990007E1C06EA03162E433243704EB0420ED030
:1019A0006F4EB0420BD0B0F1804F08D06D4EB042B8
:1019B00005D06D4EB04202D06C4EB04206D14FF60B
:1019C000FD76314044F00106314305E04FF6F576EF
:1019D000314044F00106314302830184F0BD70B50B
:1019E00005460C465D4885420ED05D4885420BD0C9
:1019F000B5F1804F08D05B48854205D05A488542F2
:101A000002D05A48854200D100E000BF208850B97A
:101A10002389A28861882846FFF7ABFFE188284622
:101A2000FFF79EFF25E0208804280AD12389A28899
:101A300061882846FFF753FFE1882846FFF742FFF9
:101A400017E0208808280AD12389A28861882846BF
:101A5000FFF7FBFEE1882846FFF7EEFE09E0238949
:101A6000A28861882846FFF7A6FEE1882846FFF78E
:101A700095FE70BD2DE9F04105460C460026012774
:101A8000608808B9022600E00026A088012801D15C
:101A9000022700E001272088A0B92389A288618855
:101AA0002846FFF766FFE1882846FFF759FF23899C
:101AB0003A4631462846FFF712FFE1882846FFF7ED
:101AC00001FF13E02389A28861882846FFF707FFFA
:101AD000E1882846FFF7F6FE23893A463146284634
:101AE000FFF747FFE1882846FFF73AFFBDE8F0819E
:101AF0000A884B881A438B881A43CB881A430B8970
:101B00001A434B891A438B891A43A0F84420704723
:101B10004FF6FF71818000210180C18041800172F8
:101B200070470021018041808180C1800181418115
:101B30008181C18170470021018041800121818024
:101B40000021C18001817047002101804180818096
:101B5000C18001814181818170470000002C0140DA
:101B6000003401400004004000080040000C004028
:101B700021B1028842F00102028004E002884FF69F
:101B8000FE731A400280704731B1B0F8442042F42D
:101B90000042A0F8442005E0B0F84420C2F30E0251
:101BA000A0F8442070471AB183890B43838102E077
:101BB00083898B43838170478182704741EA0203A6
:101BC000A0F8483070471AB183890B43838102E043
:101BD00083898B438381704701894FF6F8721140E6
:101BE000018170470A46002101894FF68F73194021
:101BF00011430181704730B504460D462946204601
:101C0000FFF7F0FF208940F00700208130BD2DE96B
:101C1000F04104460D4616461F46602D06D13B4650
:101C2000012231462046FFF75AFE05E03B460122DD
:101C300031462046FFF79DFE29462046FFF7D2FF9A
:101C4000208940F007002081BDE8F08130B50C46C6
:101C500000210189C9B24FF6FF7505EA0325154336
:101C600025432943018130BD2DE9F04105460E464B
:101C700017469846002443463A4631462846FFF721
:101C8000E5FF2C894FF6F870044044F007044FF646
:101C90008F70044044F070042C81BDE8F081F0B5F1
:101CA00004460D4616461F463B4632462946204608
:101CB000FFF7CCFF208940F480402081F0BD0185F2
:101CC000828270470A46002101884FF68F731940BF
:101CD000114301807047F0B50C4615461E460021A1
:101CE000002200230189028B038C4FF6F8773940DC
:101CF00021434FF6FC473A4040F201173A434FF672
:101D0000DD773B404FF6FF7707EA06172F433B434B
:101D1000018102830384F0BD0A460021018B4FF646
:101D20008F7319401143018370470A460021018BCC
:101D300048F6FF7319404FF6FF7303EA0223194375
:101D4000018370470A460021818B4FF68F7319403B
:101D50001143818370470A460021818B48F6FF7347
:101D600019404FF6FF7303EA02231943818370473A
:101D700021B1028842F08002028004E002884FF61E
:101D80007F731A400280704721B1828842F00402BA
:101D9000828004E082884FF6FB731A40828070478D
:101DA00021B1828842F00802828004E082884FF6E6
:101DB000F7731A408280704721B1828842F0010295
:101DC000828004E082884FF6FE731A40828070475A
:101DD0000A460021018B4FF6F77319401143018326
:101DE00070470A460021018B4FF2FF7319404FF6EE
:101DF000FF7303EA02231943018370470A46002157
:101E0000818B4FF6F77319401143818370470A465F
:101E10000021818B4FF2FF7319404FF6FF7303EAE5
:101E200002231943818370470A460021018B4FF634
:101E3000FB7319401143018370470A460021018B4F
:101E40004FF6FF3319404FF6FF7303EA022319439D
:101E5000018370470A460021818B4FF6FB731940BE
:101E60001143818370470A460021818B4FF6FF336F
:101E700019404FF6FF7303EA022319438183704729
:101E80000A460021018B4FF67F73194011430183ED
:101E900070470A460021018BC1F30E014FF6FF7314
:101EA00003EA02231943018370470A460021818B0C
:101EB0004FF67F7319401143818370470A46002112
:101EC000818BC1F30E014FF6FF7303EA022319431E
:101ED000818370470A460021018C4FF6FD7319403B
:101EE0001143018470470A460021018C4FF6F773B5
:101EF00019401143018470470A460021018C4FF6B6
:101F0000DF7319404FF6FF7303EA0213194301848C
:101F100070470A460021018C4FF67F7319404FF637
:101F2000FF7303EA02131943018470470A46002134
:101F3000018C4FF6FF5319404FF6FF7303EA02235B
:101F40001943018470470A460021018C4FF2FF7348
:101F500019404FF6FF7303EA0223194301847047C7
:101F60000A460021018C4DF6FF7319404FF6FF73AE
:101F700003EA023319430184704730B5002301247A
:101F80008C40A3B2048C9C430484048C02FA01F5B7
:101F9000ADB22C43048430BD30B5002304248C4002
:101FA000A3B2048C9C430484048C02FA01F5ADB204
:101FB0002C43048430BD70B503460020002418462D
:101FC000183001258D40ACB21D8CA5431D8409B18C
:101FD000082909D100EB6100056825F0700505604E
:101FE0000568154305600EE00D1FC5F34E05284436
:101FF000056825F4E045056005684FF6FF7606EABA
:1020000002263543056070BD21B1028842F002020C
:10201000028004E002884FF6FD731A400280704788
:1020200021B1028842F00402028004E002884FF6E7
:10203000FB731A400280704721B1828842F080020F
:10204000828004E082884FF67F731A408280704756
:1020500002884FF6F7731A40028002880A43028012
:10206000704782884FF68F731A40828082880A43B5
:102070008280704702894FF6F8731A400281028904
:102080000A430281704702894FF67F731A4002812A
:1020900002890A43028170478184704781857047B5
:1020A000818670470187704781877047A0F840108C
:1020B000704702884FF6FF431A40028002880A43A5
:1020C000028070470146888E70470146088F70472E
:1020D0000146888F70470146B1F8400070470146BD
:1020E000888C70470146088D704702460020138A8D
:1020F0000B400BB1012000E000207047CA43028270
:10210000704730B50246002000230024158A05EAF6
:102110000103958905EA010413B10CB1012000E027
:10212000002030BDCA4302827047000010B504464B
:10213000FB48844209D101218803FEF79DFC002160
:102140004FF48040FEF798FC32E0F648844209D113
:1021500001214804FEF79DFC00214FF40030FEF7FA
:1021600098FC25E0F048844209D101218804FEF75B
:1021700090FC00214FF48020FEF78BFC18E0EB4828
:10218000844209D10121C804FEF783FC00214FF4E9
:102190000020FEF77EFC0BE0E548844208D10121D7
:1021A0000805FEF776FC00214FF48010FEF771FC65
:1021B00010BD2DE9F04786B005460E460024A24624
:1021C00000BFA1460027B08900B100BF2F462C8A6E
:1021D0004CF6FF700440F08804432C82AC894EF624
:1021E000F3100440B08831890843718908430443DF
:1021F000AC81AC8A4FF6FF400440B0890443AC8206
:1022000001A8FEF7B2FBC648874202D1DDF810A054
:1022100001E0DDF80CA0A88900F4004040B10AEB11
:10222000CA0000EB0A1031684900B0FBF1F807E082
:102230000AEBCA0000EB0A1031688900B0FBF1F824
:102240006420B8FBF0F004012009642101FB10892F
:10225000A88900F4004040B1322000EBC900B0FB77
:10226000F1F000F00700044308E0322000EB091011
:102270006421B0FBF1F000F00F0004432C8106B0A4
:10228000BDE8F0874FF41651016000218180C180C4
:1022900001810C21418100218181704710B50246E6
:1022A0000020108A4FF2FF0318400B884C8823430C
:1022B0008C882343CC8823431843108210BD00210F
:1022C000018041808180C180704721B1828942F4C0
:1022D0000052828104E082894DF6FF731A408281A8
:1022E0007047F0B50346002400260025002040F684
:1022F0006A17B94200D100BF1846C1F3421401F079
:102300001F06012707FA06F5012C01D10C3004E065
:10231000022C01D1103000E014301AB107682F43AD
:10232000076002E00768AF430760F0BD1AB1838A17
:102330000B43838202E0838A8B4383827047028A45
:102340004FF6F0731A400282028A0A4302827047F3
:1023500082894FF2FF731A40828182890A43828107
:10236000704721B1828942F00202828104E08289B1
:102370004FF6FD731A4082817047028A4FF6DF7371
:102380001A400282028A0A430282704721B1028AFD
:1023900042F48042028204E0028A4BF6FF731A4044
:1023A00002827047C1F30802828070470146888824
:1023B000C0F308007047818941F0010181817047B5
:1023C000028BD2B20283028B42EA0122028370475F
:1023D000028B02F47F420283028B0A43028370471E
:1023E00021B1828A42F02002828204E0828A4FF682
:1023F000DF731A408282704721B1828A42F0100254
:10240000828204E0828A4FF6EF731A40828270471C
:1024100021B1828A42F00802828204E0828A4FF669
:10242000F7731A408282704721B1828942F40042D8
:10243000828103E08289C2F30E028281704721B15A
:10244000828A42F40062828204E0828A4FF2FF7341
:102450001A4082827047828A4FF6FB731A4082824A
:10246000828A0A438282704721B1828A42F0020244
:10247000828204E0828A4FF6FD731A40828270479E
:1024800002460020B1F5007F00D100BF13880B4049
:102490000BB1012000E00020704701F40072B2F59A
:1024A000007F00D100BFCA430280704770B502466A
:1024B000002400230025002040F66A16B14200D116
:1024C00000BFC1F3421501F01F03012606FA03F312
:1024D000012D02D19689334006E0022D02D1168AE1
:1024E000334001E0968A33400C12012606FA04F4C8
:1024F0001688344013B10CB1012000E0002070BDFB
:1025000010B50022002340F66A14A14200D100BF9A
:102510000A1201249440A3B2DC43048010BD0000E1
:10252000003801400044004000480040004C00409A
:1025300000500040314800684FF47A72B0FBF2F16D
:10254000481EB0F1807F00D31BE0481E4FF0E02210
:10255000506150170F22002807DA13071D0E284B71
:1025600000F00F04241F1D5503E013071C0E254B1C
:102570001C5400BF00204FF0E02290610720106142
:1025800000BF01F09FFD01F007FE01F07EFA002080
:1025900000F021FF002000F02CFF00F05CFF042180
:1025A0001948FEF742F801F041FB01F09FFB01F0F2
:1025B00068FC1648006801F01BFC01F075FC01F096
:1025C000DCFC01F024FD00F045FE00F03DFC01F0D4
:1025D00048FB0021481E01F063FB05E000F0ADFB65
:1025E00000F0CDFB00F054FCF8E70949086000BF9B
:1025F000074909680029FBD170470000000000204E
:1026000018ED00E000E400E0001401402800002084
:102610002C00002010B504213248FFF783FD31481B
:10262000FFF753FD304908600846006898B12D480F
:10263000FFF748FD642148432B49096890FBF1F0FE
:102640002A4908602A48006827490968B0FBF1F068
:102650002849086004E000202449086025490860F2
:1026600010BD10B50120FEF739FE88B10120FEF73C
:1026700045FE012020490860FEF702FEFEF7C4FD7A
:102680001E49884204D10020FEF7C7FDFEF7F8FD81
:1026900010BD10B540F225511948FFF707FF90B162
:1026A00040F225511648FFF72BFF1548FFF77EFE35
:1026B00014490870012014490870002240F2255185
:1026C0000F48FFF70EFE10BD704700BFFEE700BFCA
:1026D000FEE700BFFEE700BFFEE7704770477047A8
:1026E000704700000004004030000020340000204B
:1026F0000000002038000020B014002080510100AC
:1027000000440040400000203C00002010B5FEF7CF
:102710007BFDF6490968401AF5490968884234D1B9
:10272000FEF772FDF1490860F2480068401CF1496B
:102730000860F1480068096801EB8101EF4A02EB8B
:1027400081014860EE480068EA49096801EB8101AF
:1027500042F82100EB480068E649096801EB810175
:1027600002EB81018860E8480068E249096801EBF2
:10277000810102EB8101C860E4480068DD49096815
:1027800001EB810102EB8101086110BD10B5DC484D
:102790000068DF49096888420FDDDC48007800F0F6
:1027A000010020B10121480201F07AFA0AE000217B
:1027B0004FF4007001F074FA04E000214FF400704F
:1027C00001F06EFACC480068D249096888420FDDF2
:1027D000CE48007800F0010020B10121880201F00C
:1027E0005FFA0AE000214FF4806001F059FA04E03A
:1027F00000214FF4806001F053FA10BD38B5FFF7A7
:10280000C5FFFFF783FFBB480068402802DD0420B6
:10281000B8490860102300221146202001F021F859
:10282000102301220021322001F01BF81023022284
:102830000021442001F015F8102303220021562026
:1028400001F00FF801F096FA054603F073FB044619
:102850002246B1A1B24801F047FD01F08BFA0446CF
:1028600003F068FBA64908600C23AEA20F210020EC
:1028700000F091FF0C23AA4A0F21282000F08BFFC3
:10288000AA480068642190FBF1F09B490860084663
:102890000268521CA6A1A24801F026FD0C23A6A2A4
:1028A0001E21002000F077FF0C239D4A1E212820C6
:1028B00000F071FF8F480068021FA1A1984801F045
:1028C00013FD0C23964A1E214B2000F064FF0C23BD
:1028D0009EA22D21002000F05EFFFEF795FC4FF434
:1028E0006161B0FBF1F087490860FEF78DFC4FF4A1
:1028F0006161B0FBF1F201FB12003C21B0FBF1F091
:1029000081490860FEF780FC4FF46161B0FBF1F291
:1029100001FB12003C21B0FBF1F201FB12007B49EC
:1029200008608C48006850B9FEF76EFC6F4908607B
:102930000120884908608848006801F059FA734806
:1029400000680090704803686E4884A1026874486B
:1029500001F0CAFC0C23724A2D21282000F01BFF35
:1029600000F079FD38BD10B569480178002000F00D
:10297000A2FC022001F0E3FB77480068322190FBC3
:10298000F1F0C4B22146012000F095FC022001F0D4
:10299000D6FB604801781F2000F08DFC022001F07A
:1029A000CEFB534801782F2000F085FC022001F077
:1029B000C6FB10BD10B5FEF727FC4C4908604FF46C
:1029C00080716B48FDF715FE002837D100BF4FF42A
:1029D00080716748FDF70DFE0028F8D06548006853
:1029E0000B306449086008460068342801DD132074
:1029F00008600C2360A213215A2000F0CCFE0C23A7
:102A00005DA21E215A2000F0C6FE0C235AA22921E5
:102A10005A2000F0C0FE0C2357A234215A2000F0A7
:102A2000BAFE3B4856A102683D4801F05DFC5148A2
:102A300001780C233A4A5A2000F0ADFE4D48006858
:102A4000132827D102214F48FDF7D3FD68B900BFF5
:102A500002214C48FDF7CDFD0028F9D02C48006834
:102A6000401C2B490860FFF77EFF04214548FDF715
:102A7000C0FD00280DD100BF04214248FDF7B9FD7B
:102A80000028F9D022480068401E21490860FFF75D
:102A90006AFFDBE0374800681E2876D102213948FA
:102AA000FDF7A7FD68B900BF02213648FDF7A1FD7B
:102AB0000028F9D017480068401D16490860FFF744
:102AC00052FF04212F48FDF794FD00280DD100BFCF
:102AD00004212C48FDF78DFD0028F9D00D48006831
:102AE000401F0C490860FFF73EFFAFE06800002080
:102AF0004C0000205800002054000020D414002076
:102B0000500000205C0000206000002064000020D5
:102B100044000020480000202564274320200000B6
:102B2000C014002074656D703A0000003800002069
:102B3000256425252020000068756D693A00000095
:102B40006E756D3A252E32640000000074696D6563
:102B50003A0000006C0000202800002025302E32B2
:102B6000643A25302E32643A25302E32640000005B
:102B7000000801407000002020202020202020009C
:102B80003C3D0000000C0140FFE7EB4800682928AD
:102B900026D10221E948FDF72CFD68B900BF0221CA
:102BA000E648FDF726FD0028F9D0E5480068401CFE
:102BB000E3490860FFF7D7FE0421E048FDF719FD5F
:102BC000E8BB00BF0421DD48FDF713FD0028F9D064
:102BD000DB480068401EDA490860FFF7C4FE35E0B4
:102BE000D5480068342831D10221D448FDF701FDD1
:102BF00090B900BF0221D148FDF7FBFC0028F9D0B5
:102C0000D048006800F5FA70CE490860FFF7ABFEC7
:102C1000CC48006801F0ECF80421C848FDF7E9FC55
:102C200068B900BF0421C548FDF7E3FC0028F9D0CE
:102C3000C4480068A0F5FA70C249086000E005E0E9
:102C4000FFF791FEBF48006801F0D2F810BD70B5E3
:102C5000102306220021202000F003FE102307226B
:102C60000021322000F0FDFD102308220021442025
:102C700000F0F7FD102309220021562000F0F1FD9D
:102C80000C23AFF260121321002000F084FDAE4847
:102C9000AEA10268AF4801F027FB0C23AD4A132117
:102CA000282000F078FD0C23AFF274121E210020C2
:102CB00000F071FDA848A9A10268A64801F014FB24
:102CC0000C23A44A1E21282000F065FD0C23AFF23E
:102CD00084122921002000F05EFD9948A1A102681C
:102CE0009C4801F001FB0C239A4A2921282000F07E
:102CF00052FD0C239CA23421002000F04CFD914891
:102D0000006803F033F90546994903F051F8044689
:102D1000204603F021F805462A460B4695A18D482A
:102D200001F0E2FA0C238B4A3421282000F033FD15
:102D3000FFF740FE00F08FFB70BD10B501218F48FA
:102D4000FDF757FC68B900BF01218C48FDF751FC25
:102D50000028F9D08A480068401C8949086000F0C2
:102D60009DFB8749086800EBD0714910A0EB410139
:102D700011B9FFF743FD01E0FFF769FF10BD7FB513
:102D80008048007801280ED100207E4908707E48D6
:102D900002787EA16F4801F0A7FA012240F2255186
:102DA0007B48FFF79EFA78480078542814D1794878
:102DB000006879490968794A1268CDE900210290D2
:102DC00065480368604876A10268624801F08CFAA1
:102DD000604801F05EF933E06B48007844282FD159
:102DE000042429E004EB84007C4901EB80000069A5
:102DF00004EB8401794A02EB8101C96804EB840287
:102E0000764B03EB8202926804EB8403734D05EB6F
:102E100083035B68CDE90032CDE9021004EB840046
:102E2000294651F82030E21E6D494A4801F05CFA0B
:102E3000484801F02EF9641C6A4800688442D1DBDE
:102E40000020514908707FBD10B5012000F015FA2F
:102E5000322148433B490860022001F070F900200C
:102E600000F00BFA38490860022001F068F91F20D1
:102E700000F003FA38490860022001F060F92F20C1
:102E800000F0FBF92E490860022001F058F910BD4E
:102E900010B531480068642805DD64202E490860BB
:102EA000FFF761FD08E02C480068002804DA0020E4
:102EB00029490860FFF757FD234800683C2805DDD5
:102EC0003C2021490860FFF74EFD0AE01E480068DB
:102ED00010F1140F05DA6FF013001B490860FFF7BB
:102EE00042FD17480068052805DD052014490860E3
:102EF000FFF739FD08E012480068012804DA0120D4
:102F00000F490860FFF72FFD0E48006842F2283194
:102F1000884205DD08460B490860FFF724FD0AE0FA
:102F200008480068B0F57A7F05DA4FF47A700549F1
:102F30000860FFF718FD10BD70000020000C014074
:102F40004C00002028000020440000202564274376
:102F500000000000C0140020480000202564252542
:102F600000000000256453007369676C3A0000009C
:102F700000007A44252E31664B487A000008014053
:102F8000740000203C000020400000202563000069
:102F90000044004064000020600000205C0000202D
:102FA0000ACEC2B6C8C9CFCFDEA3BA256420A1E637
:102FB0002D2DCAAAB6C8C9CFCFDE256425252D2D53
:102FC000CAB5BCCACAB1BCE43A25302E32643A252F
:102FD000302E32643A25302E32640000D4140020A2
:102FE0009C7800085800002008B58020ADF800004B
:102FF00002208DF8020028208DF803006946B948A8
:10300000FDF764FA08BD08B58020ADF80000022085
:103010008DF8020010208DF803006946B148FDF7D5
:1030200055FA08BD10B5044624B18021AD48FDF71E
:10303000FAFA03E08021AB48FDF7F7FA10BD10B5AE
:10304000044624B14021A748FDF7EDFA03E04021F2
:10305000A448FDF7EAFA10BD10B58021A148FDF79C
:10306000C8FA10BD002100E0491C8142FCD3704722
:1030700010B50120FFF7D6FF4FF4FA70FFF7F2FF0B
:103080000120FFF7DCFF4FF4FA70FFF7EBFF0020A1
:10309000FFF7C8FF4FF4FA70FFF7E4FF0020FFF7D7
:1030A000CEFF4FF4FA70FFF7DDFF10BD10B5002022
:1030B000FFF7C5FF4FF4FA70FFF7D4FF0020FFF7CA
:1030C000B1FF4FF4FA70FFF7CDFF0120FFF7B7FF14
:1030D0004FF4FA70FFF7C6FF0120FFF7A3FF4FF48C
:1030E000FA70FFF7BFFF10BD10B50524FFF77CFF96
:1030F0004FF4FA70FFF7B6FF0120FFF7A0FF4FF47F
:10310000FA70FFF7AFFF0CE0601E84B24FF4FA7064
:10311000FFF7A8FF2CB9FFF776FFFFF7C7FF0020E6
:1031200010BDFFF799FF0028EED1FFF76CFF0020DC
:10313000FFF785FF4FF4FA70FFF794FF0120EFE7E8
:1031400010B50020FFF76EFF4FF4FA70FFF78AFF0B
:103150004FF4FA70FFF786FF0120FFF770FF4FF47E
:10316000FA70FFF77FFF0020FFF769FF4FF4FA7056
:10317000FFF778FF10BD10B50120FFF753FF4FF4A4
:10318000FA70FFF76FFF0120FFF759FF4FF4FA7055
:10319000FFF768FF0020FFF752FF4FF4FA70FFF7C8
:1031A00061FF10BD70B5044608251BE00020FFF745
:1031B00046FF4FF4FA70FFF755FF04F08000FFF769
:1031C00031FF4FF4FA70FFF74DFF6006040E4FF425
:1031D000FA70FFF747FF0120FFF731FF4FF4FA7055
:1031E000FFF740FF281EA5F10101CDB2DED1FFF7A8
:1031F00026FF4FF4FA70FFF735FF70BD70B5082554
:103200000024FFF7F1FE16E06006040E0020FFF731
:1032100016FF4FF4FA70FFF725FF4FF4FA70FFF72F
:1032200021FF0120FFF70BFF4FF4FA70FFF71AFFA1
:10323000FFF712FF0443281EA5F10101CDB2E3D12F
:10324000FFF7FDFE4FF4FA70FFF70CFFFFF7DBFE10
:10325000204670BD08B501210820FDF7F3FBC02012
:10326000ADF8000002208DF8020010208DF8030058
:1032700069461C48FDF72AF908BD70B50446FFF7FA
:10328000F7FEA020FFF78EFFFFF72EFF2046FFF787
:1032900089FFFFF729FFFFF7EBFEA120FFF782FF71
:1032A000FFF722FFFFF7AAFF0546FFF71DFFFFF715
:1032B000FDFE284670BD70B505460C46FFF7D8FEEA
:1032C000A020FFF76FFFFFF70FFF2846FFF76AFF09
:1032D000FFF70AFF2046FFF765FFFFF705FFFFF73F
:1032E000E5FE70BD000C014010B54FF40051F948E7
:1032F000FDF799F94FF40041F648FDF796F94FF4C0
:103300000041F448FDF78FF910BD10B54FF400519E
:10331000F048FDF788F94FF40051EE48FDF785F9C4
:1033200010BD70B50446002520E04FF40051E94877
:10333000FDF77BF904F0800028B14FF40041E54827
:10334000FDF771F904E04FF40041E248FDF76DF933
:103350004FF40051DF48FDF766F94FF40051DD48A6
:10336000FDF763F96006040E681CC5B2082DDCDBAE
:1033700070BD10B54FF40041D648FDF754F94FF435
:103380000051D448FDF74FF94FF40041D148FDF703
:103390004CF94FF40051CF48FDF747F910BD70B517
:1033A00005460C46FFF7E5FF7820FFF7BAFFFFF769
:1033B000ACFF1CB14020FFF7B4FF02E00020FFF794
:1033C000B0FFFFF7A2FF2846FFF7ABFFFFF79DFF17
:1033D000FFF78AFF70BD10B504461CB90021A62076
:1033E000FFF7DDFF012C03D10021A720FFF7D7FF56
:1033F00010BD10B504463CB90021C820FFF7CFFF2F
:103400000021A120FFF7CBFF012C07D10021C02014
:10341000FFF7C5FF0021A020FFF7C1FF10BD10B5C9
:1034200000218D20FFF7BBFF00211420FFF7B7FF1D
:103430000021AF20FFF7B3FF10BD10B500218D2094
:10344000FFF7ADFF00211020FFF7A9FF0021AF20FB
:10345000FFF7A5FF10BD70B500241CE004F1B0011A
:10346000C8B20021FFF79BFF00210846FFF797FF36
:1034700000211020FFF793FF002508E0964901EB9B
:10348000C501085D0121FFF78AFF681CC5B2802DC8
:10349000F4DB601CC4B2082CE0DB70BD70B5002406
:1034A0000CE0002506E000208B4901EBC501085522
:1034B000681CC5B2802DF6DB601CC4B2082CF0DBA2
:1034C000FFF7C9FF70BD70B50A46CE1701EB5676FF
:1034D000C6F3C703CE1701EB5676F610A1EBC6066E
:1034E000F4B20122A240D5B27B4A02EBC002D25C08
:1034F0002A43794E06EBC006F25470BD70B50B46F8
:10350000CE1701EB5676C6F3C702CE1701EB5676FF
:10351000F610A1EBC606F4B20123A340DDB26E4B58
:1035200003EBC0039B5CDB436B4E06EBC006B3545E
:10353000694B03EBC0039B5C2B43674E06EBC00655
:10354000B354654B03EBC0039B5CDB43624E06EB5D
:10355000C006B35470BD2DE9F84F05460E46174618
:103560009846002D0ADB802F08DC002E06DBB8F120
:10357000400F03DCBD4201DC464501DDBDE8F88FAC
:10358000BD420DD1002406E03019C1B22846FFF734
:103590009AFF601CC4B2A8EB0600A042F4DC30E045
:1035A00046450CD1002406E02919C8B23146FFF780
:1035B0008AFF601CC4B2781BA042F5DC21E0A8EBB6
:1035C000060000F0FF0A781B00F0FF0B0AEB8A00F0
:1035D000400090FBFBF000F0FF0900240EE004FB2C
:1035E00009F00A2190FBF1F03044C0B22919009093
:1035F000C8B20099FFF767FF601CC4B2781BA042F5
:10360000EDDC00BFBAE72DE9F04306460F469046D1
:10361000002544463BE03A1BD1B27219D0B2FFF705
:1036200052FF3A1BD1B2721BD0B2FFF74CFF3A19CE
:10363000D1B2721BD0B2FFF746FF3A19D1B272195C
:10364000D0B2FFF740FF7A19D1B23219D0B2FFF7EA
:103650003AFF7A1BD1B23219D0B2FFF734FF7A1B8E
:10366000D1B2321BD0B2FFF72EFF7A19D1B2321B82
:10367000D0B2FFF728FF6D1C05FB05F004FB04002A
:1036800008FB1809B9F1000F01DD641E6D1E600012
:10369000604308FB08F18842BDDABDE8F0832DE9FC
:1036A000FF4F81B080460E461C4600962046E31729
:1036B00004EB5373DB1021464FEAE47C04EB5C7CA3
:1036C0004FEAEC0CA4EBCC0CBCF1000F06D04FF091
:1036D000010C05E0000C0140A41C00204FF0000C80
:1036E0006344224604EBD27C4FEA6C0C03FB0CF3E0
:1036F00003F0FF0B03982038C7B2002547E00C2CDD
:1037000007D107EB4700FE4901EB800010F805A048
:1037100014E0102C05D1FB4800EB071010F805A0B1
:103720000CE0182C07D107EBC700F74901EB80002C
:1037300010F805A002E005B0BDE8F08F4FF00009D9
:103740001FE00AF0800020B131464046FFF7BBFE83
:1037500003E031464046FFF7D1FE4FEA4A604FEAA8
:10376000106A701CC6B20098301AA04205D1009EA3
:1037700008F1010000F0FF0806E009F1010000F087
:10378000FF09B9F1080FDCDB00BF681CC5B25D455D
:10379000B5DB00BFCFE7F0B506460F4614461D4621
:1037A00013E022782B4639463046FFF778FF28464B
:1037B00005EBD07106EB6101CEB2C5F18000B042DD
:1037C00002DA0026B81CC7B2641C2078202802DB6D
:1037D00020787E28E5DDF0BD10B50246012000E02E
:1037E00050430B1EA1F10104E1B2F9D110BD2DE946
:1037F000F04F06468A4691461F46099C00252CE05C
:10380000781B401EC1B20A20FFF7E6FFB9FBF0F0BB
:103810000A21B0FBF1F201FB1208B8F1000F0CD144
:10382000A34604EBDB71491001FB0561C8B22346D6
:1038300030225146FFF733FF0DE0A34604EBDB7166
:10384000491001FB0561C8B208F13001CAB2234634
:103850005146FFF724FF681CC5B2BD42D0DBBDE86E
:10386000F08F2DE9FF4F0746884691461C464FF0E2
:10387000000B0297CDF804802046E11704EB51714C
:10388000C1F3C701009160E009FB04F0C11700EB30
:1038900051710BEBE101CEB20BF1010000F0FF0B17
:1038A000002550E0102C05D1984800EB0610405D33
:1038B00003901BE0182C07D106EBC600944901EBDE
:1038C000C000405D039011E0202C05D1914800EB31
:1038D000C610405D039009E0402C05D18E4800EBF6
:1038E0004620405D039001E0BDE8FF8F4FF0000AE5
:1038F00017E0039800F0010020B141463846FFF779
:10390000E2FD03E041463846FFF7F8FD039840101A
:10391000039008F1010000F0FF080AF1010000F037
:10392000FF0ABAF1080FE4DB781CC7B20298381A14
:10393000A04204D1029F01980830C0B20190DDF886
:103940000480681CC5B2A542ACDB0098411EC9B218
:103950000091002898D100BFC6E78046894600261E
:10396000002749E03FB91023324618218020FFF795
:1039700078FF701CC6B2464522D14FF0000A1AE00B
:10398000002410E000250AE0644800EBC400415D1B
:10399000601E624A02EBC0004155681CC5B2082D8A
:1039A000F2DB601CC4B2902CECDBFFF754FD0AF193
:1039B000010000F0FF0A4FEA09105045E0DC002644
:1039C000781CC7B2102F00D10027002410E000257A
:1039D0000AE0524800EBC400415D601E4F4A02EB12
:1039E000C0004155681CC5B2082DF2DB601CC4B292
:1039F000902CECDBFFF72FFDB4E770B504460D46C5
:103A000005F1B001C8B20021FFF7C9FC102141EA5D
:103A100014100021FFF7C3FC04F00F0141F0010076
:103A20000021FFF7BCFC70BD2DE9F05F05460E4696
:103A300017469846DDF828B04FF00009CA46002422
:103A4000E11704EB5171C910A4EBC10101B901E008
:103A5000601CC4B2344614E021462846FFF7CDFF6F
:103A6000AA460AE01BF809000121FFF798FC09F1BA
:103A700001090AF1010000F0FF0ABA45F2DB601CFF
:103A8000C4B24445E8DBBDE8F09F08B50121082039
:103A9000FCF7D8FF4BF60240ADF8000010208DF87F
:103AA000030003208DF8020069461D48FCF70EFD57
:103AB0004BF602411A48FCF7B6FD01212020FCF725
:103AC000C1FF0420ADF8000010208DF80300032092
:103AD0008DF8020069461348FCF7F8FC04211148F0
:103AE000FCF7A1FD4FF400610D48FCF79CFD64203C
:103AF00000F025FB4FF400610948FCF796FD13E048
:103B000036600008AA6400089A6A0008780000205D
:103B1000D8010020B0020020B0040020A41C002026
:103B2000000C014000140140C82000F008FB4FF4D5
:103B300000613D48FCF777FD4FF480613A48FCF79F
:103B400074FD0021AE20FFF72AFC00210846FFF794
:103B500026FC00211020FFF722FC00214020FFF767
:103B60001EFC00218120FFF71AFC0021CF20FFF767
:103B700016FC0021A120FFF712FC0021C820FFF74E
:103B80000EFC0021A620FFF70AFC0021A820FFF769
:103B900006FC00213F20FFF702FC0021D320FFF7A5
:103BA000FEFB00210846FFF7FAFB0021D520FFF7B6
:103BB000F6FB00218020FFF7F2FB0021D920FFF760
:103BC000EEFB0021F120FFF7EAFB0021DA20FFF7EE
:103BD000E6FB00211220FFF7E2FB0021DB20FFF7CC
:103BE000DEFB00214020FFF7DAFB00212020FFF759
:103BF000D6FB00210220FFF7D2FB00218D20FFF72A
:103C0000CEFB00211420FFF7CAFB0021A420FFF700
:103C1000C6FB0021A620FFF7C2FB0021AF20FFF763
:103C2000BEFBFFF73BFC08BD000C014008B50121BD
:103C30000C20FCF707FF40F20110ADF80000012056
:103C40008DF8020004208DF8030069462348FCF734
:103C50003DFC0620ADF8000069462148FCF736FC23
:103C600008BD08B501211020FCF7ECFE0121202041
:103C7000FCF7E8FE4FF47F40ADF8000010208DF80F
:103C8000030001208DF8020069461648FCF71EFC6F
:103C90000420ADF8000069461348FCF717FC08BD86
:103CA00070B504460D4665B9A1B20E48FCF7BBFCE1
:103CB00004210D48FCF7B7FC04210B48FCF7B5FCC8
:103CC0000BE0A1B20748FCF7B0FC04210648FCF762
:103CD000AAFC04210448FCF7A8FC70BD00080140C0
:103CE000000C0140001001400014014000B587B0F5
:103CF00001214802FCF7A6FE01210820FCF7A2FEE4
:103D00000120ADF8180000208DF81B0006A93148ED
:103D1000FCF7DCFB002001908DF808008DF809000D
:103D20004FF4602003900020049001208DF81400CF
:103D300001A92948FCF77FFF022301220821264818
:103D4000FDF711F801212448FCF7A1FF2248FCF7F8
:103D5000C0FF00BF2048FCF7C1FF0028FAD11E4871
:103D6000FCF7C6FF00BF1C48FCF7C7FF0028FAD1CC
:103D700007B000BD2DE9F84F01211748FCF7C7FF38
:103D80001548FDF757F80090009801F0E9FD8046CE
:103D90004FF06632114B01F0F7FD06460022104B42
:103DA00001F086FC044601F0A9FB8346584601F069
:103DB000D3FF80460B4A0C4B01F0E6FD064600227D
:103DC0000A4B01F0DFFE044601F098FB82465046A4
:103DD000BDE8F88F000C01400024014066660A40EF
:103DE00000FEAF403EF8E0830F3E38400000344014
:103DF00010B588B0044601210846FCF730FE514852
:103E000090FBF4F084B2ADF818400020ADF8140037
:103E1000ADF81A00ADF8160005A94FF08040FDF787
:103E20004BFB012247219007FDF749FF7020ADF8B9
:103E300004000120ADF806000420ADF8080020467B
:103E400004EBD0714910ADF80A100220ADF80C0057
:103E50000020ADF80E004FF48070ADF81000002087
:103E6000ADF8120001A94FF08040FDF7A4FB01213D
:103E70008807FDF77DFE01218807FDF785FE08B064
:103E800010BD08B501210420FCF7DCFD0220ADF8CF
:103E9000000018208DF8030003208DF80200694609
:103EA0002948FCF713FB08BD00B585B001210220AD
:103EB000FCF7D5FD01210420FCF7C4FD8020ADF8FE
:103EC000040004208DF8070003208DF8060001A9E6
:103ED0001D48FCF7FBFA1D208DF8000000208DF82E
:103EE000010001208DF802008DF803006846FCF700
:103EF00012FE0420ADF808000020ADF80A000120F1
:103F0000ADF80C000020ADF80E00ADF8100002A9CD
:103F10000E48FDF7AFFD60210C48FDF763FE04215C
:103F20000A48FEF7A7F880210848FEF7ACF80121FF
:103F30000648FDF71DFE012204210448FDF733FE6B
:103F400005B000BD40420F000008014000040040E1
:103F500008B54FF4C060FCF7D9FD03208DF80000D0
:103F600001208DF8010000208DF8020001208DF85D
:103F700003006846FCF7CFFD08BD10B501214FF0E6
:103F8000C050FCF76CFD0120FDF7C3F8FDF754F8B5
:103F90000120FCF7DDFC00BF6120FCF728FC0028B5
:103FA000FAD04FF40070FCF7D6FC0120FCF7D9FCE6
:103FB000FDF76FF9FDF764F901210846FDF704F9F3
:103FC000FDF75EF949F63F40FDF734F9FDF758F982
:103FD00049F6A620FDF721F9FDF752F9FFF7B8FFE2
:103FE00010BD000008B54FF4C060FCF78FFD26201F
:103FF0008DF8000001208DF8010000208DF80200EE
:1040000001208DF803006846FCF785FD08BD00B56A
:1040100085B001210420FCF715FD01214804FCF7BF
:104020001EFDFFF7DFFF0420ADF8100018208DF80B
:10403000130003208DF8120004A92048FCF746FA6B
:104040000820ADF8100004208DF8130004A91B48C7
:10405000FCF73CFA4FF4964000900020ADF80400C5
:10406000ADF80600ADF80800ADF80C000C20ADF876
:104070000A0069461248FEF79CF8012240F22551D9
:104080000F48FEF72EF901210D48FEF71EF905B085
:1040900000BD70B50446002500BF615D0848FEF70D
:1040A00081F900BF80210648FEF7EAF90028F9D01F
:1040B000681CC5B2605D0028EFD170BD00080140EA
:1040C0000044004010B56FF00400FCF76EFD2E4870
:1040D00000682E49B0FBF1F02D49087008460078C1
:1040E00000EB4001C1EBC0104FF6FF7101EAC000C8
:1040F0002849088010BD0146254A12784A434FF0EE
:10410000E0235A6100229A611A46126942F00102C4
:104110001A6100BF4FF0E022106900F001021AB1ED
:1041200000F48032002AF5D04FF0E022126922F02C
:1041300001024FF0E0231A6100229A6170470146A4
:10414000144A12884A434FF0E0235A6100229A61D0
:104150001A46126942F001021A6100BF4FF0E022D4
:10416000106900F001021AB100F48032002AF5D083
:104170004FF0E022126922F001024FF0E0231A61B1
:1041800000229A61704700000000002000127A00AF
:10419000B4140020B614002010B54FF4A060FCF752
:1041A000B5FC10BD014600BF704700BF494A1288E8
:1041B00002F04002002AF9D0C2B2464B1B1D1A8001
:1041C000704710B586B00446012144F20500FCF7A3
:1041D00039FC4FF40070ADF8140003208DF8160080
:1041E00018208DF8170005A93B48FCF76FF94FF42C
:1041F0008060ADF8140004208DF8170005A936483A
:10420000FCF764F925208DF8000003208DF80100EB
:104210008DF8020001208DF803006846FCF77BFC56
:1042200001940020ADF80800ADF80A00ADF80C00CC
:10423000ADF810000C20ADF80E0001A92548FDF7DF
:10424000B8FF012240F225512248FEF74AF8012129
:104250002048FEF73AF806B010BD10B540F22551DF
:104260001C48FEF723F910B31A48FEF79FF8C4B2B2
:104270001A48008800F40040C8B91848008800F4C3
:10428000804060B10A2C03D000201449088020E04F
:104290001248008840F400401049088019E00D2CB5
:1042A00006D10E48008840F480400C49088010E098
:1042B0000A480088C0F30D0009490C5407480088DB
:1042C000401C0649088008460088C72801DD0020F8
:1042D000088010BD0038014000080140BC140020D7
:1042E00024210020704700000FB41CB5074B06AA1C
:1042F0007B4469460090059800F07BFB00206946EE
:1043000000F08AFB1CBC5DF814FB000025070000D0
:1043100070B50C460546012A05D02878800600D5E0
:10432000EA69002302E0012305E05B1C934202D20C
:10433000E05C0028F9D1A869E618C01AA861286ACB
:10434000184428622846AFF3008004E0D5E9012133
:1043500014F8010B9047B442F8D32846AFF300801D
:1043600070BD00002DE9F041064600241068752953
:10437000314616A510D0AFF30080002802DA404283
:1043800013A507E031688A0701D512A502E04907A5
:1043900004D511A5012401E0AFF3008000210A2219
:1043A00006F1240709E0B0FBF2FCB0FBF2F302FBDC
:1043B0001C00303078541846491C0028F3D123469D
:1043C0002A463046BDE8F04100F0A8B800000000E1
:1043D0002D0000002B000000200000002DE9F05F00
:1043E000894604464FF0000ADFF824B1FB44C0F8C8
:1043F00020A02046E168884700287DD0252806D0E7
:10440000D4E901219047206A401C2062F1E7002591
:104410005F462046E16888472028064607DB312EA4
:1044200005D2B81910F8200C08B10543F1E7A80728
:1044300001D525F00405C4F81CA00027C4F818A075
:104440002A2E09D0304601F03CF838B304EB870837
:10445000303EC8F8186019E059F8041B204604EBF8
:1044600087029161E1688847012F064618D1E0690B
:10447000002820DA25F020051DE0D8F8180000EB10
:10448000800006EB40003038C8F818002046E1688C
:104490008847064601F015F80028EED1012F0AD012
:1044A0002E2E08D12046E16888477F1C0646022F41
:1044B00045F02005C4DBA069002803DA404245F03E
:1044C0000105A061E80701D025F01005A6B1A6F10D
:1044D0004100192802D8203645F400654A46314685
:1044E000204625604D46FBF75BFE60B1012807D0F2
:1044F000ED1D25F0070000E007E000F1080978E76E
:1045000005F1040975E730467AE7206ABDE8F09FB7
:104510000634000070477047704770472DE9F04738
:104520000D4699469246044600F124080168880623
:1045300004D5E06921F01001216000E00120A842CB
:1045400001DD471B00E00027A1697A1902EB090091
:10455000081AA0612078C00602D42046AFF300807C
:10456000002608E0D4E901211AF806009047206AE5
:10457000401C761C20624E45F4DB2078C0060AD52C
:104580002046AFF3008006E0D4E9012130209047B7
:10459000206A401C2062381EA7F10107F4DC07E006
:1045A000D4E9012118F805009047206A401C2062D8
:1045B000281EA5F10105F3DC2046AFF3008020782A
:1045C000000602D50220BDE8F0870120FBE7704716
:1045D0002DE9FF4F0C461E464FF0FF378BB0D2E956
:1045E0000001DDF860800A908A46C1F30A5505B9DA
:1045F0003D46002108464FF00000BAF1000F00F4DC
:10460000400005DA00EB80004FF4400101EA500061
:104610004FEA9059B9F1010F00DDB9460A9850EA06
:104620004A000ED044F61050A5F2FF3545432F1432
:10463000B8F1000F1ED07542291E1EDDC9F100021F
:104640001CE0B8F1010F4FF0000001D0302103E071
:10465000F24305E02154401CB042FBDB304600220F
:10466000002121540B99C1F80880C1E900200FB046
:10467000BDE8F08FBD1B6D1CDEE74A4600DA6942DB
:1046800006A800F06FFA06AB93E8070003AB83E8D7
:10469000070050460A9900F045FB8DE80700A0F599
:1046A00000501F3800900398002D09DD42F21F01D1
:1046B0004A46084403A90390684600F0A4FD08E0B8
:1046C000A0F500504A461F3803A90390684600F041
:1046D000AEFD8DE807000004000C03D04FF0FF3062
:1046E000410800E01046B8F1000F03D0002200920C
:1046F00015461EE0751E05D400F0AEF93032625545
:104700006D1EF9D5B3460122084302D000227F1C5A
:1047100004E02078302801D100227F1E002A09976A
:1047200086D01DE0112D07DA00F096F9303262557F
:104730006D1C50EA0102F5D1084302D00098C8B1BF
:104740000EE00021681E05E0235C625C6354225485
:10475000401E491C8142F7DBAB46A81B401E099056
:10476000002004F80B000B98099AC0F80880C0E9F3
:10477000002B7CE711264FF0000859E72DE9F04F98
:1047800088460446D21D22F0070191B0D1E900010C
:10479000CDE90A0100F081FE02460B98C00F01D05E
:1047A0002D2007E02068810701D52B2002E0202181
:1047B00001EAC000032A099001D0072A05DB03465D
:1047C0004146204600F08EF90BE12078800601D5A5
:1047D000E06900E00620B8F1650F814606D0B8F127
:1047E000660F18D0B8F1670F70D131E00020B9F131
:1047F000110F009001DB112301E009F101030AAA66
:1048000001A90CA8FFF7E4FEDDE90C70002609F110
:104810000105834647E001204B4600904FF00047DA
:104820000AAA01A90CA8FFF7D3FEDDE90DB00C9987
:104830005D46002610B909F101000D18B9EB05001D
:1048400003D4C0F1FF3609F10105A5EB09002BE007
:10485000B9F1010F01DA4FF001090020B9F1110F90
:104860000090484601DD112300E003460AAA01A991
:104870000CA8FFF7ADFEDDE90C704D46002683461F
:10488000207800070AD4AB4500DA5D4601A8012D67
:1048900004DD411911F8011C302907D04F4502DA17
:1048A00017F1040F04DA012082460FE06D1EEEE7D7
:1048B000002F02DCED1B3E4403E0781CA84200DD23
:1048C0007D1CB81B00F1010A4FF00047207800075B
:1048D00003D4AA4501DB4FF0FF3A0021B7F1004FA6
:1048E0000DF143088DF8431024D002202B23002F14
:1048F00001DA7F422D230A21021EA0F1010000DC13
:104900005FB197FBF1FC97FBF1F201FB1C7C1746B2
:104910000CF1300C08F801CDEEE7A8F101000370AE
:104920002188090501D5452100E06521A0F1010894
:1049300000F8011C09980FA9A1EB0807FF1D00B1A1
:104940000120411901EBEA70A1693844081A401EA0
:10495000A0612078C00602D42046AFF300800998F9
:1049600028B1D4E901219047206A401C20622078B8
:10497000C00622D52046AFF300801EE0002E04DBE7
:10498000B34502DD01A8805D00E03020D4E90121BB
:104990009047206A401C2062761CAAF101005FEA61
:1049A000000A0AD100F054F8C0680168405CD4E9FC
:1049B00001219047206A401C2062281EA5F10105B4
:1049C000DCDC07E0D4E9012118F8010B9047206AEC
:1049D000401C2062381EA7F10107F3DC2046AFF32C
:1049E0000080032011B043E601694A1C0261087887
:1049F000704700B58FB0CDE901310021059105491F
:104A00007944CDE9031011466846FFF7E7FC0FB083
:104A100000BD0000E5FFFFFF0A6802F8010B0A6015
:104A2000704710B5436913B1AFF3008001E0FFF7A1
:104A30006FFC012010BD127800F124010A700022E1
:104A40004A700122EDE711684FF0FF32E9E70000FC
:104A5000004870470C22002030B5B0F10A024FEA3E
:104A6000900E71F100034EEA817EB0EB0E0061EB17
:104A700091014FEA101E4EEA017E10EB0E0041EB51
:104A800011114FEA102E4EEA016E10EB0E0041EBB1
:104A900011214FEA104E4EEA014E10EB0E0041EB91
:104AA0001141401841F100014FEAD00040EA417045
:104AB0004FEAD10110EB80054FEA810444EA90747B
:104AC00044EB01046D1944EB0404521BA3414FF065
:104AD000000348BF0A3200D530BD401C41F100013F
:104AE00030BD00002DE9F0411F4604460326016851
:104AF000072A01F4006004DB08B116A505E016A53D
:104B000003E008B115A500E015A521F01000206014
:104B1000A069C01EA0610FB1401EA0612046AFF386
:104B200000804FB1D4E9012138469047206A401CEB
:104B30002062C01C206206E0206AFAE7D4E9012165
:104B400015F8010B9047761EF8D22046AFF300808F
:104B5000BDE8F0814E414E006E616E00494E460048
:104B6000696E66002DE9F047814616468AB03348E3
:104B700078440DC88DE80D0030487844801C03ACA3
:104B80000DC884E80D0041F69B300844372190FBA6
:104B9000F1F290FBF1F5A5F1800501FB12041B3C3D
:104BA00002D56442012000E00020DFF890A080469A
:104BB0000027FA44AAF1BE0A0DE0E00709D0324608
:104BC000684607EB47010AEB810100F030FB8DE8F6
:104BD000070064107F1C002CEFD1184F7F44AC3FBE
:104BE00018E0E80714D007EB04100DF1180A90E85C
:104BF0000E008AE80E00C068F04201D198190890B2
:104C0000324606A903A800F012FB03AB83E80700B5
:104C10006D10641C002DE4D132466946B8F1000FD6
:104C200003A802D000F0EFFA01E000F000FBC9E9B0
:104C30000001C9F808200AB0BDE8F087102D000077
:104C400000487047EC2100207546FFF7F9FFAE469B
:104C500005006946534620F00700854618B020B588
:104C6000FBF7D2FABDE820404FF000064FF00007F6
:104C70004FF000084FF0000B21F00701AC46ACE804
:104C8000C009ACE8C009ACE8C009ACE8C0098D4671
:104C9000704710B50446AFF300802046BDE81040D1
:104CA000FBF79EBA4FF0013C50F8042B51F8043B3F
:104CB0009A4221D1A2EB0C03934313EACC1317D1F0
:104CC00050F8042B51F8043B9A4215D1A2EB0C0387
:104CD000934313EACC130BD150F8042B51F8043B47
:104CE0009A4209D1A2EB0C03934313EACC13DBD015
:104CF0004FF00000704700BFD01A01BAB1FA81F13D
:104D000001F0180122FA01F0CB40C1F12001DBB221
:104D1000C0B2C01A2CFA01F3D11A914311EAC3119F
:104D2000E6D170475FEA400C08BF91F0000F4FEAF0
:104D30008C234FEAC12243EA51514FEA1C5018BF5D
:104D400000F5F0404FEA300018BF41F000415FEA43
:104D50006C5C00F02980BCF1FF3F08BF40F0804050
:104D60007047130C06BF12044FF0100C4FF0000CEC
:104D7000130E04BF12020CF1080C130F04BF120132
:104D80000CF1040C930F04BF92000CF1020CD30F32
:104D900004BF52000CF1010C11464FF00002A0F1CB
:104DA0001F00A0EB0C00704711F0004F08BF7047C8
:104DB00031F000413FF4D5AF0B0C06BF09044FF0B2
:104DC000100C4FF0000C0B0E04BF09020CF1080C84
:104DD0000B0F04BF09010CF1040C8B0F04BF8900F9
:104DE0000CF1020CCB0F04BF49000CF1010CCCF10B
:104DF0002003A0EB0C0022FA03F302FA0CF241EAC2
:104E0000030100F10100704720F07F4C80EA0300AD
:104E100023F07F47ACEB070303F57C5300F0004021
:104E200003F1FF032DE980494FEA154B09B44FEA1E
:104E3000144325EA0B4E24EA03480FF2042606EB3E
:104E4000132749083E785FEA320203FB0667C7F57D
:104E5000000707FB06F64FEA54374FEAD64606F13D
:104E6000020607FB066CCCF1005C4FEA1C472CEAFB
:104E7000074C07FB06F40CFB06F504EB15464FEA5E
:104E8000961634BF00204FF000404FEAD13706FBA2
:104E900007FC4FEA1C4C0CFB0BF7D21B03FB0CF777
:104EA00061EB07010CFB0EF7B0EB074072EB17420A
:104EB0000CFB08F734BFA2EB0742B2EB074261EBF1
:104EC00017414FEA0C444FEA910706FB07FC4FEAF3
:104ED0001C4C0CFB0BF7B0EBC74072EB573203FBDB
:104EE0000CF734BFA2EBC742B2EBC74261EB5731BC
:104EF0000CFB0EF7B0EBC70072EB57720CFB08F718
:104F000034BFA2EBC702B2EBC70261EB5771039F3C
:104F10004FEA816141EA921104EBCC044FEAD137A8
:104F20004FEA826206FB07FC42EA90124FEA806079
:104F30004FEA1C4C0CFB0BF7D21B03FB0CF761EB8D
:104F400007010CFB0EF7B0EB074072EB17420CFBAE
:104F500008F734BFA2EB0742B2EB074261EB1741FF
:104F60004FEA8C554FEA910704EB9C2406FB07FCA3
:104F70004FEA1C4C0CFB0BF7B0EBC74072EB5732FF
:104F800003FB0CF734BFA2EBC742B2EBC74261EBA5
:104F900057310CFB0EF7B0EBC70072EB57720CFBEE
:104FA00008F734BFA2EBC702B2EBC70261EB57713F
:104FB00015EB4C254FEA816141EA92114FEA82627A
:104FC0004FEAD13742EA901206FB07FC44F1000495
:104FD0004FEA80604FEA1C4C0CFB0BF7D21B03FB23
:104FE0000CF761EB07010CFB0EF7B0EB074072EB1F
:104FF00017420CFB08F734BFA2EB0742B2EB0742A3
:1050000061EB174115EB1C154FEA813141EA9241E2
:105010004FEA823242EA90424FEA80304FEA0C7601
:1050200044F1000448EA03434EEA0B484FF0000EF7
:10503000B2EB080C71EB030724BF624639464EEB16
:105040000E0E4FF0000B0018524149414BEB0B0B79
:10505000B2EB080C71EB03077BF1000B24BF624637
:1050600039464EEB0E0E4FF0000B001852414941ED
:105070004BEB0B0BB2EB080C71EB03077BF1000B56
:1050800024BF624639464EEB0E0E51EA020718BFA6
:1050900046F0010616EB0E7655F1000254F10001C0
:1050A00003D5BDE88901BDE80088BDE88901BDE8F8
:1050B0000048B619524141EB0101A3F101037047C9
:1050C00080807F7E7D7C7B7A797877767675747345
:1050D000727171706F6E6E6D6C6C6B6A6A69686804
:1050E000676666656464636362616160605F5F5E9A
:1050F0005E5D5D5C5C5B5B5A5A5959585857575610
:105100005655555554545353525252515150505074
:105110004F4F4F4E4E4D4D4D4C4C4C4B4B4B4A4AC6
:105120004A4949494848484747474746464645450A
:105130004544444444434343434242424241414143
:10514000002B26D4770021D01CB54FEA370703B4D3
:105150004FF010004FF010014FF000000FBCBDE801
:1051600010400BF1010BBBF1010F08BF5FEA1707FD
:1051700022BF12F1010211F101014FF0004143F190
:10518000000300F0004043EA00007047F9D35708DD
:10519000DAE746EA064613F1400F4FEA16461FDDEE
:1051A00013F1200FDFBF16430A46002120335B4274
:1051B000C8D0C3F1200746EA064602FA07F74FEACD
:1051C000164646EA0706C3F1200722FA03F201FA5F
:1051D00007F721FA03F14FF0000342EA0702B1E7B3
:1051E00046EA020646EA06464FEA164646EA01063F
:1051F000BCBF46EA0646360C4FF000034FF00002F3
:105200004FF000019EE72DE9C048934630B491E885
:10521000380007C831EA400C48BF34EA430C03D5D4
:10522000FFF7F2FDFFF78CFFF0BCBDE800882DE929
:10523000C048934630B491E8380007C810F0804F5A
:1052400008BF13F0804F03D100F005F8FFF778FF97
:10525000F0BCBDE8008820F07F4780EA030023F01F
:105260007F4C07EB0C03A3F57C5300F00040A3F147
:10527000FE0392F0000F00F0B38095F0000F00F0F5
:1052800077802DE901494FEA11404FEA144621EA9F
:10529000004800FB06FC24EA064708FB06F607FB6D
:1052A00008F800FB07F718EB06484CEB164C4FEAE2
:1052B000124B18EB07484FEA15464CEB174022EA11
:1052C0000B4E0BFB06FC25EA06470EFB06F607FB1A
:1052D0000EFE0BFB07F71EEB064E4CEB164C4FF089
:1052E00000061EEB074E4CEB174B18EB0B0840F17A
:1052F000000018EB0E0B58EB000840F100008F1A6D
:105300004FF000013CBFC943661B14BFB5EB040C52
:1053100000213CBFC943F61B4FEA17444EEA8E0EEC
:1053200027EA04454FEA1C4704FB07622CEA074CB6
:1053300005FB07F70CFB05F604FB0CFC16EB074618
:1053400042EB174216EB0C4642EB1C421BEB0606E7
:1053500058EB0202414146EA9E0601D5BDE80189AB
:10536000B619524141EB0101A3F10103BDE80189E6
:105370004FEA14454FEA114724EA054621EA074C53
:1053800005FB07F406FB07F70CFB06F105FB0CFC1D
:1053900011EB074144EB17444FEA124711EB0C4164
:1053A00044EB1C4422EA074C05FB07F206FB07F717
:1053B0000CFB06F605FB0CFC16EB074642EB17420E
:1053C00016EB0C4642EB1C456A1854F1000148BF2D
:1053D0007047B619524141EB0101A3F10103704737
:1053E00095F0000F37D04FEA11424FEA144721EAF7
:1053F000024624EA074C02FB07F106FB07F70CFB09
:1054000006F402FB0CFC14EB074441EB17414FEA96
:10541000154714EB0C4441EB1C4125EA074C02FBF9
:1054200007F506FB07F70CFB06F602FB0CFC16EB78
:10543000074645EB174516EB0C4645EB1C42121987
:1054400051F1000148BF7047B619524141EB0101CB
:10545000A3F1010370474FEA14454FEA114724EACC
:10546000054621EA074C05FB07F106FB07F70CFB95
:1054700006F24FF0000605FB0CFC12EB074241EB75
:10548000174112EB0C4251EB1C4148BF7047921878
:1054900041EB0101A3F101037047490050EAC1202B
:1054A00018BF04204A0D18BF40F0010040F2FF72FF
:1054B000B2EB515F08BF40F00200012808BF052091
:1054C000704730380A2801D2012070470020704709
:1054D00010B500290AD00878002807D0054878447C
:1054E000FFF7E0FB002801D0002010BD02487844FF
:1054F00010BD0000222400001A24000021F0004208
:10550000A2F16052B2F5801F01F0004328BFD2F132
:105510007F6C0BD95FEA001C43EAC20242EB507079
:1055200018BF704728BF20F001007047B2F5801FF8
:10553000BCBF184670474FEA410C1CF5001F02D251
:10554000084600F071BD70B500F0C8FA000000898F
:10555000FFF7F6BF4FF00040A0F580007047000055
:1055600010B591EA030F48BF83F0004300F11283A6
:10557000841A71EB030C05D2121943EB0C03001BC8
:1055800061EB0C01DFF824E14FEA1154A4EB135C4A
:105590001EEA430F18BF9EEA445F73D023EA0E034E
:1055A000DCF1200E21EA045143F4801332D322FAB5
:1055B0000CFE10EB0E0023FA0CFE41EB0E01CCF1B9
:1055C000200E03FA0EFE10EB0E0051F10001B1F5B2
:1055D000801FCCF1200E32D201EB045112FA0EF2F0
:1055E000BDE8104058BF7047401C38BF5FEA420218
:1055F00018BF7047002814BF20F0010041F10001DE
:105600004FEA410313F5001F38BF7047A1F1C041B5
:1056100000F0B2BA012A43EB0302ACF1200CDCF13A
:105620001F0E32BF4FF0000E23FA0CF310EB0300F5
:1056300041EB0451B4EB115FD0D0A1EB045101F563
:10564000801149085FEA300001EB04510ED350F19C
:10565000000038BF12FA0EFE08D1BDE81040C9E7BD
:10566000401C38BF5FEA4202CAD1C3E7BDE8104020
:105670004FEA410313F5001F38BF7047A1F1C04145
:1056800000F07ABA9EEA445F08D011EA5E0FBDE8E6
:10569000104004BF01F0004100207047BDE81040F9
:1056A00070B500F01BFA00BF64FBBE3E0000E0FFD7
:1056B0002DE9C04130B4DFF8A0C23CEA111418BF94
:1056C0003CEA131400F0EC8081EA03051CEA111493
:1056D00044EAD57418BF1CEA131500F0C780A4EB88
:1056E00005044FF0004545EAC12145EAC32341EADC
:1056F000505143EA525304F17F74994204F5003447
:105700004FEAC0204FEAC22208BF904200F09C80BE
:105710004FEA13650FF24016765D4FEA134506FB1C
:1057200005F7C7F1807706FB07F74FEAD737A7FBE6
:1057300003687642C8F58038A7FB06CE38BFA8F1CB
:10574000010807FB08E64FF0000EA6FB028CE6FB03
:1057500003CEDCF1000CCEF1004E38BFAEF1010EED
:10576000A6FB0C584FF000074FF00005E6FB0E8734
:10577000A1FB08C6A0FB07CE16EB0E0645F10005FF
:10578000E1FB076515F1E04E7EBFA4F580345FEACA
:1057900046066D4116F1800745F100054FEA1727CF
:1057A0004FEA066647EA0567A6F1DE46B6F1805F76
:1057B0004FEA15251FD9384624F0010C05EBC471BA
:1057C000BCF1FE6F01EB0C1102D8F0BCBDE800810A
:1057D00024425CBF01F5801E9EEAC47F02D4F0BC67
:1057E000BDE80081244238D4F0BCA1F1C041BDE83D
:1057F000004100F0C1B94FEAD22242EA43524FEAD7
:10580000D323A7FB02864FEAD02040EA415007FB92
:1058100003661EEA0E0F4FEAD12105FB026658BF50
:10582000A6EB0056B6EB00564FEA520E4EEAC37E88
:1058300018EB0E0E56EB530EBDD518EB02085E4169
:105840007F1C55F10005B6E74FF480154FF00007B7
:105850004FF000064FF00008ADE7F0BC4FF000003D
:1058600001F1C04101F00041BDE8008111EA0C1FC7
:105870000CEA131500D00CE013EA0C1F00F0258091
:105880004FF00000F0BC81EA030101F00041BDE8E7
:105890000081F0BCBDE8004181EA030100F06CB971
:1058A000F0BCBDE8004170B500F018F9097EFC3E7F
:1058B00000F007B881EA03014FF0000001F0004159
:1058C000704781EA030100F057B9F0BCBDE8004120
:1058D0004FF0000021497047FFFDFBF9F7F5F4F2A6
:1058E000F0EEEDEBE9E8E6E4E3E1E0DEDDDBDAD87B
:1058F000D7D5D4D3D1D0CFCDCCCBCAC8C7C6C5C4D9
:10590000C2C1C0BFBEBDBCBBBAB9B8B7B6B5B4B3EF
:10591000B2B1B0AFAEADACABAAA9A8A8A7A6A5A4DA
:10592000A3A3A2A1A09F9F9E9D9C9C9B9A9999989E
:105930009797969595949393929191908F8F8E8E41
:105940008D8C8C8B8B8A89898888878786858584CE
:1059500084838382828181800000FF070000F87FBA
:10596000B0FA80F310FA03F10AD0C3F11D0303F576
:1059700080634FEA41504FEA035202EBD121704756
:105980004FF0000070470000DFF848C170B51CEA16
:10599000111E1EBF1CEA13159EEA0C0F95EA0C0F90
:1059A00000F06F8081EA030423EA4C134EEAD47EB0
:1059B00021EA4C1141F4801143F48013AE44A1FB61
:1059C000024CA0FB0365AEF17F7E361955EB0C054A
:1059D000A1FB034C4CF10003A0FB021C16EB0C06D0
:1059E000654153F10003094218BF46F0010613F464
:1059F000007F0BD14FEA03314FEA0530340341EA0F
:105A0000155140EA16506FF003020AE04FEAC32135
:105A10004FEAC520F40241EA555140EA56506FF072
:105A2000020202EB2E4201EB025585EACE710AD04A
:105A30005FEA440C18BF24F0004450F1000041F12B
:105A4000000120EAD47040F2FE7C624500D270BDB5
:105A5000A84214BF4FF080444FF04044002E08BFCE
:105A60000024BEF1806FA8BFA1F1C041BDE8704025
:105A700080F282804FF0000001F1C04101F000414E
:105A800070479EEA0C0F0CEA131518BF95EA0C0F2D
:105A900006D04FF0000081EA030E0EF0004170BD09
:105AA00000F01CF88900013E00F007B800F009B8CA
:105AB0004FEA430C5FEA5C5C08D081EA030100F026
:105AC0005BB84FEA410C5FEA5C5CF6D14FF0000036
:105AD000014970470000FF070000F87F0EF1020E39
