:020000040800F2
:100000000807002099010008C91D0008CB1D000841
:10001000CF1D0008D31D0008D71D000800000000F8
:10002000000000000000000000000000DD1D0008CE
:10003000DB1D000800000000DF1D0008E11D0008B6
:10004000B3010008B3010008B3010008B3010008C0
:10005000B3010008B3010008B3010008B3010008B0
:10006000B3010008B3010008B3010008B3010008A0
:10007000B3010008B3010008B3010008B301000890
:10008000B3010008B3010008B3010008B301000880
:10009000B3010008B3010008B3010008B301000870
:1000A000B3010008B3010008B3010008B301000860
:1000B000B3010008B3010008B3010008B301000850
:1000C000B3010008B3010008B3010008B301000840
:1000D000B3010008B3010008331E0008B301000893
:1000E000B3010008B3010008B301000800F002F8F2
:1000F00000F042F80AA090E8000C82448344AAF180
:100100000107DA4501D100F037F8AFF2090EBAE87D
:100110000F0013F0010F18BFFB1A43F0010318473B
:1001200080360000A0360000103A24BF78C878C19D
:10013000FAD8520724BF30C830C144BF04680C60ED
:10014000704700000023002400250026103A28BF35
:1001500078C1FBD8520728BF30C148BF0B60704739
:10016000642902F02F81732902F0F3810020704787
:100170001FB51FBD10B510BD02F0EFF91146FFF716
:10018000F7FF01F014FD02F00DFA03B4FFF7F2FFE0
:1001900003BC02F015FA00000948804709480047EF
:1001A000FEE7FEE7FEE7FEE7FEE7FEE7FEE7FEE727
:1001B000FEE7FEE704480549054A064B7047000084
:1001C000B7020008ED000008080100200807002021
:1001D00008030020080300200CB5002001900090C7
:1001E0006C48006840F480306A49086000BF694884
:1001F000006800F4003000900198401C01900098C5
:1002000018B90198B0F5A06FF1D16248006800F408
:10021000003010B10120009001E000200090009813
:10022000012843D15C48006840F010005A4908603A
:100230000846006820F0030008600846006840F0A7
:1002400002000860534840685249486008464068C8
:1002500048600846406840F480604860084640684E
:1002600020F47C1048600846406840F4E81048607C
:100270000846006840F08070086000BF454800688C
:1002800000F000700028F9D04248406820F00300D8
:10029000404948600846406840F00200486000BF9E
:1002A0003C48406800F00C000828F9D10CBD10B59E
:1002B000FFF792FF10BD10B53648006840F001000E
:1002C000344908600846406834490840314948606C
:1002D00008460068324908402E4908600846006810
:1002E00020F4802008600846406820F4FE00486042
:1002F0004FF41F008860FFF7DAFF4FF000602949D4
:10030000086010BD10B5002100200022214B5B6861
:1003100003F00C0121B1042906D0082928D107E0F7
:10032000214B224C236027E01F4B204C236023E00D
:10033000184B5B6803F47010164B5B6803F4803253
:10034000022303EB904022B9194B4343174C23601F
:100350000DE0104B5B6803F4003323B1144B4343AF
:10036000124C236003E0104B4343104C236003E026
:100370000D4B0E4C236000BF00BF064B5B68C3F300
:1003800003130C4CE15C094B1B68CB40074C23600A
:1003900010BD000000100240002002400000FFF8E5
:1003A000FFFFF6FE08ED00E000127A0000000020DA
:1003B00000093D000400002010B50446CC488442EA
:1003C00008D10121042000F02DFB0021042000F0C1
:1003D00029FB46E0C748844208D10121082000F0EB
:1003E00021FB0021082000F01DFB3AE0C2488442B6
:1003F00008D10121102000F015FB0021102000F091
:1004000011FB2EE0BD48844208D10121202000F0DC
:1004100009FB0021202000F005FB22E0B8488442BF
:1004200008D10121402000F0FDFA0021402000F019
:10043000F9FA16E0B348844208D10121802000F087
:10044000F1FA0021802000F0EDFA0AE0AE48844283
:1004500007D10121801500F0E5FA0021A01500F078
:10046000E1FA10BD10B50121084600F0DBFA0021C9
:10047000012000F0D7FA10BD2DE9F0410246002519
:100480000026002000230024002791F803C00CF070
:100490000F0591F803C00CF0100CBCF1000F03D055
:1004A00091F802C04CEA050591F800C0BCF1000FBC
:1004B00031D0146800202BE04FF0010C0CFA00F34F
:1004C000B1F800C00CEA03069E4220D183004FF031
:1004D0000F0C0CFA03F7BC4305FA03FC4CEA0404C6
:1004E00091F803C0BCF1280F06D14FF0010C0CFAB3
:1004F00000FCC2F814C00AE091F803C0BCF1480F38
:1005000005D14FF0010C0CFA00FCC2F810C0401CE1
:100510000828D1D31460B1F800C0BCF1FF0F34DD5E
:10052000546800202EE000F1080C4FF0010808FA92
:100530000CF3B1F800C00CEA03069E4221D18300FF
:100540004FF00F0C0CFA03F7BC4305FA03FC4CEA1E
:10055000040491F803C0BCF1280F05D100F1080C88
:1005600008FA0CF8C2F8148091F803C0BCF1480FE7
:1005700007D100F1080C4FF0010808FA0CF8C2F896
:100580001080401C0828CED35460BDE8F0814FF69F
:10059000FF710180022181700421C1707047024601
:1005A000002093680B400BB1012000E00020704751
:1005B0000146886880B2704702460020D3680B402D
:1005C0000BB1012000E0002070470146C86880B2EE
:1005D000704701617047416170470AB1016100E0F5
:1005E00041617047C16070474FF480320A438261B5
:1005F0008161826182698269704702460020434BB3
:1006000018684FF68073184040EA021008433F4BC9
:10061000186070473E49C8617047F0B50A4600232C
:1006200000240021002500F00046B6F1004F02D161
:10063000364EF16901E0354E7168C0F3034583B26F
:1006400000F44016B6F5401F08D121F070612F4E1E
:10065000766826F070662D4F7E6012E000F48016FA
:10066000B6F5801F06D1032606FA05F4A14341F032
:10067000706106E0460D360103FA06F6B14341F01B
:10068000706122B1460D360103FA06F6314300F0DF
:100690000046B6F1004F02D11C4EF16101E01B4E45
:1006A0007160F0BD30B500228B071C0F0F2303FAD9
:1006B00004F2164B08338C1053F824309343134C38
:1006C00008348D1044F8253023468C1053F824301C
:1006D0008C07240F00FA04F423430C4C08348D10CB
:1006E00044F8253030BD0A49DC310860704700000D
:1006F00000080140000C01400010014000140140BE
:1007000000180140001C0140002001400000014091
:1007100000002042DF48006840F00100DD49086029
:1007200008464068DC490840DA49486008460068E5
:10073000DA490840D74908600846006820F480205C
:1007400008600846406820F4FE0048604FF41F002F
:1007500088607047CF49096821F48031CD4A116023
:100760001146096821F480211160B0F5803F03D063
:10077000B0F5802F0ED106E0C649096841F48031FA
:10078000C44A116007E0C349096841F4A021C14A85
:10079000116000E000BF00BF704710B501460022A5
:1007A000002300204A11012A02D1BA4C236806E036
:1007B000022A02D1B74C236A01E0B64C636A01F009
:1007C0001F02012494401C400CB1012000E00020D5
:1007D00010BD38B5002000900024002500BF312056
:1007E000FFF7DBFF05460098401C00900098B0F52D
:1007F000A06F01D0002DF2D03120FFF7CEFF08B15D
:10080000012400E00024204638BD01460020A14A12
:10081000106820F0F80040EAC10010607047A0495D
:1008200008607047024600209A4B586820F47C10FC
:1008300042EA01031843974B58607047984908668D
:10084000704701460020934A506820F00300084397
:10085000506070478F48406800F00C0070470146B8
:1008600000208C4A506820F0F00008435060704728
:1008700001460020874A506820F4E0600843506039
:10088000704701460020834A506820F4605040EAD7
:10089000C1005060704729B17E4A527A02437D4BB5
:1008A0005A7204E07B4A527A82437A4B5A727047FA
:1008B0007B49D8310860704701460020754A50686E
:1008C00020F440400843506070470021714A2032B4
:1008D0001170704A82F82010012802D004280AD131
:1008E00004E001216B4A2032117005E00521694ABC
:1008F0002032117000E000BF00BF704769490860F6
:1009000070476449096A0143624A11627047654948
:1009100044390860704730B50021002200240023CC
:100920005C4D6D6805F00C0121B1042905D0082942
:1009300023D105E05C4D056022E05B4D05601FE0C2
:10094000544D6D6805F47012524D6D6805F4803495
:10095000022505EB92421CB9544D554305600BE04E
:100960004C4D6D6805F400351DB1504D5543056083
:1009700002E04D4D5543056002E04B4D056000BF60
:1009800000BF444D6D6805F0F0010909484D6B5CEE
:100990000568DD4045603F4D6D6805F4E061090A7A
:1009A000434D6B5C4568DD4085603A4D6D6805F4EC
:1009B0006051C90A3E4D6B5C4568DD40C560354DF0
:1009C0006D6805F44041890B3A4D6B5CC568B5FB19
:1009D000F3F5056130BD29B12E4A526902432D4B12
:1009E0005A6104E02B4A526982432A4B5A6170478C
:1009F00029B1284A92690243264B9A6104E0254AAC
:100A000092698243234B9A61704729B1214AD26986
:100A10000243204BDA6104E01E4AD26982431D4B37
:100A2000DA61704729B11B4AD2680243194BDA6078
:100A300004E0184AD2688243164BDA60704729B145
:100A4000144A12690243134B1A6104E0114A1269F5
:100A50008243104B1A617047124940390860704751
:100A60000F49C86470470B49C87170470948406A0C
:100A700040F0807007494862704701460020054AEF
:100A800092680A400AB1012000E000207047014945
:100A900088727047001002400000FFF8FFFFF6FE6A
:100AA000000042428004424200127A0000093D00E8
:100AB000140000202400002031490143314A116014
:100AC000704770B5002100230F22C47804B32D4C69
:100AD000246804F4E064C4F5E064210AC1F104036D
:100AE000CA40447804FA03F1847814402143090190
:100AF000254C0678A155047804F01F050124AC406C
:100B000005786D11AD0005F1E025C5F8004109E05B
:100B1000047804F01F050124AC401C4D06787611C2
:100B200045F8264070BD1A4A0A400243154B1B1F68
:100B30001A60704739B1134A121D12680243114BF3
:100B40001B1D1A6006E00F4A121D126882430D4BEE
:100B50001B1D1A607047042808D14FF0E021096975
:100B600041F004014FF0E022116107E04FF0E02175
:100B7000096921F004014FF0E02211617047000083
:100B80000000FA050CED00E000E400E080E100E088
:100B900080FFFF1F10B50446FB48844209D10121A4
:100BA0008803FFF73FFF00214FF48040FFF73AFF33
:100BB00032E0F648844209D101214804FFF73FFFA3
:100BC00000214FF40030FFF73AFF25E0F04884425F
:100BD00009D101218804FFF732FF00214FF4802062
:100BE000FFF72DFF18E0EB48844209D10121C8042A
:100BF000FFF725FF00214FF40020FFF720FF0BE057
:100C0000E548844208D101210805FFF718FF0021BB
:100C10004FF48010FFF713FF10BD2DE9F04786B0A9
:100C200005460E460024A24600BFA1460027B08913
:100C300000B100BF2F462C8A4CF6FF700440F088AC
:100C400004432C82AC894EF6F3100440B0883189FD
:100C50000843718908430443AC81AC8A4FF6FF40D6
:100C60000440B0890443AC8201A8FFF754FEC64893
:100C7000874202D1DDF810A001E0DDF80CA0A889C0
:100C800000F4004040B10AEBCA0000EB0A103168E2
:100C90004900B0FBF1F807E00AEBCA0000EB0A10CC
:100CA00031688900B0FBF1F86420B8FBF0F0040172
:100CB0002009642101FB1089A88900F4004040B19B
:100CC000322000EBC900B0FBF1F000F00700044354
:100CD00008E0322000EB09106421B0FBF1F000F0D5
:100CE0000F0004432C8106B0BDE8F0874FF4165185
:100CF000016000218180C18001810C21418100219E
:100D00008181704710B502460020108A4FF2FF0320
:100D100018400B884C8823438C882343CC8823437A
:100D20001843108210BD0021018041808180C18064
:100D3000704721B1828942F40052828104E08289A5
:100D40004DF6FF731A4082817047F0B503460024C8
:100D500000260025002040F66A17B94200D100BFE6
:100D60001846C1F3421401F01F06012707FA06F5E1
:100D7000012C01D10C3004E0022C01D1103000E034
:100D800014301AB107682F43076002E00768AF43C9
:100D90000760F0BD1AB1838A0B43838202E0838A25
:100DA0008B4383827047028A4FF6F0731A400282A7
:100DB000028A0A430282704782894FF2FF731A4007
:100DC000828182890A438281704721B1828942F0FF
:100DD0000202828104E082894FF6FD731A4082810B
:100DE0007047028A4FF6DF731A400282028A0A4372
:100DF0000282704721B1028A42F48042028204E0FA
:100E0000028A4BF6FF731A4002827047C1F3080250
:100E10008280704701468888C0F308007047818946
:100E200041F0010181817047028BD2B20283028BB3
:100E300042EA012202837047028B02F47F4202835E
:100E4000028B0A430283704721B1828A42F020025A
:100E5000828204E0828A4FF6DF731A4082827047F2
:100E600021B1828A42F01002828204E0828A4FF627
:100E7000EF731A408282704721B1828A42F00802E1
:100E8000828204E0828A4FF6F7731A4082827047AA
:100E900021B1828942F40042828103E08289C2F357
:100EA0000E028281704721B1828A42F400628282FE
:100EB00004E0828A4FF2FF731A4082827047828A6E
:100EC0004FF6FB731A408282828A0A4382827047FD
:100ED00021B1828A42F00202828204E0828A4FF6C5
:100EE000FD731A408282704702460020B1F5007FF0
:100EF00000D100BF13880B400BB1012000E000209F
:100F0000704701F40072B2F5007F00D100BFCA4300
:100F10000280704770B5024600240023002500209F
:100F200040F66A16B14200D100BFC1F3421501F08C
:100F30001F03012606FA03F3012D02D196893340DF
:100F400006E0022D02D1168A334001E0968A334032
:100F50000C12012606FA04F41688344013B10CB1C1
:100F6000012000E0002070BD10B50022002340F6F3
:100F70006A14A14200D100BF0A1201249440A3B216
:100F8000DC43048010BD00000038014000440040F4
:100F900000480040004C004000500040002109E0A3
:100FA000002201E0531C9AB240F6B8339A42F9DBB2
:100FB0004B1C99B28142F3DB704710B5FD4BDB68E7
:100FC0009AB24FF40073FC4C23605B102360202323
:100FD000241F2360F74BD8602023241D2360241F87
:100FE0002360DB002360F34BD9602023241D2360A2
:100FF000241F2360DB002360EE4BDA6010BD00B5D8
:1010000001210020FFF7D9FF4FF47A70FFF7C6FFE8
:1010100000210120FFF7D1FF41F290711020FFF76E
:10102000CCFF4FF41C516020FFF7C7FF0121612066
:10103000FFF7C3FF02214620FFF7BFFF48F2100170
:101040001320FFF7BAFF48F2FE011220FFF7B5FFA9
:101050004FF4A0610220FFF7B0FF41F230010320FE
:10106000FFF7ABFF40F203313020FFF7A6FF40F25D
:1010700003313120FFF7A1FF40F203313220FFF7A7
:101080009CFF4FF440713320FFF797FF032134207A
:10109000FFF793FF40F203313520FFF78EFF142155
:1010A0003620FFF78AFF40F203313720FFF785FF34
:1010B00040F203313820FFF780FF40F2033139203E
:1010C000FFF77BFF4FF440713A20FFF776FF0321D3
:1010D0003B20FFF772FF40F203313C20FFF76DFF2A
:1010E0004FF4A0513D20FFF768FF4FF400719220AC
:1010F000FFF763FF40F203319320FFF75EFF40F6F6
:101100000D019020FFF759FF41F218010320FFF76E
:1011100054FF40F273110720FFF74FFF00BD00B5E9
:1011200043F20801E320FFF748FF1221E720FFF711
:1011300044FF41F23121EF20FFF73FFF0021012062
:10114000FFF73BFF4FF4E0610220FFF736FF41F26B
:1011500030010320FFF731FF00210420FFF72DFFAE
:1011600040F207210820FFF728FF00210920FFF7A0
:1011700024FF00210A20FFF720FF00210C20FFF7A9
:101180001CFF00210D20FFF718FF00210F20FFF7A3
:1011900014FF00211020FFF710FF07211120FFF797
:1011A0000CFF00211220FFF708FF00211320FFF79A
:1011B00004FF4FF47A70FFF7F1FE41F290611020C6
:1011C000FFF7FBFE40F227211120FFF7F6FE322049
:1011D000FFF7E4FE1D211220FFF7EFFE3220FFF79C
:1011E000DDFE4FF400611320FFF7E7FE14212920F4
:1011F000FFF7E3FE0B212B20FFF7DFFE3220FFF786
:10120000CDFE00212020FFF7D8FE00212120FFF78E
:10121000D4FE07213020FFF7D0FE40F207713120C5
:10122000FFF7CBFE06213220FFF7C7FE40F2047124
:101230003520FFF7C2FE41F604713620FFF7BDFEF0
:1012400004213720FFF7B9FE00213820FFF7B5FE53
:1012500040F206713920FFF7B0FE40F201713C20E8
:10126000FFF7ABFE0F213D20FFF7A7FE0021502026
:10127000FFF7A3FEEF215120FFF79FFE0021522030
:10128000FFF79BFE40F23F115320FFF796FE4FF40D
:101290001C516020FFF791FE01216120FFF78DFEB8
:1012A00000216A20FFF789FE00218020FFF785FEDC
:1012B00000218120FFF781FE00218220FFF77DFEC3
:1012C00000218320FFF779FE00218420FFF775FEBF
:1012D00000218520FFF771FE10219020FFF76DFEA1
:1012E00000219220FFF769FE03219320FFF765FE9E
:1012F0004FF488719520FFF760FE00219720FFF7DB
:101300005CFE00219820FFF758FE41F218010320EF
:10131000FFF753FE40F273110720FFF74EFE00BDAA
:1013200008B54FF6FF70ADF8000003208DF80200FD
:1013300010208DF8030069461E48FFF79DF808BD90
:1013400008B54FF6FF70ADF8000003208DF80200DD
:1013500048208DF8030069461648FFF78DF808BD50
:1013600070B504464FF400701349086040100860DF
:101370002020091F08600F48C4602020091D086054
:10138000091F0860C0000860FFF7DAFF4FF48060B3
:10139000094908600748806885B20815091F086078
:1013A000FFF7BEFF4FF400700349091F086028468D
:1013B00070BD000000100140140C014008B501216F
:1013C0001820FFF715FB01212020FFF711FB4FF438
:1013D000E460ADF8000001208DF8020010208DF8C7
:1013E00003006946F648FFF747F8FFF799FFF4480E
:1013F0001030006840F4C460F1491031086008BD45
:1014000010B5FFF7DBFF0020FFF7AAFFED490880CA
:101410000846008848F23021884202D1FFF7EFFDEC
:1014200001E0FFF77CFE0020FFF79AFFE549088006
:1014300010BD01B5BDF80000E349088008BD01B545
:10144000BDF80000E149088008BD30B504460D46EE
:1014500021462020FFF7B1FD29462120FFF7ADFDF1
:1014600030BDDB4AD26891B24FF40072D44B1433D2
:101470001A6052101B1F1A6020221A60D44AD060D2
:1014800020221B1D1A601B1F1A60D2001A60520016
:101490001A60CF4AD1607047CD49C96888B24FF40D
:1014A0000071C74A14321160491011602021121FC7
:1014B00011602221C64AD1602021C14A1432116034
:1014C000121F1160C900116049001160C049C86055
:1014D00070472DE9F043064689461746002400254B
:1014E000A046B04649464046FFF7AFFF00BF1EE0AA
:1014F000FFF7D2FF00250FE037F814000121A940C3
:10150000084020B9B1480088FFF7ABFF03E0AE48C0
:101510000088FFF7A6FF6D1C102DEDD308F1010028
:1015200000F0FF0849464046FFF78FFF641C182C67
:10153000DED3BDE8F08370B505460E461446A4F12F
:101540002000C4B204EB4400A24901EB0012314672
:101550002846FFF7BEFF70BDF0B507460C460025D4
:1015600040F23F1609E0227831463846FFF7E3FFA4
:10157000A6F1100086B2641C6D1C207808B1142DF1
:10158000F1D3F0BD10B5044693A12046FFF7E4FF68
:1015900010BD30B50546002400210846FFF755FF71
:1015A000FFF77AFF00BF03E02846FFF75AFF641CED
:1015B000B4F5963FF8D330BDF0B504460D46164657
:1015C0001F46B44206DBA01B401C81B25020FFF72F
:1015D000F4FC03E000215020FFF7EFFC21465120EE
:1015E000FFF7EBFCBD4206DBE81B401C81B252203A
:1015F000FFF7E3FC03E000215220FFF7DEFC294661
:101600005320FFF7DAFC29462046FFF71EFFF0BD06
:1016100000B54FF4A073F022591EEF20FFF7CCFF66
:1016200041F218010320FFF7C8FC00BD2DE9F0418D
:101630000646884615461F46002441463046FFF7B9
:1016400004FF5FB9FFF728FF00BF04E05E48008891
:10165000FFF707FF641CAC42F8D310E000240CE055
:10166000FFF71AFF58480088FFF7FBFE701CC6B250
:1016700041463046FFF7E9FE641CAC42F0D3BDE8BA
:10168000F081F0B505460E4617461C46002322465B
:1016900031462846FFF7CAFFE919C8B2002322469F
:1016A0003146FFF7C3FF01233A4631462846FFF78C
:1016B000BDFF301B401C81B201233A462846FFF78C
:1016C000B5FFF0BD2DE9F04306460F4690460320D6
:1016D000A0EB4809002445466EE07A1991B2321910
:1016E000D0B2FFF7B2FEFFF7D7FE37480088FFF70A
:1016F000B8FE7A1B91B23219D0B2FFF7A6FEFFF7FF
:10170000CBFE31480088FFF7ACFE7A1991B2321B4C
:10171000D0B2FFF79AFEFFF7BFFE2B480088FFF715
:10172000A0FE7A1B91B2321BD0B2FFF78EFEFFF7FC
:10173000B3FE25480088FFF794FE3A1991B272195A
:10174000D0B2FFF782FEFFF7A7FE1F480088FFF721
:1017500088FE3A1B91B27219D0B2FFF776FEFFF7FE
:101760009BFE19480088FFF77CFE3A1991B2721B64
:10177000D0B2FFF76AFEFFF78FFE13480088FFF72D
:1017800070FE3A1B91B2721BD0B2FFF75EFEFFF7FC
:1017900083FE0D480088FFF764FEB9F1000F04DAFC
:1017A000062000EB8400814405E0601B0A2101EB68
:1017B000800081446D1E641CAC428ED9BDE8F0836C
:1017C000000C01402C000020280000202A000020EE
:1017D00000100140CE2500082020202020202020BD
:1017E0002020202020202020202020200000000079
:1017F00070B506460024002540F23F110020FFF797
:1018000024FEFFF749FE00BF14E000250FE056F864
:1018100024000121A940084020B95F480088FFF753
:1018200020FE03E05D480088FFF71BFE6D1C202DA5
:10183000EDD3641CB4F5166FE7D370BD70B50446E4
:10184000002500266688A08846EA00466589A089AA
:1018500045EA0045701B46082C4441F2080103206C
:10186000FFF7ABFBFFF718FE002504E02088FFF729
:10187000F8FDA41C6D1CB542F8D341F218010320F9
:10188000FFF79BFB70BD10B54FF400704449086032
:10189000401008602020091F086022204149C860CC
:1018A00020203F490860091F0860C0000860FFF75A
:1018B00047FD4FF480603A4908603A48806884B236
:1018C0000815091F0860FFF72BFD4FF4007034491D
:1018D000091F0860204610BD00B500211020FFF749
:1018E0006CFB00211120FFF768FB00211220FFF79D
:1018F00064FB00211320FFF760FB1420FFF74EFB71
:1019000041F2B0711020FFF758FB40F2371111205F
:10191000FFF753FB0520FFF741FB40F2391112207E
:10192000FFF74BFB0520FFF739FB4FF4E85113207D
:10193000FFF743FB13212920FFF73FFB0520FFF7AB
:101940002DFB40F273110720FFF737FB00BD00B5F8
:1019500040F273110720FFF730FB00BD00B50021F6
:101960000720FFF72AFB00BD30B5054600210846D9
:10197000FFF76BFDFFF790FD002409E015F8142038
:101980006100491C695C42EA0120FFF76AFD641CA2
:10199000B4F5963FF2DB30BD2A000020280000207D
:1019A000140C014000100140D749086000BFD6491F
:1019B00009680029FBD1704770B5044600F088FB28
:1019C000A02000F01FFC00F0BFFB204600F01AFC36
:1019D00000F0BAFB00F07CFBA12000F013FC00F04B
:1019E000B3FB00F03BFC054600F0AEFB00F08EFBC5
:1019F000284670BD70B505460C4600F069FBA02076
:101A000000F000FC00F0A0FB284600F0FBFB00F01B
:101A10009BFB204600F0F6FB00F096FB00F076FB07
:101A200070BD10B50421B948FEF7B9FD002838D1C2
:101A30006420FFF7B9FF0421B448FEF7B0FD002889
:101A40002FD1B3480068401CB14908600846B1A2D4
:101A5000B4A10368B54800F043FCB4496020FFF727
:101A60007BFDFF20FFF7A8FF00EB80004000B0499E
:101A70000860084600686430086008460068B0F5F1
:101A80007A7F01DD00200860A94800680A2190FBE8
:101A9000F1F0C4B22146FF20FFF7ACFF0220FFF7B0
:101AA00083FF10BD10B502219848FEF778FDC8B934
:101AB0006420FFF779FF02219448FEF770FD88B992
:101AC0009C480068401C9B49086008469AA295A162
:101AD0000368964800F004FC94494820FFF73CFD59
:101AE0009449086810BD10B54FF480719648FEF710
:101AF00056FD002839D16420FFF756FF4FF480715E
:101B00009148FEF74CFD00282FD190480068401CFA
:101B10008E49086008468EA282A10368834800F0BF
:101B2000DFFB82493020FFF717FD0020FFF744FF5D
:101B300000EB800040008A49086008460068643075
:101B4000086008460068B0F57A7F01DD0020086073
:101B5000834800680A2190FBF1F0C4B221460020BE
:101B6000FFF748FF0220FFF71FFF10BD10B501214E
:101B70007548FEF714FDC8B96420FFF715FF012171
:101B80007148FEF70CFD88B976480068401C75491D
:101B90000860084674A263A10368644800F0A0FBD3
:101BA00062491820FFF7D8FC6E49086810BD08B5D7
:101BB000714800684FF47A72B0FBF2F1481EB0F140
:101BC000807F00D31BE0481E4FF0E0225061501789
:101BD0000F22002807DA13071D0E684B00F00F04D0
:101BE000241F1D5503E013071C0E654B1C5400BF3A
:101BF00000204FF0E02290610720106100BF00F04C
:101C00004FF900F0C4F9FFF7FBFB0020FFF7C1FC20
:101C10000020FFF714FC4FF6FF70FFF70AFC00F0FE
:101C200049FB0020FFF7C8FE564908600220FFF775
:101C3000BBFEFF20FFF7C0FE534908600220FFF7FC
:101C4000B3FE01210420FEF7D3FE0420ADF800000E
:101C500003208DF8020010208DF8030069463A48F1
:101C6000FEF70AFC4DE0494849A22EA103682F481F
:101C700000F036FB2D49C020FFF76EFCFFF776FF22
:101C8000FFF731FFFFF70EFFFFF7CBFE424800786A
:101C900088B13FA241A1254800F022FB234918202A
:101CA000FFF75AFC012240F225513D48FFF74DF85D
:101CB0000020394908700020FFF77EFE3149086096
:101CC0000220FFF771FE2F4836A239A1036817489A
:101CD00000F006FB1549D820FFF73EFCFF20FFF778
:101CE0006BFE294908600220FFF75EFE264833A2FA
:101CF0002FA103680D4800F0F3FA0C49A820FFF764
:101D00002BFCB0E7704770473C000020000C0140FE
:101D10004C000020627574746F6E5F345F666C6196
:101D2000673A000025732564000000006000002071
:101D30005400002048000020627574746F6E5F3399
:101D40005F666C61673A00000008014044000020B3
:101D5000627574746F6E5F325F666C61673A000023
:101D60005000002040000020627574746F6E5F3177
:101D70005F666C61673A00000000002018ED00E02B
:101D800000E400E034000020380000203000002093
:101D900074696D655F733A00580000202573000078
:101DA000004400405041312C56414C3A00000000A4
:101DB0002573256425252020202020005041322C29
:101DC00056414C3A00000000704700BFFEE700BFDC
:101DD000FEE700BFFEE700BFFEE7704770477047B1
:101DE00010B52749086800EBD0714910A0EB4101FC
:101DF00021B904212348FEF7EEFB03E0042121482A
:101E0000FEF7E7FB1E480068401C1D4908600846B5
:101E10000068B0F57A7F06D1002008601A48006893
:101E2000401C1949086019480068401E174908609D
:101E300010BD10B540F225511548FFF76BF8F0B111
:101E400040F225511248FFF78FF81148FEF7E2FFE4
:101E5000C4B210480078401C0E4908700E4809783A
:101E60004454782C0BD100200A49087001200B49FA
:101E70000870002240F225510548FEF766FF10BDAC
:101E80005C00002000080140300000203C000020E1
:101E9000004400405900002092000020580000201B
:101EA00008B501210420FEF7A3FD01210820FEF75B
:101EB0009FFD40F21110ADF8000048208DF803009E
:101EC00001208DF8020069462248FEF7D5FA062067
:101ED000ADF8000069462048FEF7CEFA0121102037
:101EE000FEF786FD01212020FEF782FD4FF47F40A2
:101EF000ADF8000010208DF8030001208DF80200DD
:101F000069461648FEF7B8FA0420ADF800006946A5
:101F10001348FEF7B1FA08BD70B504460D4665B921
:101F200021460E48FEF755FB04210D48FEF751FBF4
:101F300004210B48FEF74FFB0BE021460748FEF754
:101F40004AFB04210648FEF744FB04210448FEF73F
:101F500042FB70BD00080140000C01400010014030
:101F60000014014008B54FF4C060FEF7A5FD26201F
:101F70008DF8000001208DF8010000208DF802008E
:101F800001208DF803006846FEF79BFD08BD00B5F3
:101F900085B001210420FEF72BFD01214804FEF746
:101FA00034FDFFF7DFFF0420ADF8100018208DF896
:101FB000130003208DF8120004A92148FEF75CFAF3
:101FC0000820ADF8100004208DF8130004A91C4867
:101FD000FEF752FA4FF4165000900020ADF80400BE
:101FE000ADF80600ADF80800ADF80C000C20ADF817
:101FF0000A0069461348FEF710FE012240F22551FF
:102000001048FEF7A2FE01210E48FEF792FE05B031
:1020100000BD70B50446002500BF605781B2094875
:10202000FEF7F4FE00BF80210648FEF75DFF0028A2
:10203000F9D0681CC5B2605D0028EED170BD00000B
:10204000000801400044004008B58020ADF80000C1
:1020500002208DF8020028208DF8030069469F4871
:10206000FEF70AFA08BD08B58020ADF8000002208E
:102070008DF8020010208DF8030069469748FEF79E
:10208000FBF908BD10B5044624B180219348FEF742
:10209000A0FA03E080219148FEF79DFA10BD10B52B
:1020A000044624B140218D48FEF793FA03E0402115
:1020B0008A48FEF790FA10BD10B580218748FEF7D8
:1020C0006EFA10BD002100E0491C8142FCD370472C
:1020D00010B50120FFF7D6FF4FF4FA70FFF7F2FFBB
:1020E0000120FFF7DCFF4FF4FA70FFF7EBFF002051
:1020F000FFF7C8FF4FF4FA70FFF7E4FF0020FFF787
:10210000CEFF4FF4FA70FFF7DDFF10BD10B50020D1
:10211000FFF7C5FF4FF4FA70FFF7D4FF0020FFF779
:10212000B1FF4FF4FA70FFF7CDFF0120FFF7B7FFC3
:102130004FF4FA70FFF7C6FF0120FFF7A3FF4FF43B
:10214000FA70FFF7BFFF10BD10B50524FFF77CFF45
:102150004FF4FA70FFF7B6FF0120FFF7A0FF4FF42E
:10216000FA70FFF7AFFF0CE0601E84B24FF4FA7014
:10217000FFF7A8FF2CB9FFF776FFFFF7C7FF002096
:1021800010BDFFF799FF0028EED1FFF76CFF00208C
:10219000FFF785FF4FF4FA70FFF794FF0120EFE798
:1021A00010B50020FFF76EFF4FF4FA70FFF78AFFBB
:1021B0004FF4FA70FFF786FF0120FFF770FF4FF42E
:1021C000FA70FFF77FFF0020FFF769FF4FF4FA7006
:1021D000FFF778FF10BD10B50120FFF753FF4FF454
:1021E000FA70FFF76FFF0120FFF759FF4FF4FA7005
:1021F000FFF768FF0020FFF752FF4FF4FA70FFF778
:1022000061FF10BD70B5044608251BE00020FFF7F4
:1022100046FF4FF4FA70FFF755FF04F08000FFF718
:1022200031FF4FF4FA70FFF74DFF6006040E4FF4D4
:10223000FA70FFF747FF0120FFF731FF4FF4FA7004
:10224000FFF740FF281EA5F10101CDB2DED1FFF757
:1022500026FF4FF4FA70FFF735FF70BD70B5082503
:102260000024FFF7F1FE16E06006040E0020FFF7E1
:1022700016FF4FF4FA70FFF725FF4FF4FA70FFF7DF
:1022800021FF0120FFF70BFF4FF4FA70FFF71AFF51
:10229000FFF712FF0443281EA5F10101CDB2E3D1DF
:1022A000FFF7FDFE4FF4FA70FFF70CFFFFF7DBFEC0
:1022B000204670BD08B501210820FEF799FBC0201B
:1022C000ADF8000002208DF8020010208DF8030008
:1022D00069460248FEF7D0F808BD0000000C014036
:1022E0000FB41CB5074B06AA7B44694600900598BD
:1022F00000F005F90020694600F014F91CBC5DF8F7
:1023000014FB0000390200002DE9F0410E4604469E
:10231000002020622046E168884730B3252805D098
:10232000D4E901219047206A401CF2E7E168204689
:1023300000278847050018D0A5F14100192802D8C8
:1023400020354FF400673246294620462760FDF7C6
:1023500007FF40B1012804D0F61D26F00706083615
:10236000D8E7361DD6E72846DAE7206ABDE8F081CF
:1023700070B50C460546012A05D02878800600D5A0
:10238000EA69002302E0012305E05B1C934202D2CC
:10239000E05C0028F9D1A869E618C01AA861286A8B
:1023A000184428622846AFF3008004E0D5E90121F3
:1023B00014F8010B9047B442F8D32846AFF30080DD
:1023C00070BD00002DE9F041064600241068752913
:1023D000314616A510D0AFF30080002802DA404243
:1023E00013A507E031688A0701D512A502E0490765
:1023F00004D511A5012401E0AFF3008000210A22D9
:1024000006F1240709E0B0FBF2FCB0FBF2F302FB9B
:102410001C00303078541846491C0028F3D123465C
:102420002A463046BDE8F04100F00BB8000000003D
:102430002D0000002B0000002000000070477047B6
:1024400070472DE9F0470D4699469246044600F143
:1024500024080168880604D5E06921F01001216094
:1024600000E00120A84201DD471B00E00027A16930
:102470007A1902EB0900081AA0612078C00602D47C
:102480002046AFF30080002608E0D4E901211AF8C5
:1024900006009047206A401C761C20624E45F4DB03
:1024A0002078C0060AD52046AFF3008006E0D4E9C4
:1024B000012130209047206A401C2062381EA7F17D
:1024C0000107F4DC07E0D4E9012118F80500904782
:1024D000206A401C2062281EA5F10105F3DC20467D
:1024E000AFF300802078000602D50220BDE8F08717
:1024F0000120FBE701694A1C02610878704700B5BA
:102500008FB0CDE901310021059105497944CDE92C
:10251000031011466846FFF7F7FE0FB000BD00003C
:10252000E5FFFFFF0A6802F8010B0A60704710B56B
:10253000436913B1AFF3008001E0FFF719FF0120F9
:1025400010BD127800F124010A7000224A700122A5
:10255000EDE711684FF0FF32E9E7754600F02CF81F
:10256000AE4605006946534620F00700854618B080
:1025700020B5FDF71FFEBDE820404FF000064FF0EC
:1025800000074FF000084FF0000B21F00701AC46A8
:10259000ACE8C009ACE8C009ACE8C009ACE8C009C7
:1025A0008D46704710B50446AFF300802046BDE865
:1025B0001040FDF7EABD000000487047A800002069
:1025C00001491820ABBEFEE726000200704700005C
:1025D00000000000000000000000000000000000FB
:1025E00000000000000000000000000000000000EB
:1025F00000000000000000000000000000000000DB
:1026000080018001800180018001800180018001C2
:1026100080018001800180018001000000008001B4
:102620008001000000000000000000000000000029
:102630000000CC00CC00CC00CC00CC00CC000000D2
:10264000000000000000000000000000000000008A
:10265000000000000000000000000000000000007A
:1026600000000000000000000000600C600C600C26
:1026700030063006FE1FFE1F300638071803FE1F07
:10268000FE1F180318038C018C018C010000000050
:102690008000E003F80F9C0E8C1C8C188C009800B6
:1026A000F801E007800E801C8C188C189C18B80C60
:1026B000F00FE00380008000000000000000000038
:1026C000000000000E181B0C110C1106110611035E
:1026D00011039B018E01C038C06C604460443044DB
:1026E00030441844186C0C38000000000000000052
:1026F000E001F0033807180618063003F001F00077
:10270000F8009C310E33061E061C061C063FFC73A7
:10271000F0210000000000000000000000000000A8
:1027200000000C000C000C000C000C000C00000061
:102730000000000000000000000000000000000099
:102740000000000000000000000000000000000089
:10275000000200038001C000C00060006000300083
:1027600030003000300030003000300030006000B9
:102770006000C000C00080010003000200000000F3
:1027800020006000C00080018001000300030006FB
:10279000000600060006000600060006000600030C
:1027A000000380018001C0006000200000000000E4
:1027B00000000000000000000000C000C000D806BB
:1027C000F807E001300338070000000000000000B7
:1027D00000000000000000000000000000000000F9
:1027E0000000000000000000000080018001800166
:1027F00080018001FC3FFC3F80018001800180015D
:102800008001000000000000000000000000000047
:1028100000000000000000000000000000000000B8
:1028200000000000000000000000000000000000A8
:102830008001800100010001800000000000000014
:102840000000000000000000000000000000000088
:10285000000000000000E007E007000000000000AA
:102860000000000000000000000000000000000068
:102870000000000000000000000000000000000058
:102880000000000000000000000000000000000048
:10289000C000C000000000000000000000000000B8
:1028A000000C000C000600060006000300030003F5
:1028B0008003800180018001C000C000C000600072
:1028C00060000000000000000000000000000000A8
:1028D000E003F007380E180C0C180C180C180C1824
:1028E0000C180C180C180C180C18180C380EF007D3
:1028F000E0030000000000000000000000000000F5
:1029000000018001C001F00198018801800180016F
:1029100080018001800180018001800180018001AF
:102920008001000000000000000000000000000026
:10293000E003F80F180C0C180C1800180018000C05
:10294000000600038001C000600030001800FC1F7A
:10295000FC1F00000000000000000000000000005C
:10296000E001F807180E0C0C0C0C000C0006C0035C
:10297000C007000C001800180C180C18180CF807E9
:10298000E003000000000000000000000000000064
:10299000000C000E000F000F800DC00C600C600CCE
:1029A000300C180C0C0CFC3FFC3F000C000C000C15
:1029B000000C00000000000000000000000000000B
:1029C000F80FF80F180018000C00EC03FC071C0EA1
:1029D000001C0018001800180C181C0C180EF80722
:1029E000E003000000000000000000000000000004
:1029F000C007F00F381C181818000C00CC03EC0F9F
:102A00003C0E1C1C0C180C180C18181C380EF00767
:102A1000E0030000000000000000000000000000D3
:102A2000FC1FFC1F000C0006000600038003800151
:102A3000C001C000E00060006000700030003000A5
:102A40003000000000000000000000000000000056
:102A5000E003F007380E180C180C180C3806F007B5
:102A6000F007180C0C180C180C180C18380CF80F70
:102A7000E003000000000000000000000000000073
:102A8000E003F007380E1C0C0C180C180C181C1C5A
:102A9000381EF81BE0190018000C000C1C0EF8077B
:102AA000F001000000000000000000000000000035
:102AB0000000000000000000000080018001000014
:102AC0000000000000000000000000000000800185
:102AD0008001000000000000000000000000000075
:102AE00000000000000000000000800180010000E4
:102AF0000000000000000000000000000000800155
:102B000080010001000180000000000000000000C2
:102B100000000000000000000000000000000010A5
:102B2000001C800FE003F8001800F800E003800F9D
:102B3000001C001000000000000000000000000069
:102B40000000000000000000000000000000F81F6E
:102B5000000000000000F81F00000000000000005E
:102B60000000000000000000000000000000000065
:102B7000000000000000000000000000000008004D
:102B80003800F001C007001F0018001FC007F00147
:102B900038000800000000000000000000000000F5
:102BA000E003F80F180C0C180C180018000C0006A5
:102BB00000038001C000C000C00000000000C00091
:102BC000C000000000000000000000000000000045
:102BD0000000E00718180420C229224A11440944C1
:102BE0000944094409221113E20C02400420181878
:102BF000E0070000000000000000000000000000EE
:102C000080038003C006C006C006600C600C30184C
:102C100030183018F83FF83F1C700C600C6006C08C
:102C200006C00000000000000000000000000000DE
:102C3000FC03FC0F0C0C0C180C180C180C0CFC07EB
:102C4000FC0F0C180C300C300C300C300C18FC1F26
:102C5000FC07000000000000000000000000000071
:102C6000C007F01F38381C300C70066006000600E4
:102C7000060006000600060006600C701C30F01FFF
:102C8000E00700000000000000000000000000005D
:102C9000FE03FE0F060E0618061806300630063034
:102CA000063006300630063006180618060EFE0FEF
:102CB000FE03000000000000000000000000000013
:102CC000FC3FFC3F0C000C000C000C000C00FC1F37
:102CD000FC1F0C000C000C000C000C000C00FC3F56
:102CE000FC3F0000000000000000000000000000A9
:102CF000F83FF83F18001800180018001800F81FD7
:102D0000F81F180018001800180018001800180004
:102D1000180000000000000000000000000000009B
:102D2000E00FF83F3C780E6006E007C003000300A8
:102D300003FE03FE03C007C006C00EC03CF0F83F10
:102D4000E00F000000000000000000000000000094
:102D50000C300C300C300C300C300C300C30FC3F94
:102D6000FC3F0C300C300C300C300C300C300C3084
:102D70000C30000000000000000000000000000017
:102D8000800180018001800180018001800180013B
:102D9000800180018001800180018001800180012B
:102DA00080010000000000000000000000000000A2
:102DB00000060006000600060006000600060006E3
:102DC0000006000600060006180618063807F0037D
:102DD000E001000000000000000000000000000012
:102DE00006300618060C060606038601C6006600B5
:102DF0007600DE008E0106030606060C0618063075
:102E0000066000000000000000000000000000005C
:102E100018001800180018001800180018001800F2
:102E20001800180018001800180018001800F81FE3
:102E3000F81F00000000000000000000000000007B
:102E40000EE01EF01EF01EF036D836D836D836D832
:102E500066CC66CC66CCC6C6C6C6C6C6C6C686C363
:102E600086C3000000000000000000000000000019
:102E70000C301C303C303C306C306C30CC30CC30C2
:102E80008C310C330C330C360C360C3C0C3C0C38AF
:102E90000C300000000000000000000000000000F6
:102EA000E007F81F1C380E70066003C003C003C0A3
:102EB00003C003C003C003C006600E701C38F81FB7
:102EC000E00700000000000000000000000000001B
:102ED000FC0FFC1F0C380C300C300C300C300C1874
:102EE000FC1FFC070C000C000C000C000C000C007C
:102EF0000C000000000000000000000000000000C6
:102F0000E007F81F1C380E70066003E003C003C022
:102F100003C003C003C007E006630E3F1C3CF83F3C
:102F2000E0F700C00000000000000000000000000A
:102F3000FE0FFE1F06380630063006300638FE1F2C
:102F4000FE0706030606060C0618061806300630AD
:102F5000066000000000000000000000000000000B
:102F6000E003F80F1C0C0C180C180C001C00F803E4
:102F7000E00F001E0038063006300E301C1CF80F23
:102F8000E00700000000000000000000000000005A
:102F9000FE7FFE7F80018001800180018001800131
:102FA0008001800180018001800180018001800119
:102FB0008001000000000000000000000000000090
:102FC0000C300C300C300C300C300C300C300C3021
:102FD0000C300C300C300C300C300C301818F81F42
:102FE000E0070000000000000000000000000000FA
:102FF00003600630063006300C180C180C18180C3C
:10300000180C380E30063006700760036003C001EC
:10301000C0010000000000000000000000000000EF
:103020000360C361C361C36166336633663366336D
:10303000663366336C1B6C1B6C1B2C1A3C1E380EE3
:10304000380E00000000000000000000000000003A
:103050000FE00C7018303018700C600EC007800341
:103060008003C003E006700C301C18180C300E6092
:1030700007E0000000000000000000000000000069
:1030800003C006600C301C383818300C6006E007AE
:10309000C0038001800180018001800180018001E6
:1030A000800100000000000000000000000000009F
:1030B000FC7FFC7F006000300018000C000600035D
:1030C0008001C0006000300018000C000600FE7F88
:1030D000FE7F000000000000000000000000000073
:1030E000E003E003600060006000600060006000DA
:1030F00060006000600060006000600060006000D0
:103100006000600060006000E003E0030000000079
:1031100030003000600060006000C000C000C000EF
:10312000C00180018001800100030003000300064C
:103130000006000000000000000000000000000089
:10314000E003E003000300030003000300030003A7
:103150000003000300030003000300030003000357
:103160000003000300030003E003E003000000008D
:103170000000C001C0016003600360033006300638
:10318000180C180C000000000000000000000000F7
:10319000000000000000000000000000000000002F
:1031A000000000000000000000000000000000001F
:1031B000000000000000000000000000000000000F
:1031C000FFFFFFFF00000000000000000000000003
:1031D0000C000C000C000C000C000C0000000000A7
:1031E00000000000000000000000000000000000DF
:1031F00000000000000000000000000000000000CF
:1032000000000000000000000000F003F8071C0CA4
:103210000C0C000FF00FF80C0C0C0C0C1C0FF80F22
:10322000F018000000000000000000000000000096
:1032300018001800180018001800D803F80F380CF0
:10324000181818181818181818181818380CF80F13
:10325000D803000000000000000000000000000093
:1032600000000000000000000000C003F007300E66
:10327000180C1800180018001800180C300EF00771
:10328000C00300000000000000000000000000007B
:1032900000180018001800180018C01BF01F301C80
:1032A000181818181818181818181818301CF01FA3
:1032B000C01B000000000000000000000000000033
:1032C00000000000000000000000C003F00F300C00
:1032D0001818F81FF81F180018003818301CF00FC5
:1032E000C007000000000000000000000000000017
:1032F000800FC00FC000C000C000F007F007C00082
:10330000C000C000C000C000C000C000C000C000BD
:10331000C0000000000000000000000000000000ED
:1033200000000000000000000000E00DF80F180E83
:103330000C0C0C0C0C0C0C0C0C0C0C0C180EF80FD0
:10334000E00D000C0C0C1C06F807F001000000005A
:1033500018001800180018001800D807F80F381CBB
:1033600018181818181818181818181818181818DD
:10337000181800000000000000000000000000001D
:10338000C000C000000000000000C000C000C0007D
:10339000C000C000C000C000C000C000C000C0002D
:1033A000C00000000000000000000000000000005D
:1033B000C000C000000000000000C000C000C0004D
:1033C000C000C000C000C000C000C000C000C000FD
:1033D000C000C000C000C000F8007800000000007D
:1033E0000C000C000C000C000C000C0C0C060C0368
:1033F0008C01CC006C00FC009C018C030C030C06BF
:103400000C0C0000000000000000000000000000A4
:10341000C000C000C000C000C000C000C000C000AC
:10342000C000C000C000C000C000C000C000C0009C
:10343000C0000000000000000000000000000000CC
:10344000000000000000000000007C3CFF7EC7E39D
:1034500083C183C183C183C183C183C183C183C14C
:1034600083C1000000000000000000000000000018
:10347000000000000000000000009807F80F381C52
:1034800018181818181818181818181818181818BC
:1034900018180000000000000000000000000000FC
:1034A00000000000000000000000C003F00F300C1E
:1034B000181818181818181818181818300CF00FB1
:1034C000C003000000000000000000000000000039
:1034D00000000000000000000000D803F80F380CC6
:1034E000181818181818181818181818380CF80F71
:1034F000D803180018001800180018000000000079
:1035000000000000000000000000C01BF01F301C85
:10351000181818181818181818181818301CF01F30
:10352000C01B001800180018001800180000000048
:1035300000000000000000000000B007F003700071
:1035400030003000300030003000300030003000FB
:10355000300000000000000000000000000000003B
:1035600000000000000000000000E003F003380E3F
:10357000180C3800F003C007000C180C380EF007C8
:10358000E003000000000000000000000000000058
:1035900000008000C000C000C000F007F007C000BD
:1035A000C000C000C000C000C000C000C000C00714
:1035B0008007000000000000000000000000000084
:1035C000000000000000000000001818181818186B
:1035D000181818181818181818181818381CF01F68
:1035E000E0190000000000000000000000000000E2
:1035F000000000000000000000000C18180C180C5F
:10360000180C300630063006600360036003C0010A
:10361000C0010000000000000000000000000000E9
:1036200000000000000000000000C141C141C36172
:103630006363636363633636363636361C1C1C1C84
:103640001C1C000000000000000000000000000042
:10365000000000000000000000001C38381C300C86
:10366000600660036003600360036006300C381C72
:103670001C380000000000000000000000000000F6
:103680000000000000000000000018303018301862
:103690007018600C600CE00CC006C006800380034C
:1036A000800380018001C001F00070000000000074
:1036B00000000000000000000000FC1FFC1F000CC8
:1036C000000600038001C000600030001800FC1FED
:1036D000FC1F0000000000000000000000000000CF
:1036E00000038001C000C000C000C000C000C000D6
:1036F00060006000300060004000C000C000C000FA
:10370000C000C000C00080010003000000000000F5
:1037100080018001800180018001800180018001A1
:103720008001800180018001800180018001800191
:103730008001800180018001800180010000000083
:103740006000C000C0018001800180018001800113
:1037500000030003000600030001800180018001D6
:10376000800180018001C0006000000000000000B6
:103770000000000000000000000000000000F01049
:10378000F81F080F0000000000000000000000000B
:103790000000000000000000000000000000000029
:1037A000C037000800000020600000002801000869
:1037B0002038000860000020A8060000440100082E
:1037C00000A24A04000000000000000001020304FF
:1037D00006070809000000000102030401020304B7
:1037E00006070809020406080000FFFF00000000A9
:1037F00000000000000000000000000000000000C9
:1038000000000000000000000000000000000000B8
:103810002003000064000000000000000000000021
:04000005080000ED02
:00000001FF
