:020000040800F2
:1000000030070020A901000813290008152900085D
:10001000192900081D2900082129000800000000F6
:100020000000000000000000000000002729000878
:10003000252900080000000029290008F3280008ED
:10004000C3010008C3010008C3010008E12800083B
:10005000C3010008C3010008C3010008C301000870
:10006000C3010008C3010008C3010008C301000860
:10007000C3010008C3010008C3010008C301000850
:10008000C3010008C3010008C3010008C301000840
:10009000C3010008C3010008C3010008C301000830
:1000A000C3010008C3010008C3010008C301000820
:1000B000C3010008C3010008C3010008C301000810
:1000C000C3010008C3010008C3010008C301000800
:1000D000C3010008C301000895280008C3010008F7
:1000E000C3010008C3010008C301000800F002F8C2
:1000F00000F04AF80AA090E8000C82448344AAF178
:100100000107DA4501D100F03FF8AFF2090EBAE875
:100110000F0013F0010F18BFFB1A43F0010318473B
:10012000B45B0000D45B0000103A24BF78C878C1EB
:10013000FAD8520724BF30C830C144BF04680C60ED
:10014000704700000023002400250026103A28BF35
:1001500078C1FBD8520728BF30C148BF0B60704739
:10016000662904F08384642902F0B8860020704771
:100170001FB503F0FDF904000020002103F040FF4B
:10018000E0601FBD10B510BD03F0EEFA1146FFF799
:10019000EFFF02F0A4FA03F00CFB03B4FFF7F2FF49
:1001A00003BC03F04FFB00000948804709480047A3
:1001B000FEE7FEE7FEE7FEE7FEE7FEE7FEE7FEE717
:1001C000FEE7FEE704480549054A064B7047000074
:1001D000C7020008ED0000083001002030070020B1
:1001E00030030020300300200CB500200190009067
:1001F0006C48006840F480306A49086000BF694874
:10020000006800F4003000900198401C01900098B4
:1002100018B90198B0F5A06FF1D16248006800F4F8
:10022000003010B10120009001E000200090009803
:10023000012843D15C48006840F010005A4908602A
:100240000846006820F0030008600846006840F097
:1002500002000860534840685249486008464068B8
:1002600048600846406840F480604860084640683E
:1002700020F47C1048600846406840F4E81048606C
:100280000846006840F08070086000BF454800687C
:1002900000F000700028F9D04248406820F00300C8
:1002A000404948600846406840F00200486000BF8E
:1002B0003C48406800F00C000828F9D10CBD10B58E
:1002C000FFF792FF10BD10B53648006840F00100FE
:1002D000344908600846406834490840314948605C
:1002E00008460068324908402E4908600846006800
:1002F00020F4802008600846406820F4FE00486032
:100300004FF41F008860FFF7DAFF4FF000602949C3
:10031000086010BD10B5002100200022214B5B6851
:1003200003F00C0121B1042906D0082928D107E0E7
:10033000214B224C236027E01F4B204C236023E0FD
:10034000184B5B6803F47010164B5B6803F4803243
:10035000022303EB904022B9194B4343174C23600F
:100360000DE0104B5B6803F4003323B1144B43439F
:10037000124C236003E0104B4343104C236003E016
:100380000D4B0E4C236000BF00BF064B5B68C3F3F0
:1003900003130C4CE15C094B1B68CB40074C2360FA
:1003A00010BD000000100240002002400000FFF8D5
:1003B000FFFFF6FE08ED00E000127A0000000020CA
:1003C00000093D000400002010B50446CC488442DA
:1003D00008D10121042000F02DFB0021042000F0B1
:1003E00029FB46E0C748844208D10121082000F0DB
:1003F00021FB0021082000F01DFB3AE0C2488442A6
:1004000008D10121102000F015FB0021102000F080
:1004100011FB2EE0BD48844208D10121202000F0CC
:1004200009FB0021202000F005FB22E0B8488442AF
:1004300008D10121402000F0FDFA0021402000F009
:10044000F9FA16E0B348844208D10121802000F077
:10045000F1FA0021802000F0EDFA0AE0AE48844273
:1004600007D10121801500F0E5FA0021A01500F068
:10047000E1FA10BD10B50121084600F0DBFA0021B9
:10048000012000F0D7FA10BD2DE9F0410246002509
:100490000026002000230024002791F803C00CF060
:1004A0000F0591F803C00CF0100CBCF1000F03D045
:1004B00091F802C04CEA050591F800C0BCF1000FAC
:1004C00031D0146800202BE04FF0010C0CFA00F33F
:1004D000B1F800C00CEA03069E4220D183004FF021
:1004E0000F0C0CFA03F7BC4305FA03FC4CEA0404B6
:1004F00091F803C0BCF1280F06D14FF0010C0CFAA3
:1005000000FCC2F814C00AE091F803C0BCF1480F27
:1005100005D14FF0010C0CFA00FCC2F810C0401CD1
:100520000828D1D31460B1F800C0BCF1FF0F34DD4E
:10053000546800202EE000F1080C4FF0010808FA82
:100540000CF3B1F800C00CEA03069E4221D18300EF
:100550004FF00F0C0CFA03F7BC4305FA03FC4CEA0E
:10056000040491F803C0BCF1280F05D100F1080C78
:1005700008FA0CF8C2F8148091F803C0BCF1480FD7
:1005800007D100F1080C4FF0010808FA0CF8C2F886
:100590001080401C0828CED35460BDE8F0814FF68F
:1005A000FF710180022181700421C17070470246F1
:1005B000002093680B400BB1012000E00020704741
:1005C0000146886880B2704702460020D3680B401D
:1005D0000BB1012000E0002070470146C86880B2DE
:1005E000704701617047416170470AB1016100E0E5
:1005F00041617047C16070474FF480320A438261A5
:100600008161826182698269704702460020434BA2
:1006100018684FF68073184040EA021008433F4BB9
:10062000186070473E49C8617047F0B50A4600231C
:1006300000240021002500F00046B6F1004F02D151
:10064000364EF16901E0354E7168C0F3034583B25F
:1006500000F44016B6F5401F08D121F070612F4E0E
:10066000766826F070662D4F7E6012E000F48016EA
:10067000B6F5801F06D1032606FA05F4A14341F022
:10068000706106E0460D360103FA06F6B14341F00B
:10069000706122B1460D360103FA06F6314300F0CF
:1006A0000046B6F1004F02D11C4EF16101E01B4E35
:1006B0007160F0BD30B500228B071C0F0F2303FAC9
:1006C00004F2164B08338C1053F824309343134C28
:1006D00008348D1044F8253023468C1053F824300C
:1006E0008C07240F00FA04F423430C4C08348D10BB
:1006F00044F8253030BD0A49DC31086070470000FD
:1007000000080140000C01400010014000140140AD
:1007100000180140001C0140002001400000014081
:1007200000002042DF48006840F00100DD49086019
:1007300008464068DC490840DA49486008460068D5
:10074000DA490840D74908600846006820F480204C
:1007500008600846406820F4FE0048604FF41F001F
:1007600088607047CF49096821F48031CD4A116013
:100770001146096821F480211160B0F5803F03D053
:10078000B0F5802F0ED106E0C649096841F48031EA
:10079000C44A116007E0C349096841F4A021C14A75
:1007A000116000E000BF00BF704710B50146002295
:1007B000002300204A11012A02D1BA4C236806E026
:1007C000022A02D1B74C236A01E0B64C636A01F0F9
:1007D0001F02012494401C400CB1012000E00020C5
:1007E00010BD38B5002000900024002500BF312046
:1007F000FFF7DBFF05460098401C00900098B0F51D
:10080000A06F01D0002DF2D03120FFF7CEFF08B14C
:10081000012400E00024204638BD01460020A14A02
:10082000106820F0F80040EAC10010607047A0494D
:1008300008607047024600209A4B586820F47C10EC
:1008400042EA01031843974B58607047984908667D
:10085000704701460020934A506820F00300084387
:10086000506070478F48406800F00C0070470146A8
:1008700000208C4A506820F0F00008435060704718
:1008800001460020874A506820F4E0600843506029
:10089000704701460020834A506820F4605040EAC7
:1008A000C1005060704729B17E4A527A02437D4BA5
:1008B0005A7204E07B4A527A82437A4B5A727047EA
:1008C0007B49D8310860704701460020754A50685E
:1008D00020F440400843506070470021714A2032A4
:1008E0001170704A82F82010012802D004280AD121
:1008F00004E001216B4A2032117005E00521694AAC
:100900002032117000E000BF00BF704769490860E5
:1009100070476449096A0143624A11627047654938
:1009200044390860704730B50021002200240023BC
:100930005C4D6D6805F00C0121B1042905D0082932
:1009400023D105E05C4D056022E05B4D05601FE0B2
:10095000544D6D6805F47012524D6D6805F4803485
:10096000022505EB92421CB9544D554305600BE03E
:100970004C4D6D6805F400351DB1504D5543056073
:1009800002E04D4D5543056002E04B4D056000BF50
:1009900000BF444D6D6805F0F0010909484D6B5CDE
:1009A0000568DD4045603F4D6D6805F4E061090A6A
:1009B000434D6B5C4568DD4085603A4D6D6805F4DC
:1009C0006051C90A3E4D6B5C4568DD40C560354DE0
:1009D0006D6805F44041890B3A4D6B5CC568B5FB09
:1009E000F3F5056130BD29B12E4A526902432D4B02
:1009F0005A6104E02B4A526982432A4B5A6170477C
:100A000029B1284A92690243264B9A6104E0254A9B
:100A100092698243234B9A61704729B1214AD26976
:100A20000243204BDA6104E01E4AD26982431D4B27
:100A3000DA61704729B11B4AD2680243194BDA6068
:100A400004E0184AD2688243164BDA60704729B135
:100A5000144A12690243134B1A6104E0114A1269E5
:100A60008243104B1A617047124940390860704741
:100A70000F49C86470470B49C87170470948406AFC
:100A800040F0807007494862704701460020054ADF
:100A900092680A400AB1012000E000207047014935
:100AA00088727047001002400000FFF8FFFFF6FE5A
:100AB000000042428004424200127A0000093D00D8
:100AC000140000202400002031490143314A116004
:100AD000704770B5002100230F22C47804B32D4C59
:100AE000246804F4E064C4F5E064210AC1F104035D
:100AF000CA40447804FA03F1847814402143090180
:100B0000254C0678A155047804F01F050124AC405B
:100B100005786D11AD0005F1E025C5F8004109E04B
:100B2000047804F01F050124AC401C4D06787611B2
:100B300045F8264070BD1A4A0A400243154B1B1F58
:100B40001A60704739B1134A121D12680243114BE3
:100B50001B1D1A6006E00F4A121D126882430D4BDE
:100B60001B1D1A607047042808D14FF0E021096965
:100B700041F004014FF0E022116107E04FF0E02165
:100B8000096921F004014FF0E02211617047000073
:100B90000000FA050CED00E000E400E080E100E078
:100BA00080FFFF1F29B1504A128802434E4B1A8022
:100BB00004E04D4A128882434B4B1A8070474A48E2
:100BC000001D008840F010004749091D088070474B
:100BD0004548001D00884FF6EF7108404249091D45
:100BE00008807047002140481C300188001F0088A1
:100BF00041EA0040704700B50246FFF7E0FF100CE5
:100C0000394918310880091D0A80FFF7E1FF00BD4E
:100C100000B50246FFF7D3FFC2F303403249083163
:100C20000880091D0A80FFF7D3FF00BD00B502460A
:100C3000FFF7C5FF100C2C4920310880091D0A80E0
:100C4000FFF7C6FF00BD00202749103109880907BA
:100C5000080B2549143109880843704700BF224812
:100C6000001D008800F020000028F8D070471E48C2
:100C7000001D00884FF6F77108401B49091D0880C8
:100C800000BF1948001D008800F008000028F8D0B7
:100C9000704701460020144A121D12880A400AB10A
:100CA000012000E0002070470F49091D0988814399
:100CB0000D4A121D11807047014600200A4A121D7C
:100CC00012880A40D0B2084A12880A4012B108B10C
:100CD000012000E0002070470349091D0988814375
:100CE000014A121D118070470028004010B50446CB
:100CF000FA48844208D101214015FFF79BFE0021EC
:100D00006015FFF797FE17E0F548844208D10121EE
:100D10000015FFF78FFE00212015FFF78BFE0BE07B
:100D2000F048844208D10121C803FFF783FE002167
:100D30004FF40040FFF77EFE10BD30B502460020A4
:100D400000235068E84C20400D790C6844EA0524E3
:100D5000204350609068E54C2040D1E902542C4378
:100D60004D7944EA450420439060D06A20F4700035
:100D70000C7C641EE4B2234340EA0350D06230BDD1
:100D800000210160017141718160C1600121017424
:100D9000704721B1826842F00102826003E08268FC
:100DA00022F001028260704721B1826842F48072B1
:100DB000826003E0826822F480728260704710B51E
:100DC0000023CBB21AB144681C43446002E044687B
:100DD0009C43446010BD816841F008018160704708
:100DE000014600208A6802F008020AB1012000E0F2
:100DF00000207047816841F004018160704701461E
:100E000000208A6802F004020AB1012000E00020FC
:100E1000704721B1826842F4A002826003E08268D8
:100E200022F4A00282607047014600208A6802F422
:100E300080020AB1012000E00020704710B50A4688
:100E400000210023416821F46041531E41EA4331EF
:100E5000416010BD21B1426842F40062426003E08B
:100E6000426822F4006242607047F0B504460D46C5
:100E700000200021092D11DDE068A5F10A0606EB2E
:100E80004607072606FA07F18843A5F10A0606EB8E
:100E9000460603FA06F10843E0600CE0206905EB22
:100EA0004507072606FA07F1884305EB450603FACE
:100EB00006F108432061072A0FDA606B561E06EB25
:100EC00086071F2606FA07F18843561E06EB86069C
:100ED00005FA06F10843606322E00D2A0FDA206B61
:100EE000D61F06EB86071F2606FA07F18843D61F92
:100EF00006EB860605FA06F10843206310E0E06A77
:100F0000A2F10D0606EB86071F2606FA07F18843B5
:100F1000A2F10D0606EB860605FA06F10843E0622B
:100F2000F0BD21B1826842F48012826003E08268E1
:100F300022F48012826070470146C86C80B270470C
:100F400066484C300068704721B1426842F48062C4
:100F5000426003E0426822F480624260704721B13F
:100F6000426842F48052426003E0426822F48052B8
:100F7000426070470A460021816821F4E041114334
:100F80008160704721B1826842F40042826003E0D0
:100F9000826822F400428260704721B1826842F484
:100FA0000212826003E0826822F4021282607047BB
:100FB000014600208A6802F400120AB1012000E014
:100FC00000207047F0B50446154600200022002698
:100FD000092911DDE068A1F10A0707EB470C072793
:100FE00007FA0CF29043A1F10A0707EB470703FA4F
:100FF00007F21043E0600CE0206901EB410C072789
:1010000007FA0CF2904301EB410703FA07F2104391
:101010002061A06BC0F30156EF1C06F1010CA7EB99
:101020000C0707EB870C1F2707FA0CF29043EF1C05
:1010300006F1010CA7EB0C0707EB870701FA07F293
:101040001043A063F0BD10B50A4600210023816B58
:1010500021F44011531E41EA0351816310BD08B5CC
:10106000002300930090009B0B440093009B1A60A8
:1010700008BD08B5024600200090009201F128004A
:10108000009B184400900098006880B208BD0A4692
:1010900000214168164B194011434160704741627D
:1010A000826270470A460021416821F01F01114306
:1010B0004160704740B109490831096841F40001B5
:1010C000064A0832116007E004490831096821F432
:1010D0000001024A083211607047000000240140FC
:1010E00000280140003C0140FFFEF0FFFDF7F1FF4A
:1010F000FFFD3FFF0246002013680B400BB10120AB
:1011000000E000207047CA430260704770B5024695
:101110000020002300240B125568CEB205EA060415
:1011200015681D4015B10CB1012000E0002070BD14
:1011300000220A12D34303607047000010B501205B
:10114000FFF792FC0020FFF78FFC10BD2A490860D2
:1011500070472949091F0860704727498431086092
:10116000704701460020254A10884FF67F42104004
:101170000843224A10807047014600201F4A108809
:101180004FF68072104008431C4A1080704708B523
:1011900000220092194A2C3A0092009A02440092CE
:1011A000009A116008BD08B5014600200090134860
:1011B0002C3800900098084400900098008808BDE2
:1011C0000D489C300068C0B270470C480830008859
:1011D00040F0010009490831088070470648A030F6
:1011E0000068C0B2704705480830008840F002002F
:1011F000024908310880704704860D422C6C00407B
:1012000010B501210807FFF722FC00214FF08050A4
:10121000FFF71DFC10BD2A49086270472849086184
:10122000704701460020274A106820F0E00008437C
:10123000106070472249A0310860704710B502461F
:101240000020204B186820F00300104318601E4B4C
:101250001B6843F004031C4C2360012901D130BFFB
:1012600000E020BF184B1B6823F00403164C2360DA
:1012700010BD1448006840F0040012490860084698
:10128000006840F0020008600F48006840F0040069
:101290000D49086000BF00BF30BF70470146002005
:1012A000084A52680A400AB1012000E00020704755
:1012B0000449096841EA8001024A11607047000050
:1012C00000000E420070004010ED00E010B5044632
:1012D000FB48844209D101218803FFF7ABFB0021C1
:1012E0004FF48040FFF7A6FB32E0F648844209D174
:1012F00001214804FFF7ABFB00214FF40030FFF75A
:10130000A6FB25E0F048844209D101218804FFF7BB
:101310009EFB00214FF48020FFF799FB18E0EB487B
:10132000844209D10121C804FFF791FB00214FF449
:101330000020FFF78CFB0BE0E548844208D1012137
:101340000805FFF784FB00214FF48010FFF77FFBB7
:1013500010BD2DE9F04786B005460E460024A24692
:1013600000BFA1460027B08900B100BF2F462C8ADC
:101370004CF6FF700440F08804432C82AC894EF692
:10138000F3100440B088318908437189084304434D
:10139000AC81AC8A4FF6FF400440B0890443AC8274
:1013A00001A8FFF7C0FAC648874202D1DDF810A0B5
:1013B00001E0DDF80CA0A88900F4004040B10AEB80
:1013C000CA0000EB0A1031684900B0FBF1F807E0F1
:1013D0000AEBCA0000EB0A1031688900B0FBF1F893
:1013E0006420B8FBF0F004012009642101FB10899E
:1013F000A88900F4004040B1322000EBC900B0FBE6
:10140000F1F000F00700044308E0322000EB09107F
:101410006421B0FBF1F000F00F0004432C8106B012
:10142000BDE8F0874FF41651016000218180C18032
:1014300001810C21418100218181704710B5024654
:101440000020108A4FF2FF0318400B884C8823437A
:101450008C882343CC8823431843108210BD00217D
:10146000018041808180C180704721B1828942F42E
:101470000052828104E082894DF6FF731A40828116
:101480007047F0B50346002400260025002040F6F2
:101490006A17B94200D100BF1846C1F3421401F0E7
:1014A0001F06012707FA06F5012C01D10C3004E0D4
:1014B000022C01D1103000E014301AB107682F431C
:1014C000076002E00768AF430760F0BD1AB1838A86
:1014D0000B43838202E0838A8B4383827047028AB4
:1014E0004FF6F0731A400282028A0A430282704762
:1014F00082894FF2FF731A40828182890A43828176
:10150000704721B1828942F00202828104E082891F
:101510004FF6FD731A4082817047028A4FF6DF73DF
:101520001A400282028A0A430282704721B1028A6B
:1015300042F48042028204E0028A4BF6FF731A40B2
:1015400002827047C1F30802828070470146888892
:10155000C0F308007047818941F001018181704723
:10156000028BD2B20283028B42EA012202837047CD
:10157000028B02F47F420283028B0A43028370478C
:1015800021B1828A42F02002828204E0828A4FF6F0
:10159000DF731A408282704721B1828A42F01002C2
:1015A000828204E0828A4FF6EF731A40828270478B
:1015B00021B1828A42F00802828204E0828A4FF6D8
:1015C000F7731A408282704721B1828942F4004247
:1015D000828103E08289C2F30E028281704721B1C9
:1015E000828A42F40062828204E0828A4FF2FF73B0
:1015F0001A4082827047828A4FF6FB731A408282B9
:10160000828A0A438282704721B1828A42F00202B2
:10161000828204E0828A4FF6FD731A40828270470C
:1016200002460020B1F5007F00D100BF13880B40B7
:101630000BB1012000E00020704701F40072B2F508
:10164000007F00D100BFCA430280704770B50246D8
:10165000002400230025002040F66A16B14200D184
:1016600000BFC1F3421501F01F03012606FA03F380
:10167000012D02D19689334006E0022D02D1168A4F
:10168000334001E0968A33400C12012606FA04F436
:101690001688344013B10CB1012000E0002070BD69
:1016A00010B50022002340F66A14A14200D100BF09
:1016B0000A1201249440A3B2DC43048010BD000050
:1016C000003801400044004000480040004C004009
:1016D00000500040002109E0002201E0531C9AB2B2
:1016E00040F6B8339A42F9DB4B1C99B28142F3DBE6
:1016F00070474FF40072FA4B1A6052101A602022A1
:101700001B1F1A60F74AD06020221B1D1A601B1F86
:101710001A60D2001A60F34AD16020221B1D1A60A1
:101720001B1F1A60D2001A60704700B5012100200B
:10173000FFF7DFFF4FF47A70FFF7CCFF00210120A5
:10174000FFF7D7FF41F290711020FFF7D2FF4FF45F
:101750001C516020FFF7CDFF01216120FFF7C9FF79
:1017600002214620FFF7C5FF48F210011320FFF7C2
:10177000C0FF48F2FE011220FFF7BBFF4FF4A0614B
:101780000220FFF7B6FF41F230010320FFF7B1FF5F
:1017900040F203313020FFF7ACFF40F2033131203B
:1017A000FFF7A7FF40F203313220FFF7A2FF4FF40B
:1017B00040713320FFF79DFF03213420FFF799FF8D
:1017C00040F203313520FFF794FF14213620FFF754
:1017D00090FF40F203313720FFF78BFF40F20331D7
:1017E0003820FFF786FF40F203313920FFF781FFF1
:1017F0004FF440713A20FFF77CFF03213B20FFF7B5
:1018000078FF40F203313C20FFF773FF4FF4A05103
:101810003D20FFF76EFF4FF400719220FFF769FF44
:1018200040F203319320FFF764FF40F60D01902052
:10183000FFF75FFF41F218010320FFF75AFF40F264
:1018400073110720FFF755FF00BD00B543F20801F3
:10185000E320FFF74EFF1221E720FFF74AFF41F296
:101860003121EF20FFF745FF00210120FFF741FF65
:101870004FF4E0610220FFF73CFF41F2300103200A
:10188000FFF737FF00210420FFF733FF40F2072165
:101890000820FFF72EFF00210920FFF72AFF002173
:1018A0000A20FFF726FF00210C20FFF722FF00216E
:1018B0000D20FFF71EFF00210F20FFF71AFF002168
:1018C0001020FFF716FF07211120FFF712FF00215C
:1018D0001220FFF70EFF00211320FFF70AFF4FF43D
:1018E0007A70FFF7F7FE41F290611020FFF701FFD9
:1018F00040F227211120FFF7FCFE3220FFF7EAFE1D
:101900001D211220FFF7F5FE3220FFF7E3FE4FF412
:1019100000611320FFF7EDFE14212920FFF7E9FEF7
:101920000B212B20FFF7E5FE3220FFF7D3FE00212D
:101930002020FFF7DEFE00212120FFF7DAFE07213D
:101940003020FFF7D6FE40F207713120FFF7D1FEBD
:1019500006213220FFF7CDFE40F204713520FFF75B
:10196000C8FE41F604713620FFF7C3FE042137207C
:10197000FFF7BFFE00213820FFF7BBFE40F20671E3
:101980003920FFF7B6FE40F201713C20FFF7B1FEAF
:101990000F213D20FFF7ADFE00215020FFF7A9FEEB
:1019A000EF215120FFF7A5FE00215220FFF7A1FEF5
:1019B00040F23F115320FFF79CFE4FF41C51602072
:1019C000FFF797FE01216120FFF793FE00216A20B7
:1019D000FFF78FFE00218020FFF78BFE0021812082
:1019E000FFF787FE00218220FFF783FE002183207E
:1019F000FFF77FFE00218420FFF77BFE002185207A
:101A0000FFF777FE10219020FFF773FE0021922050
:101A1000FFF76FFE03219320FFF76BFE4FF48871F1
:101A20009520FFF766FE00219720FFF762FE002158
:101A30009820FFF75EFE41F218010320FFF759FEE0
:101A400040F273110720FFF754FE00BD08B54FF6B2
:101A5000FF70ADF8000003208DF8020010208DF813
:101A6000030069461F48FEF70FFD08BD08B54FF695
:101A7000FF70ADF8000003208DF8020048208DF8BB
:101A8000030069461748FEF7FFFC08BD70B5044621
:101A90004FF4007012490860401008602020091FB0
:101AA00008601048C4602020091D0860091F0860F4
:101AB000C0000860FFF7DAFF4FF480600849086053
:101AC0000848806885B20815091F0860FFF7BEFF47
:101AD0004FF400700249091F0860284670BD0000DD
:101AE000140C01400010014008B501211820FEF738
:101AF00087FF01212020FEF783FF4FF4E460ADF85B
:101B0000000001208DF8020010208DF803006946C6
:101B1000F848FEF7B9FCFFF799FFF6481030006867
:101B200040F4C460F3491031086008BD10B5FFF7F8
:101B3000DBFF0020FFF7AAFFEF4908800846008876
:101B400048F23021884202D1FFF7EFFD01E0FFF7B4
:101B50007CFE0020FFF79AFFE749088010BD01B521
:101B6000BDF80000E549088008BD01B5BDF80000DA
:101B7000E349088008BD30B504460D4621462020C3
:101B8000FFF7B7FD29462120FFF7B3FD30BD4FF425
:101B90000071D84A143211604910121F11602021BF
:101BA0001160D849C8602021121D1160121F1160F8
:101BB000C90011604900116070474FF40070CD49B1
:101BC00014310860401008602020091F086022209E
:101BD000CC49C8602020C74914310860091F08603B
:101BE000C00008604000086070472DE9F0430646D9
:101BF0008946174600240025A046B046494640467F
:101C0000FFF7B9FF00BF1EE0FFF7D7FF00250FE089
:101C100037F814000121A940084020B9B8480088CD
:101C2000FFF7B5FF03E0B5480088FFF7B0FF6D1C74
:101C3000102DEDD308F1010000F0FF0849464046A1
:101C4000FFF799FF641C182CDED3BDE8F08370B554
:101C500005460E461446A4F12000C4B204EB44002D
:101C6000A94901EB001231462846FFF7BEFF70BDBF
:101C7000F0B507460C46002540F23F1609E02278F1
:101C800031463846FFF7E3FFA6F1100086B2641C28
:101C90006D1C207808B1142DF1D3F0BD10B50446A9
:101CA0009AA12046FFF7E4FF10BD30B50546002499
:101CB00000210846FFF75FFFFFF77FFF00BF03E04B
:101CC0002846FFF764FF641CB4F5963FF8D330BD97
:101CD000F0B504460D4616461F46B44206DBA01B6F
:101CE000401C81B25020FFF704FD03E0002150208A
:101CF000FFF7FFFC21465120FFF7FBFCBD4206DB4E
:101D0000E81B401C81B25220FFF7F3FC03E00021E6
:101D10005220FFF7EEFC29465320FFF7EAFC294644
:101D20002046FFF728FFF0BD00B54FF4A073F02266
:101D3000591EEF20FFF7CCFF41F218010320FFF7F7
:101D4000D8FC00BD2DE9F0410646884615461F46E1
:101D5000002441463046FFF70EFF5FB9FFF72DFF25
:101D600000BF04E065480088FFF711FF641CAC4227
:101D7000F8D310E000240CE0FFF71FFF5F48008855
:101D8000FFF705FF701CC6B241463046FFF7F3FE71
:101D9000641CAC42F0D3BDE8F081F0B505460E46B8
:101DA00017461C460023224631462846FFF7CAFF45
:101DB000E919C8B2002322463146FFF7C3FF0123C9
:101DC0003A4631462846FFF7BDFF301B401C81B222
:101DD00001233A462846FFF7B5FFF0BD2DE9F04351
:101DE00006460F4690460320A0EB480900244546CE
:101DF0006EE07A1991B23219D0B2FFF7BCFEFFF74C
:101E0000DCFE3E480088FFF7C2FE7A1B91B2321911
:101E1000D0B2FFF7B0FEFFF7D0FE38480088FFF7DA
:101E2000B6FE7A1991B2321BD0B2FFF7A4FEFFF7CB
:101E3000C4FE32480088FFF7AAFE7A1B91B2321B1B
:101E4000D0B2FFF798FEFFF7B8FE2C480088FFF7E6
:101E50009EFE3A1991B27219D0B2FFF78CFEFFF7CD
:101E6000ACFE26480088FFF792FE3A1B91B2721929
:101E7000D0B2FFF780FEFFF7A0FE20480088FFF7F2
:101E800086FE3A1991B2721BD0B2FFF774FEFFF7CB
:101E900094FE1A480088FFF77AFE3A1B91B2721B33
:101EA000D0B2FFF768FEFFF788FE14480088FFF7FE
:101EB0006EFEB9F1000F04DA062000EB84008144C5
:101EC00005E0601B0A2101EB800081446D1E641C4B
:101ED000AC428ED9BDE8F08370B5064600240025DB
:101EE00040F23F110020FFF746FEFFF766FE00BFFD
:101EF0002DE00000000C01402C00002028000020F4
:101F00002A00002000100140704A000820202020F4
:101F100020202020202020202020202020202020C1
:101F20000000000000250FE056F824000121A94020
:101F3000084020B95F480088FFF729FE03E05E48AB
:101F40000088FFF724FE6D1C202DEDD3641CB4F532
:101F5000166FE7D370BD70B504460025002666886D
:101F6000A08846EA00466589A08945EA0045701BBD
:101F700046082C4441F208010320FFF7BAFBFFF7A3
:101F80001CFE002504E02088FFF701FEA41C6D1C48
:101F9000B542F8D341F218010320FFF7AAFB70BD48
:101FA00010B54FF4007045490860401008602020CB
:101FB000091F086022204249C86020203F4908606C
:101FC000091F0860C0000860FFF750FD4FF48060F3
:101FD0003A4908603A48806884B20815091F0860C9
:101FE000FFF734FD4FF400703449091F08602046A4
:101FF00010BD00B500211020FFF77BFB0021112050
:10200000FFF777FB00211220FFF773FB002113205D
:10201000FFF76FFB1420FFF75DFB41F2B07110205A
:10202000FFF767FB40F237111120FFF762FB052035
:10203000FFF750FB40F239111220FFF75AFB052041
:10204000FFF748FB4FF4E8511320FFF752FB132131
:102050002920FFF74EFB0520FFF73CFB40F27311F0
:102060000720FFF746FB00BD00B540F273110720C3
:10207000FFF73FFB00BD00B500210720FFF739FB4C
:1020800000BD30B5054600210846FFF774FDFFF797
:1020900094FD002409E015F814206100491C695CD6
:1020A00042EA0120FFF773FD641CB4F5963FF2DBB2
:1020B00030BD00002A00002028000020140C014040
:1020C00000100140FE49086000BFFD490968002971
:1020D000FBD170472DE9F04F89B00020F949086025
:1020E000F94800683C2190FBF1F201FB12000890D6
:1020F000F548006890FBF1F090FBF1F201FB120053
:102100000790F14800684FF4616190FBF1F0069090
:10211000EE48006802F0A4FA04460D46EC48FEF7CB
:102120000BFF039002F018F980464FF06632E94B3E
:1021300002F062F9064601F079FFE749049002F0E7
:10214000BBFA059002F08CFA82460B46DDE90612D6
:102150000898CDE90045CDE9021204905246DFA16E
:10216000E54800F0A7FE0EE0E348D64A1268815C1D
:10217000E248FFF7E7F90A20FFF7A4FFD14800681B
:10218000401CD0490860DC48CE490968405C78288A
:10219000EAD109B0BDE8F08F2DE9F84FD8480068C2
:1021A0001421B0FBF1F201FB120010BB0121C84861
:1021B000FEF72FFE0520FFF785FFC548FEF7BCFEA2
:1021C000824602F0C9F806464FF06632C14B02F073
:1021D00013F904460022CB4B01F066FF80464246CD
:1021E0000B46C9A1C44800F065FEC3497820FFF73B
:1021F0003FFDFEF7F7FCB449086008460068C64991
:10220000884202DD0020FEF7F6FCAF4800683C2162
:1022100090FBF1F201FB1204AB48006890FBF1F077
:1022200090FBF1F201FB1205A74800684FF46161D1
:1022300090FBF1F62B463246B8A1AF48009400F06F
:1022400039FEAD49A820FFF713FDA048006802F051
:1022500007FA044622460B46B5A1A74800F02AFE1D
:10226000A5494820FFF704FDBDE8F88FF8B5A4485C
:1022700000684FF4FA71B0FBF1F201FB1200FA288A
:1022800024D2AFA14820FFF7F3FC8F4800683C211F
:1022900090FBF1F201FB12048B48006890FBF1F017
:1022A00090FBF1F201FB1205874800684FF4616171
:1022B00090FBF1F62B463246A5A18F48009400F022
:1022C000F9FD8D499020FFF7D3FC51E0A548006847
:1022D000C8B97D4800683C2190FBF1F090FBF1F219
:1022E00001FB1204784800684FF4616190FBF1F53E
:1022F00023462A469CA1804800F0DCFD7E499020C0
:10230000FFF7B6FC34E097480068012817D16E4803
:1023100000683C2190FBF1F201FB12046A4800685E
:102320004FF4616190FBF1F523462A4693A1724870
:1023300000F0C0FD70499020FFF79AFC18E0624859
:1023400000683C2190FBF1F201FB12045E4800683A
:1023500090FBF1F090FBF1F201FB120523462A46B7
:102360008BA1654800F0A6FD63499020FFF780FC33
:10237000F8BD2DE9FC5F8B49086800EBD07149106E
:10238000A0EB4101002971D101218748FEF70FF927
:1023900058B900BF01218448FEF709F90028F9D097
:1023A00082480068401C814908608049086800EB49
:1023B000D0714910A0EB410100294ED17CA1182019
:1023C000FFF756FC4148006802F04AF904464FF016
:1023D0006632404B02F010F8064601F027FE8246B6
:1023E000504602F03DF904460D463948FEF7A4FD7B
:1023F000834601F0B1FF4FF06632364BCDE9000164
:1024000001F0FAFF064600223E4B01F04DFE8046E9
:1024100022462B4602F0EEF819D839480068C82148
:10242000B0FBF1F201FB120064280AD201214FF641
:10243000FF7000F0CBFC00214FF4807000F0C6FC70
:1024400014E001214FF6FF7000F0C0FC0EE0012106
:102450004FF6FF7000F0BAFC08E058A11820FFF713
:1024600007FC01214FF6FF7000F0B0FC4FF48071C3
:102470004D48FEF79CF8D0B96420FFF723FE00BF5B
:102480004FF480714848FEF792F80028F8D045488C
:102490000068401C4349086000204C4908604FF622
:1024A000FF70FFF702FC08480068FEF7A4FB3D49F7
:1024B000086800EBD0714910A0EB4101012987E0C9
:1024C0003000002058000020480000203800002084
:1024D0000024014066660A4000F07F45252E3266E2
:1024E0002B252E32662B252E32643A252E32643A65
:1024F000252E32640A78000060000020004400406D
:102500003400002000FEAF402020563A252E3266CF
:1025100076202020202000007F5101002020543A06
:10252000252E32642D252E32642D252E3264000096
:1025300020204B3A252E316620202020200000004C
:1025400020202020202053657474696E67000000ED
:102550002020202020252E32642D252E32642D258A
:102560002E3264004C0000202020202020252E3216
:10257000642D252E32642D5F5F0000002020202076
:1025800020252E32642D5F5F2D252E326400000041
:1025900020202020205F5F2D252E32642D252E3215
:1025A00064000000400000200008014044000020BA
:1025B00020204C45443A4F4E2020200020204C45FE
:1025C000443A4F46462020200000000054000020DE
:1025D00079D1FFF74BFE02219D48FDF7E8FFA0B936
:1025E0006420FFF76FFD00BF02219948FDF7DFFF70
:1025F0000028F9D097480068401C964908600846B2
:102600000068022801DD0020086004219048FDF7E1
:10261000CEFF002861D16420FFF754FD00208E49D1
:10262000086000BF04218A48FDF7C1FF0028F9D0E7
:102630008848006878B988480068642805DD8748BC
:102640000068401C854908602AE084480068401EF4
:102650008249086024E07F48006801280FD17E4845
:102660000068642805DD7D4800683C307B490860CF
:1026700016E07A4800683C387849086010E07648EF
:102680000068642806DD7548006800F561607349DC
:10269000086005E071480068A0F561606F49086056
:1026A0006E4800686E49884204DD00206B4908606E
:1026B00013E008E06948006800280EDA6848401C0A
:1026C0006649086009E0FFF767FD6648006820B9C1
:1026D000FFF700FD012063490860BDE8FC9F00F0A2
:1026E00095FB00F0BDFA604800684FF47A72B0FBC9
:1026F000F2F1481EB0F1807F00D31BE0481E4FF07E
:10270000E022506150170F22002807DA13071D0E30
:10271000564B00F00F04241F1D5503E013071C0E39
:10272000534B1C5400BF00204FF0E0229061072063
:10273000106100BF00F068FA00F052FA4848001F2C
:10274000FEF759FAFFF7F2F94FF6FF70FFF7ADFA0F
:102750004FF6FF70FFF709FA0020FFF700FA00F0CC
:1027600029FA002000F0C6FA0A2804DA002000F056
:10277000C1FA002806DC0220FFF7A4FC012100209A
:1027800000F0D6FA002000F0B5FA054602F08EF807
:102790000446384901F090FF374908600220FFF7EE
:1027A00091FC00F0DDFA51E0FFF7E3FD33480078DB
:1027B000012840D13249C978A1F1300002F05EF819
:1027C000804601F04DFF06462E4A2F4B01F014FEC5
:1027D000044601F02BFC2849086026492648006879
:1027E00002F078F8054602F029F8C4B2214600202C
:1027F00000F09EFA0220FFF765FC00201F490870D8
:10280000012240F225512148FEF73BFE6F211F486F
:10281000FEF798FE0A20FFF755FC6B211B48FEF7D8
:1028200091FE0A20FFF74EFC0A211848FEF78AFEA7
:102830000A20FFF747FC0948006838B914480068C7
:1028400020B9FFF747FC012011490860ACE7000000
:10285000000C01404C0000203C00002048000020FB
:102860007F510100540000200000002018ED00E01E
:1028700000E400E000002041380000205C0000205F
:10288000BA0000209A9999999999B93F004400405B
:102890005000002010B540F225512448FEF7D6FE26
:1028A000E8B12248FEF752FE0A280CD1002240F27D
:1028B00025511E48FEF7E5FD01201D490870002046
:1028C0001C4908700BE01948FEF740FEC1B21948D8
:1028D00002780078401C174B18701748815410BDBF
:1028E00010B50120FEF7E8F910B10120FEF7F4F968
:1028F00010BD12480068401C10490860104800686C
:10290000401C0F4908600F480068401E0D490860D0
:102910007047704700BFFEE700BFFEE700BFFEE75D
:1029200000BFFEE77047704770470000004400405A
:102930005C0000205D000020BA0000203C00002068
:10294000340000203000002008B58020ADF80000E1
:1029500002208DF8020028208DF8030069469F4868
:10296000FDF792FD08BD08B58020ADF800000220FB
:102970008DF8020010208DF8030069469748FDF796
:1029800083FD08BD10B5044624B180219348FDF7AE
:1029900028FE03E080219148FDF725FE10BD10B50B
:1029A000044624B140218D48FDF71BFE03E0402181
:1029B0008A48FDF718FE10BD10B580218748FDF745
:1029C000F6FD10BD002100E0491C8142FCD3704798
:1029D00010B50120FFF7D6FF4FF4FA70FFF7F2FFB2
:1029E0000120FFF7DCFF4FF4FA70FFF7EBFF002048
:1029F000FFF7C8FF4FF4FA70FFF7E4FF0020FFF77E
:102A0000CEFF4FF4FA70FFF7DDFF10BD10B50020C8
:102A1000FFF7C5FF4FF4FA70FFF7D4FF0020FFF770
:102A2000B1FF4FF4FA70FFF7CDFF0120FFF7B7FFBA
:102A30004FF4FA70FFF7C6FF0120FFF7A3FF4FF432
:102A4000FA70FFF7BFFF10BD10B50524FFF77CFF3C
:102A50004FF4FA70FFF7B6FF0120FFF7A0FF4FF425
:102A6000FA70FFF7AFFF0CE0601E84B24FF4FA700B
:102A7000FFF7A8FF2CB9FFF776FFFFF7C7FF00208D
:102A800010BDFFF799FF0028EED1FFF76CFF002083
:102A9000FFF785FF4FF4FA70FFF794FF0120EFE78F
:102AA00010B50020FFF76EFF4FF4FA70FFF78AFFB2
:102AB0004FF4FA70FFF786FF0120FFF770FF4FF425
:102AC000FA70FFF77FFF0020FFF769FF4FF4FA70FD
:102AD000FFF778FF10BD10B50120FFF753FF4FF44B
:102AE000FA70FFF76FFF0120FFF759FF4FF4FA70FC
:102AF000FFF768FF0020FFF752FF4FF4FA70FFF76F
:102B000061FF10BD70B5044608251BE00020FFF7EB
:102B100046FF4FF4FA70FFF755FF04F08000FFF70F
:102B200031FF4FF4FA70FFF74DFF6006040E4FF4CB
:102B3000FA70FFF747FF0120FFF731FF4FF4FA70FB
:102B4000FFF740FF281EA5F10101CDB2DED1FFF74E
:102B500026FF4FF4FA70FFF735FF70BD70B50825FA
:102B60000024FFF7F1FE16E06006040E0020FFF7D8
:102B700016FF4FF4FA70FFF725FF4FF4FA70FFF7D6
:102B800021FF0120FFF70BFF4FF4FA70FFF71AFF48
:102B9000FFF712FF0443281EA5F10101CDB2E3D1D6
:102BA000FFF7FDFE4FF4FA70FFF70CFFFFF7DBFEB7
:102BB000204670BD08B501210820FDF721FFC02087
:102BC000ADF8000002208DF8020010208DF80300FF
:102BD00069460248FDF758FC08BD0000000C0140A2
:102BE00008B54FF4C060FDF76FFF03208DF80000BB
:102BF00000208DF801008DF8020001208DF80300FF
:102C00006846FDF766FF08BD10B501214FF0C050C2
:102C1000FDF703FF0120FEF7FEFAFEF78FFA012011
:102C2000FDF774FE00BF6120FDF7BFFD0028FAD05C
:102C30004FF40070FDF76DFE0120FDF770FEFEF70A
:102C400016F8FEF70BF801210846FDF7ABFFFEF77B
:102C500005F849F64040FDF7DBFFFDF7FFFF10BD2B
:102C600000B587B001214FF40270FDF7C9FE0120C5
:102C7000ADF8180000208DF81B0006A91B48FDF7D1
:102C800003FC002001908DF8080001208DF8090058
:102C90004FF4602003900020049001208DF8140070
:102CA00001A91348FEF749F807230122082110481B
:102CB000FEF7DBF801210E48FEF76BF80C48FEF733
:102CC0008AF800BF0A48FEF78BF80028FAD10848B6
:102CD000FEF790F800BF0648FEF791F80028FAD1F9
:102CE00001210348FEF795F807B000BD000C014034
:102CF0000024014070B50446FFF76AFEA020FFF7EC
:102D000001FFFFF7A1FE2046FFF7FCFEFFF79CFE48
:102D1000FFF75EFEA120FFF7F5FEFFF795FEFFF738
:102D20001DFFC5B2FFF790FEFFF770FE284670BD8D
:102D300070B505460C46FFF74BFEA020FFF7E2FEFC
:102D4000FFF782FE2846FFF7DDFEFFF77DFE2046F7
:102D5000FFF7D8FEFFF778FEFFF758FE70BD0000C2
:102D600008B501213C20FDF74BFE40F20110ADF803
:102D7000000003208DF8020004208DF8030069464E
:102D80001E48FDF781FB0620ADF8000069461C488F
:102D9000FDF77AFB0420ADF8000003208DF8020057
:102DA00010208DF8030069461648FDF76DFB4FF6BD
:102DB000FF70ADF8000003208DF8020010208DF8A0
:102DC000030069461048FDF75FFB08BD70B5044677
:102DD0000D46012D04D121460B48FDF702FC03E00E
:102DE00021460948FDF7FFFB04210648FDF7F9FBE2
:102DF00004210448FDF7F7FB70BD00000008014006
:102E0000000C0140001401400010014000B587B0E3
:102E100001210420FDF7F4FD01214804FDF7FDFD2B
:102E20004FF4E060FDF750FE26208DF804000020EE
:102E30008DF8060001208DF8070001A8FDF749FE76
:102E40000820ADF8180004208DF81B0006A91748CB
:102E5000FDF71AFB0420ADF8180003208DF81A00C6
:102E600018208DF81B0006A91048FDF70DFB4FF444
:102E7000165002900020ADF80C00ADF80E00ADF831
:102E80001000ADF814000C20ADF8120002A908489B
:102E9000FEF75FFA012240F225510548FEF7F1FAEC
:102EA00001210348FEF7E1FA07B000BD0008014028
:102EB000004400400FB41CB5074B06AA7B4469468A
:102EC0000090059800F03BFB0020694600F04AFBAB
:102ED0001CBC5DF814FB0000A50600002DE9F041C4
:102EE0000646002410687529314616A510D0AFF3A8
:102EF0000080002802DA404213A507E031688A0703
:102F000001D512A502E0490704D511A5012401E06D
:102F1000AFF3008000210A2206F1240709E0B0FB8C
:102F2000F2FCB0FBF2F302FB1C0030307854184680
:102F3000491C0028F3D123462A463046BDE8F0411B
:102F400000F092B8000000002D0000002B000000EF
:102F5000200000002DE9F0474FF0000A89460446A2
:102F6000C0F820A02046E1688847002876D02528B0
:102F700006D0D4E901219047206A401C2062F1E785
:102F8000E168204600258847C4F81CA006460027B3
:102F9000C4F818A02A2E09D0304601F029F838B319
:102FA00004EB8708303EC8F8186019E059F8041B94
:102FB000204604EB87029161E1688847012F0646AD
:102FC00018D1E069002820DA25F020051DE0D8F8A6
:102FD000180000EB800006EB40003038C8F81800FD
:102FE0002046E1688847064601F002F80028EED145
:102FF000012F0AD02E2E08D12046E16888477F1C79
:103000000646022F45F02005C4DBA069002803DA3C
:10301000404245F00105A061E80701D025F0100508
:10302000B6B1A6F14100192802D8203645F4006552
:103030004A463146204625604D46FDF791F858B185
:10304000012806D0ED1D25F0070000F1080989E7E9
:1030500004E005F1040985E730468AE7206ABDE807
:10306000F0877047704770472DE9F0470D46994645
:103070009246044600F124080168880604D5E069F8
:1030800021F01001216000E00120A84201DD471B72
:1030900000E00027A1697A1902EB0900081AA06173
:1030A0002078C00602D42046AFF30080002608E056
:1030B000D4E901211AF806009047206A401C761CCA
:1030C00020624E45F4DB2078C0060AD52046AFF3D7
:1030D000008006E0D4E9012130209047206A401C9E
:1030E0002062381EA7F10107F4DC07E0D4E90121D2
:1030F00018F805009047206A401C2062281EA5F1A0
:103100000105F3DC2046AFF300802078000602D5ED
:103110000220BDE8F0870120FBE770472DE9FF4F53
:103120000C461E464FF0FF378BB0D2E90001DDF8A8
:1031300060800A908A46C1F30A5505B93D460021D0
:1031400008464FF00000BAF1000F00F4400005DA25
:1031500000EB80004FF4400101EA50004FEA905923
:10316000B9F1010F00DDB9460A9850EA4A000ED0C5
:1031700044F61050A5F2FF3545432F14B8F1000F67
:103180001ED07542291E1EDDC9F100021CE0B8F1F7
:10319000010F4FF0000001D0302103E0F24305E0C1
:1031A0002154401CB042FBDB304600220021215458
:1031B0000B99C1F80880C1E900200FB0BDE8F08F7D
:1031C000BD1B6D1CDEE74A4600DA694206A800F026
:1031D00059FA06AB93E8070003AB83E807005046B3
:1031E0000A9900F036FB8DE80700A0F500501F3863
:1031F00000900398002D09DD42F21F014A46084461
:1032000003A90390684600F095FD08E0A0F5005082
:103210004A461F3803A90390684600F09FFD8DE8D9
:1032200007000004000C03D04FF0FF30410800E01D
:103230001046B8F1000F03D00022009215461EE0A0
:10324000751E05D400F098F9303262556D1EF9D51F
:10325000B3460122084302D000227F1C04E02078FC
:10326000302801D100227F1E002A099786D01DE058
:10327000112D07DA00F080F9303262556D1C50EAEA
:103280000102F5D1084302D00098C8B10EE0002138
:10329000681E05E0235C625C63542254401E491C96
:1032A0008142F7DBAB46A81B401E0990002004F8C2
:1032B0000B000B98099AC0F80880C0E9002B7CE746
:1032C00011264FF0000859E72DE9F04F88460446D3
:1032D000D21D22F0070191B0D1E90001CDE90A0128
:1032E00000F072FE02460B98C00F01D02D2007E0BF
:1032F0002068810701D52B2002E0202101EAC000CF
:10330000032A099001D0072A05DB034641462046DF
:1033100000F078F90BE12078800601D5E06900E043
:103320000620B8F1650F814606D0B8F1660F18D0B7
:10333000B8F1670F70D131E00020B9F1110F0090A2
:1033400001DB112301E009F101030AAA01A90CA87C
:10335000FFF7E4FEDDE90C70002609F10105834664
:1033600047E001204B4600904FF000470AAA01A910
:103370000CA8FFF7D3FEDDE90DB00C995D460026E1
:1033800010B909F101000D18B9EB050003D4C0F123
:10339000FF3609F10105A5EB09002BE0B9F1010F9A
:1033A00001DA4FF001090020B9F1110F00904846F1
:1033B00001DD112300E003460AAA01A90CA8FFF7CA
:1033C000ADFEDDE90C704D460026834620780007EF
:1033D0000AD4AB4500DA5D4601A8012D04DD411990
:1033E00011F8011C302907D04F4502DA17F1040FFC
:1033F00004DA012082460FE06D1EEEE7002F02DCAA
:10340000ED1B3E4403E0781CA84200DD7D1CB81B88
:1034100000F1010A4FF000472078000703D4AA45C5
:1034200001DB4FF0FF3A0021B7F1004F0DF14308E7
:103430008DF8431024D002202B23002F01DA7F4285
:103440002D230A21021EA0F1010000DC5FB197FBD1
:10345000F1FC97FBF1F201FB1C7C17460CF1300CE0
:1034600008F801CDEEE7A8F10100037021880905F5
:1034700001D5452100E06521A0F1010800F8011CFB
:1034800009980FA9A1EB0807FF1D00B10120411900
:1034900001EBEA70A1693844081A401EA061207847
:1034A000C00602D42046AFF30080099828B1D4E9C1
:1034B00001219047206A401C20622078C00622D556
:1034C0002046AFF300801EE0002E04DBB34502DD92
:1034D00001A8805D00E03020D4E901219047206AF6
:1034E000401C2062761CAAF101005FEA000A0AD1A2
:1034F00000F03EF8C0680168405CD4E901219047C3
:10350000206A401C2062281EA5F10105DCDC07E0D2
:10351000D4E9012118F8010B9047206A401C206271
:10352000381EA7F10107F3DC2046AFF3008003202B
:1035300011B043E601694A1C02610878704700B582
:103540008FB0CDE901310021059105497944CDE9DC
:10355000031011466846FFF7FDFC0FB000BD0000E8
:10356000E5FFFFFF0A6802F8010B0A6070470000E0
:1035700000487047F000002030B5B0F10A024FEA71
:10358000900E71F100034EEA817EB0EB0E0061EB0C
:1035900091014FEA101E4EEA017E10EB0E0041EB46
:1035A00011114FEA102E4EEA016E10EB0E0041EBA6
:1035B00011214FEA104E4EEA014E10EB0E0041EB86
:1035C0001141401841F100014FEAD00040EA41703A
:1035D0004FEAD10110EB80054FEA810444EA907470
:1035E00044EB01046D1944EB0404521BA3414FF05A
:1035F000000348BF0A3200D530BD401C41F1000134
:1036000030BD00002DE9F0411F4604460326016845
:10361000072A01F4006004DB08B116A505E016A531
:1036200003E008B115A500E015A521F01000206009
:10363000A069C01EA0610FB1401EA0612046AFF37B
:1036400000804FB1D4E9012138469047206A401CE0
:103650002062C01C206206E0206AFAE7D4E901215A
:1036600015F8010B9047761EF8D22046AFF3008084
:10367000BDE8F0814E414E006E616E00494E46003D
:10368000696E66002DE9F047814616468AB03348D8
:1036900078440DC88DE80D0030487844801C03AC98
:1036A0000DC884E80D0041F69B300844372190FB9B
:1036B000F1F290FBF1F5A5F1800501FB12041B3C32
:1036C00002D56442012000E00020DFF890A080468F
:1036D0000027FA44AAF1BE0A0DE0E00709D03246FD
:1036E000684607EB47010AEB810100F037FB8DE8E4
:1036F000070064107F1C002CEFD1184F7F44AC3FB3
:1037000018E0E80714D007EB04100DF1180A90E850
:103710000E008AE80E00C068F04201D198190890A6
:10372000324606A903A800F019FB03AB83E80700A3
:103730006D10641C002DE4D132466946B8F1000FCB
:1037400003A802D000F0F6FA01E000F007FBC9E997
:103750000001C9F808200AB0BDE8F087282600005B
:1037600000487047D00000207546FFF7F9FFAE46CD
:1037700005006946534620F00700854618B020B57D
:10378000FCF720FDBDE820404FF000064FF0000799
:103790004FF000084FF0000B21F00701AC46ACE8F9
:1037A000C009ACE8C009ACE8C009ACE8C0098D4666
:1037B000704710B50446AFF300802046BDE81040C6
:1037C000FCF7EBBC4FF0013C50F8042B51F8043BE4
:1037D0009A4221D1A2EB0C03934313EACC1317D1E5
:1037E00050F8042B51F8043B9A4215D1A2EB0C037C
:1037F000934313EACC130BD150F8042B51F8043B3C
:103800009A4209D1A2EB0C03934313EACC13DBD009
:103810004FF00000704700BFD01A01BAB1FA81F131
:1038200001F0180122FA01F0CB40C1F12001DBB216
:10383000C0B2C01A2CFA01F3D11A914311EAC31194
:10384000E6D1704701491820ABBEFEE72600020012
:1038500070475FEA400C08BF91F0000F4FEA8C23DD
:103860004FEAC12243EA51514FEA1C5018BF00F5FC
:10387000F0404FEA300018BF41F000415FEA6C5C55
:1038800000F02980BCF1FF3F08BF40F08040704746
:10389000130C06BF12044FF0100C4FF0000C130E67
:1038A00004BF12020CF1080C130F04BF12010CF13B
:1038B000040C930F04BF92000CF1020CD30F04BF51
:1038C00052000CF1010C11464FF00002A0F11F0054
:1038D000A0EB0C00704711F0004F08BF704731F0AB
:1038E00000413FF4D5AF0B0C06BF09044FF0100C9C
:1038F0004FF0000C0B0E04BF09020CF1080C0B0F6B
:1039000004BF09010CF1040C8B0F04BF89000CF1FA
:10391000020CCB0F04BF49000CF1010CCCF12003C9
:10392000A0EB0C0022FA03F302FA0CF241EA0301C5
:1039300000F10100704720F07F4C80EA030023F083
:103940007F47ACEB070303F57C5300F0004003F125
:10395000FF032DE980494FEA154B09B44FEA1443A0
:1039600025EA0B4E24EA03480FF2042606EB132740
:1039700049083E785FEA320203FB0667C7F5000795
:1039800007FB06F64FEA54374FEAD64606F1020621
:1039900007FB066CCCF1005C4FEA1C472CEA074C95
:1039A00007FB06F40CFB06F504EB15464FEA9616EA
:1039B00034BF00204FF000404FEAD13706FB07FC30
:1039C0004FEA1C4C0CFB0BF7D21B03FB0CF761EB13
:1039D00007010CFB0EF7B0EB074072EB17420CFB34
:1039E00008F734BFA2EB0742B2EB074261EB174185
:1039F0004FEA0C444FEA910706FB07FC4FEA1C4CC8
:103A00000CFB0BF7B0EBC74072EB573203FB0CF724
:103A100034BFA2EBC742B2EBC74261EB57310CFB9C
:103A20000EF7B0EBC70072EB57720CFB08F734BF10
:103A3000A2EBC702B2EBC70261EB5771039F4FEADB
:103A4000816141EA921104EBCC044FEAD1374FEA8D
:103A5000826206FB07FC42EA90124FEA80604FEA5E
:103A60001C4C0CFB0BF7D21B03FB0CF761EB0701A3
:103A70000CFB0EF7B0EB074072EB17420CFB08F79C
:103A800034BFA2EB0742B2EB074261EB17414FEAAA
:103A90008C554FEA910704EB9C2406FB07FC4FEA88
:103AA0001C4C0CFB0BF7B0EBC74072EB573203FB1F
:103AB0000CF734BFA2EBC742B2EBC74261EB573100
:103AC0000CFB0EF7B0EBC70072EB57720CFB08F75C
:103AD00034BFA2EBC702B2EBC70261EB577115EB23
:103AE0004C254FEA816141EA92114FEA82624FEA26
:103AF000D13742EA901206FB07FC44F100044FEA7A
:103B000080604FEA1C4C0CFB0BF7D21B03FB0CF73D
:103B100061EB07010CFB0EF7B0EB074072EB1742AD
:103B20000CFB08F734BFA2EB0742B2EB074261EB94
:103B3000174115EB1C154FEA813141EA92414FEADA
:103B4000823242EA90424FEA80304FEA0C7644F1EA
:103B5000000448EA03434EEA0B484FF0000EB2EB74
:103B6000080C71EB030724BF624639464EEB0E0E7C
:103B70004FF0000B0018524149414BEB0B0BB2EBDD
:103B8000080C71EB03077BF1000B24BF624639463A
:103B90004EEB0E0E4FF0000B0018524149414BEB1B
:103BA0000B0BB2EB080C71EB03077BF1000B24BF8E
:103BB000624639464EEB0E0E51EA020718BF46F038
:103BC000010616EB0E7655F1000254F1000103D503
:103BD000BDE88901BDE80088BDE88901BDE800486D
:103BE000B619524141EB0101A3F1010370478080F6
:103BF0007F7E7D7C7B7A7978777676757473727147
:103C000071706F6E6E6D6C6C6B6A6A6968686766FE
:103C100066656464636362616160605F5F5E5E5D90
:103C20005D5C5C5B5B5A5A59595858575756565504
:103C300055555454535352525251515050504F4F66
:103C40004F4E4E4D4D4D4C4C4C4B4B4B4A4A4A49B6
:103C500049494848484747474746464645454544F9
:103C60004444444343434342424242414141002B86
:103C700026D4770021D01CB54FEA370703B44FF0A4
:103C800010004FF010014FF000000FBCBDE81040D5
:103C90000BF1010BBBF1010F08BF5FEA170722BF51
:103CA00012F1010211F101014FF0004143F1000353
:103CB00000F0004043EA00007047F9D35708DAE704
:103CC00046EA064613F1400F4FEA16461FDD13F190
:103CD000200FDFBF16430A46002120335B42C8D0C5
:103CE000C3F1200746EA064602FA07F74FEA1646EE
:103CF00046EA0706C3F1200722FA03F201FA07F7A2
:103D000021FA03F14FF0000342EA0702B1E746EA65
:103D1000020646EA06464FEA164646EA0106BCBFD8
:103D200046EA0646360C4FF000034FF000024FF013
:103D300000019EE72DE9C048934630B491E8380071
:103D400007C831EA400C48BF34EA430C03D5FFF7FB
:103D5000F2FDFFF78CFFF0BCBDE800882DE9C048FC
:103D6000934630B491E8380007C810F0804F08BF80
:103D700013F0804F03D100F005F8FFF778FFF0BC97
:103D8000BDE8008820F07F4780EA030023F07F4CE5
:103D900007EB0C03A3F57C5300F00040A3F1FE03F6
:103DA00092F0000F00F0B38095F0000F00F07780E4
:103DB0002DE901494FEA11404FEA144621EA004833
:103DC00000FB06FC24EA064708FB06F607FB08F89A
:103DD00000FB07F718EB06484CEB164C4FEA124B6A
:103DE00018EB07484FEA15464CEB174022EA0B4EFA
:103DF0000BFB06FC25EA06470EFB06F607FB0EFE4C
:103E00000BFB07F71EEB064E4CEB164C4FF0000673
:103E10001EEB074E4CEB174B18EB0B0840F1000064
:103E200018EB0E0B58EB000840F100008F1A4FF012
:103E300000013CBFC943661B14BFB5EB040C002155
:103E40003CBFC943F61B4FEA17444EEA8E0E27EAE1
:103E500004454FEA1C4704FB07622CEA074C05FBAC
:103E600007F70CFB05F604FB0CFC16EB074642EBD0
:103E7000174216EB0C4642EB1C421BEB060658EBB6
:103E80000202414146EA9E0601D5BDE80189B61904
:103E9000524141EB0101A3F10103BDE801894FEA61
:103EA00014454FEA114724EA054621EA074C05FB71
:103EB00007F406FB07F70CFB06F105FB0CFC11EB06
:103EC000074144EB17444FEA124711EB0C4144EB16
:103ED0001C4422EA074C05FB07F206FB07F70CFB24
:103EE00006F605FB0CFC16EB074642EB174216EBF9
:103EF0000C4642EB1C456A1854F1000148BF70475C
:103F0000B619524141EB0101A3F10103704795F04D
:103F1000000F37D04FEA11424FEA144721EA024618
:103F200024EA074C02FB07F106FB07F70CFB06F43B
:103F300002FB0CFC14EB074441EB17414FEA154719
:103F400014EB0C4441EB1C4125EA074C02FB07F53E
:103F500006FB07F70CFB06F602FB0CFC16EB07460C
:103F600045EB174516EB0C4645EB1C42121951F177
:103F7000000148BF7047B619524141EB0101A3F15E
:103F8000010370474FEA14454FEA114724EA0546FA
:103F900021EA074C05FB07F106FB07F70CFB06F2CD
:103FA0004FF0000605FB0CFC12EB074241EB1741FA
:103FB00012EB0C4251EB1C4148BF7047921841EB89
:103FC0000101A3F101037047490050EAC12018BF65
:103FD00004204A0D18BF40F0010040F2FF72B2EB1E
:103FE000515F08BF40F00200012808BF052070475C
:103FF00030380A2801D201207047002070470000A5
:1040000010B500290AD00878002807D00548784460
:10401000FFF7D8FB002801D0002010BD02487844EB
:1040200010BD0000E61C0000DE1C000021F0004274
:10403000A2F16052B2F5801F01F0004328BFD2F117
:104040007F6C0BD95FEA001C43EAC20242EB50705E
:1040500018BF704728BF20F001007047B2F5801FDD
:10406000BCBF184670474FEA410C1CF5001F02D236
:10407000084600F0F6BC70B500F068FA0000008950
:10408000FFF7F6BF4FF00040A0F5800070474910E1
:1040900058BFC1F140415B1058BFC3F140438B4250
:1040A000EFF30080704700002DE9C04130B4DFF825
:1040B000A0C23CEA111418BF3CEA131400F0EC80D3
:1040C00081EA03051CEA111444EAD57418BF1CEAFE
:1040D000131500F0C780A4EB05044FF0004545EA36
:1040E000C12145EAC32341EA505143EA525304F146
:1040F0007F74994204F500344FEAC0204FEAC2228F
:1041000008BF904200F09C804FEA13650FF2401602
:10411000765D4FEA134506FB05F7C7F1807706FB8E
:1041200007F74FEAD737A7FB03687642C8F5803810
:10413000A7FB06CE38BFA8F1010807FB08E64FF041
:10414000000EA6FB028CE6FB03CEDCF1000CCEF1E8
:10415000004E38BFAEF1010EA6FB0C584FF0000721
:104160004FF00005E6FB0E87A1FB08C6A0FB07CEBB
:1041700016EB0E0645F10005E1FB076515F1E04E73
:104180007EBFA4F580345FEA46066D4116F18007D4
:1041900045F100054FEA17274FEA066647EA05672B
:1041A000A6F1DE46B6F1805F4FEA15251FD93846E5
:1041B00024F0010C05EBC471BCF1FE6F01EB0C1196
:1041C00002D8F0BCBDE8008124425CBF01F5801E2E
:1041D0009EEAC47F02D4F0BCBDE80081244238D4FA
:1041E000F0BCA1F1C041BDE8004100F0FDB94FEACB
:1041F000D22242EA43524FEAD323A7FB02864FEA78
:10420000D02040EA415007FB03661EEA0E0F4FEA3A
:10421000D12105FB026658BFA6EB0056B6EB00564F
:104220004FEA520E4EEAC37E18EB0E0E56EB530EBB
:10423000BDD518EB02085E417F1C55F10005B6E7BD
:104240004FF480154FF000074FF000064FF00008C4
:10425000ADE7F0BC4FF0000001F1C04101F00041BA
:10426000BDE8008111EA0C1F0CEA131500D00CE028
:1042700013EA0C1F00F025804FF00000F0BC81EA2B
:10428000030101F00041BDE80081F0BCBDE8004140
:1042900081EA030100F0A8B9F0BCBDE8004170B5A7
:1042A00000F054F9097EFC3E00F007B881EA0301F2
:1042B0004FF0000001F00041704781EA030100F077
:1042C00093B9F0BCBDE800414FF0000021497047B0
:1042D000FFFDFBF9F7F5F4F2F0EEEDEBE9E8E6E4CB
:1042E000E3E1E0DEDDDBDAD8D7D5D4D3D1D0CFCD52
:1042F000CCCBCAC8C7C6C5C4C2C1C0BFBEBDBCBB8B
:10430000BAB9B8B7B6B5B4B3B2B1B0AFAEADACAB85
:10431000AAA9A8A8A7A6A5A4A3A3A2A1A09F9F9E5F
:104320009D9C9C9B9A999998979796959594939311
:10433000929191908F8F8E8E8D8C8C8B8B8A8989A8
:10434000888887878685858484838382828181802B
:104350000000FF070000F87FB0FA80F310FA03F1C5
:104360000AD0C3F11D0303F580634FEA41504FEAC1
:10437000035202EBD12170474FF00000704700005C
:1043800051EA030C17D41CF5801F58BFBCF5801FE1
:1043900000F10680994218BF704708BF90427047ED
:1043A00007D711F5801F58BF13F5801F19D4994204
:1043B0007047894270471CF5801F08D5BCF5801FE7
:1043C000F7D58B4218BF704708BF824270474FF441
:1043D000001C1CEB410F38BF1CEB430F01D28B427A
:1043E000704770B500F0B2F8922449004FF00051C8
:1043F0004FF08053FFF74BBEDFF848C170B51CEAA1
:10440000111E1EBF1CEA13159EEA0C0F95EA0C0F35
:1044100000F06F8081EA030423EA4C134EEAD47E55
:1044200021EA4C1141F4801143F48013AE44A1FB06
:10443000024CA0FB0365AEF17F7E361955EB0C05EF
:10444000A1FB034C4CF10003A0FB021C16EB0C0675
:10445000654153F10003094218BF46F0010613F409
:10446000007F0BD14FEA03314FEA0530340341EAB4
:10447000155140EA16506FF003020AE04FEAC321DB
:104480004FEAC520F40241EA555140EA56506FF018
:10449000020202EB2E4201EB025585EACE710AD0F0
:1044A0005FEA440C18BF24F0004450F1000041F1D1
:1044B000000120EAD47040F2FE7C624500D270BD5B
:1044C000A84214BF4FF080444FF04044002E08BF74
:1044D0000024BEF1806FA8BFA1F1C041BDE87040CB
:1044E00080F282804FF0000001F1C04101F00041F4
:1044F00070479EEA0C0F0CEA131518BF95EA0C0FD3
:1045000006D04FF0000081EA030E0EF0004170BDAE
:1045100000F01CF88900013E00F007B800F009B86F
:104520004FEA430C5FEA5C5C08D081EA030100F0CB
:104530005BB84FEA410C5FEA5C5CF6D14FF00000DB
:10454000014970470000FF070000F87F0EF1020EDE
:104550002EF0030E5EF8046B364205D4012A43EBBD
:10456000030515F5001F12D8012841EB010C1CF5BD
:10457000001F0CD80ED14FEAD17C15F5001F0CEBB3
:104580004C0C0CF1020C08BF4CEBD37C04E04FF058
:10459000080C01E04FEAD37C0CEB4C0526FA05F63B
:1045A00006F00706B6F1040C06D20EEB860CBDE849
:1045B00070404CF0010C6047DFE80CF0090B020280
:1045C0004FF000414FF00000A1F5002170BD1946E9
:1045D0001046012851EB010418BFD4F5001484BF24
:1045E000002001F0004170BD0808A0F500114FEA5D
:1045F0003101704753EA010C17D41CF5801F58BFD6
:10460000BCF5801F00F106808B4218BF704708BFC1
:104610008242704707D713F5801F58BF11F5801FDE
:1046200019D48B4270479B4270471CF5801F08D5F8
:10463000BCF5801FF7D5994218BF704708BF90425C
:1046400070474FF4001C1CEB430F38BF1CEB410FAD
:1046500001D2994270470FB40CBC03BCFFF7C1BE36
:1046600043004FEAD30C4FEA3C0C43401FBF4007C6
:104670000CF1605113F0FE4F70471CF0006F03D136
:1046800000200CF0004170470CF0004343EA5070EA
:1046900010B540EACC0000F09EF900BF0000009287
:1046A0004FEA0001FFF7A0BF4FF000414FF00000BC
:1046B000A1F50021704700004FF47F0C1CEAD012D6
:1046C0001EBF1CEAD11392EA0C0F93EA0C0F00F004
:1046D000858090EA010F48BF42F4807240F4000CDC
:1046E00041F400002CF07F4120F07F4000B5814272
:1046F000A2EB03020FF2081CACEB504EC0F100001D
:104700009EF800E04FEA4E0E00FB0EFC38BF490059
:104710004FEA2C1C02F5FA020CFB0EF34FEACE1EF8
:104720004FEA112C4FEAC1210EEB635E42EB2242AD
:104730000EFB0CFC4FEA1C5300FB03114FEA112C3B
:104740004FEA01310EFB0CFC4FEADC4C00FB0C1174
:10475000C14228BF09184CEB03335DF804EB10EBA2
:10476000410143EBC250B2F57C0F38BF704729D5E9
:1047700012F0F00F1CBF00F1C04000F00040704785
:10478000008182838485868788898B8C8D8E8F912A
:104790009293959697999A9C9D9FA0A2A3A5A7A84E
:1047A000AAACAEB0B2B3B5B7B9BCBEC0C2C5C7C97A
:1047B000CCCED1D4D7D9DCDFE2E6E9ECF0F3F7FADE
:1047C000FE0000004FEA400C0CF1807CBCF17E4FF3
:1047D00028BF7047B0F1C04000F043B990EA010F24
:1047E0000CEAD11348BF42F48072624538BF63457A
:1047F00007D213F47F0F16D080EA010000F00040CA
:10480000704710B500F0E7F8097EFC3E00F005B8EF
:1048100080EA010000F00040704780EA010000F0EB
:10482000004000F01EB912F47F0F04BF0248704729
:1048300080EA010000F015B90000C07FC10DD1F180
:104840009E0206DB4FEA002343F0004323FA02F006
:104850007047004207D54FEA4001B1F1FE4F02D246
:104860004FF00000704710B500F0B5F84992248071
:10487000002070476FEA20007047000010F00041F0
:1048800048BF4042B0FA80F310FA03F2C3F19D032F
:104890000BD051EAC35101EB1220530638BF7047C9
:1048A00000F1010008BF20F001007047B0FA80F36A
:1048B00010FA03F2C3F19D030AD0D90501EB1220CF
:1048C000530638BF704700F1010008BF20F0010017
:1048D000704700004FF47F0C1CEAD0121EBF1CEA88
:1048E000D11392EA0C0F93EA0C0F00F0478090EA84
:1048F000010F48BF42F480724FF0004C4CEA002098
:104900004CEA012102EB0302A0FB0113A2F5000215
:10491000002918BF43F001035B0028BF4FEA3303AF
:1049200042EB22425FEA132C4CEBC2502EBFBCEB91
:10493000436FB2F57C0F70474FEA036CBCF1004F38
:1049400008BF20F00100B2F57C0F38BF70470BD5CF
:1049500082F0FF0212F5803FC8BF704700F1C040EF
:10496000D8BF00F00040704700F5000C5FEA4C0C27
:1049700048BF7047B0F1C04000F073B890EA010F33
:104980000CEAD11348BF42F48072624538BF6345D8
:1049900004D280EA010000F00040704710B500F03A
:1049A0001AF800BF8900013E00F007B800F009B80E
:1049B0005FEA410C5FEA1C6C08D080EA010000F05D
:1049C00050B85FEA400C5FEA1C6CF6D14FF0004033
:1049D000A0F5800070470EF1020E2EF0030E5EF877
:1049E000044B244204D44FEA4102B2F17F4F11D864
:1049F0004FEA4003B3F17F4F0CD80ED14FEAD07C81
:104A0000B2F17F4F0CEB4C0C0CF1020C08BF4CEBDD
:104A1000D17C04E04FF0080C01E04FEAD17C0CEBB4
:104A20004C0324FA03F404F00704B4F1040C06D296
:104A30000EEB840CBDE810404CF0010C6047DFE841
:104A40000CF0070802024FF00040A0F5800010BDF6
:104A50000846420018BFD2F1807288BF00F00040C3
:104A600010BDFF2141EAD050C0057047FEF72CBCB5
:104A70000000000000000000000000000000000036
:104A80000000000000000000000000000000000026
:104A90000000000000000000000000000000000016
:104AA000000080018001800180018001800180017F
:104AB00080018001800180018001800100000000F0
:104AC00080018001000000000000000000000000E4
:104AD00000000000CC00CC00CC00CC00CC00CC000E
:104AE00000000000000000000000000000000000C6
:104AF00000000000000000000000000000000000B6
:104B0000000000000000000000000000600C600CCD
:104B1000600C30063006FE1FFE1F300638071803F3
:104B2000FE1FFE1F180318038C018C018C0100006E
:104B300000008000E003F80F9C0E8C1C8C188C0089
:104B40009800F801E007800E801C8C188C189C18C7
:104B5000B80CF00FE00380008000000000000000AF
:104B60000000000000000E181B0C110C11061106AD
:104B7000110311039B018E01C038C06C6044604476
:104B8000304430441844186C0C3800000000000019
:104B90000000E001F0033807180618063003F001A2
:104BA000F000F8009C310E33061E061C061C063F62
:104BB000FC73F02100000000000000000000000075
:104BC000000000000C000C000C000C000C000C009D
:104BD00000000000000000000000000000000000D5
:104BE00000000000000000000000000000000000C5
:104BF0000000000200038001C000C00060006000EF
:104C00003000300030003000300030003000300024
:104C100060006000C000C0008001000300020000CE
:104C2000000020006000C00080018001000300033C
:104C30000006000600060006000600060006000644
:104C40000003000380018001C0006000200000001C
:104C5000000000000000000000000000C000C000D4
:104C6000D806F807E0013003380700000000000014
:104C70000000000000000000000000000000000034
:104C80000000000000000000000000008001800122
:104C9000800180018001FC3FFC3F80018001800198
:104CA0008001800100000000000000000000000002
:104CB00000000000000000000000000000000000F4
:104CC00000000000000000000000000000000000E4
:104CD0000000800180010001000180000000000050
:104CE00000000000000000000000000000000000C4
:104CF0000000000000000000E007E00700000000E6
:104D000000000000000000000000000000000000A3
:104D10000000000000000000000000000000000093
:104D20000000000000000000000000000000000083
:104D30000000C000C00000000000000000000000F3
:104D40000000000C000C0006000600060003000333
:104D500000038003800180018001C000C000C0000A
:104D60006000600000000000000000000000000083
:104D70000000E003F007380E180C0C180C180C1883
:104D80000C180C180C180C180C180C18180C380EE1
:104D9000F007E00300000000000000000000000039
:104DA000000000018001C001F0019801880180012C
:104DB00080018001800180018001800180018001EB
:104DC00080018001000000000000000000000000E1
:104DD0000000E003F80F180C0C180C18001800184D
:104DE000000C000600038001C000600030001800C5
:104DF000FC1FFC1F0000000000000000000000007D
:104E00000000E001F807180E0C0C0C0C000C00065A
:104E1000C003C007000C001800180C180C18180C60
:104E2000F807E003000000000000000000000000A0
:104E30000000000C000E000F000F800DC00C600C75
:104E4000600C300C180C0C0CFC3FFC3F000C000CF0
:104E5000000C000C0000000000000000000000003A
:104E60000000F80FF80F180018000C00EC03FC0706
:104E70001C0E001C0018001800180C181C0C180E32
:104E8000F807E00300000000000000000000000040
:104E90000000C007F00F381C181818000C00CC03D5
:104EA000EC0F3C0E1C1C0C180C180C18181C380E9F
:104EB000F007E00300000000000000000000000018
:104EC0000000FC1FFC1F000C00060006000380030E
:104ED0008001C001C000E000600060007000300090
:104EE0003000300000000000000000000000000062
:104EF0000000E003F007380E180C180C180C3806E8
:104F0000F007F007180C0C180C180C180C18380CBB
:104F1000F80FE003000000000000000000000000A7
:104F20000000E003F007380E1C0C0C180C180C18CD
:104F30001C1C381EF81BE0190018000C000C1C0E7D
:104F4000F807F00100000000000000000000000071
:104F5000000000000000000000000000800180014F
:104F60000000000000000000000000000000000041
:104F7000800180010000000000000000000000002F
:104F8000000000000000000000000000800180011F
:104F90000000000000000000000000000000000011
:104FA000800180010001000180000000000000007D
:104FB00000000000000000000000000000000000F1
:104FC0000010001C800FE003F8001800F800E00358
:104FD000800F001C00100000000000000000000016
:104FE00000000000000000000000000000000000C1
:104FF000F81F000000000000F81F00000000000083
:1050000000000000000000000000000000000000A0
:105010000000000000000000000000000000000090
:1050200008003800F001C007001F0018001FC0076B
:10503000F00138000800000000000000000000003F
:105040000000E003F80F180C0C180C180018000CE6
:10505000000600038001C000C000C0000000000086
:10506000C000C000000000000000000000000000C0
:1050700000000000E00718180420C229224A114449
:1050800009440944094409221113E20C0240042096
:105090001818E007000000000000000000000000F9
:1050A000000080038003C006C006C006600C600CD0
:1050B000301830183018F83FF83F1C700C600C6046
:1050C00006C006C000000000000000000000000054
:1050D0000000FC03FC0F0C0C0C180C180C180C0C2A
:1050E000FC07FC0F0C180C300C300C300C300C187A
:1050F000FC1FFC0700000000000000000000000092
:105100000000C007F01F38381C300C700660060025
:105110000600060006000600060006600C701C3043
:10512000F01FE00700000000000000000000000089
:105130000000FE03FE0F060E0618061806300630A5
:105140000630063006300630063006180618060E01
:10515000FE0FFE0300000000000000000000000041
:105160000000FC3FFC3F0C000C000C000C000C008D
:10517000FC1FFC1F0C000C000C000C000C000C00B1
:10518000FC3FFC3F000000000000000000000000A9
:105190000000F83FF83F1800180018001800180029
:1051A000F81FF81F18001800180018001800180041
:1051B00018001800000000000000000000000000BF
:1051C0000000E00FF83F3C780E6006E007C00300E7
:1051D000030003FE03FE03C007C006C00EC03CF080
:1051E000F83FE00F00000000000000000000000099
:1051F00000000C300C300C300C300C300C300C300B
:10520000FC3FFC3F0C300C300C300C300C300C30C0
:105210000C300C3000000000000000000000000016
:1052200000008001800180018001800180018001F7
:105230008001800180018001800180018001800166
:10524000800180010000000000000000000000005C
:105250000000000600060006000600060006000624
:1052600000060006000600060006180618063807A5
:10527000F003E0010000000000000000000000005A
:10528000000006300618060C060606038601C60056
:1052900066007600DE008E0106030606060C061880
:1052A0000630066000000000000000000000000062
:1052B0000000180018001800180018001800180046
:1052C000180018001800180018001800180018001E
:1052D000F81FF81F000000000000000000000000A0
:1052E00000000EE01EF01EF01EF036D836D836D87C
:1052F00036D866CC66CC66CCC6C6C6C6C6C6C6C6DA
:1053000086C386C30000000000000000000000000B
:1053100000000C301C303C303C306C306C30CC30F9
:10532000CC308C310C330C330C360C360C3C0C3C32
:105330000C380C30000000000000000000000000ED
:105340000000E007F81F1C380E70066003C003C0A1
:1053500003C003C003C003C003C006600E701C3846
:10536000F81FE0070000000000000000000000003F
:105370000000FC0FFC1F0C380C300C300C300C30D3
:105380000C18FC1FFC070C000C000C000C000C009F
:105390000C000C00000000000000000000000000F5
:1053A0000000E007F81F1C380E70066003E003C021
:1053B00003C003C003C003C007E006630E3F1C3CEC
:1053C000F83FE0F700C0000000000000000000000F
:1053D0000000FE0FFE1F0638063006300630063885
:1053E000FE1FFE0706030606060C06180618063002
:1053F0000630066000000000000000000000000011
:105400000000E003F80F1C0C0C180C180C001C001A
:10541000F803E00F001E0038063006300E301C1C6A
:10542000F80FE0070000000000000000000000008E
:105430000000FE7FFE7F80018001800180018001ED
:105440008001800180018001800180018001800154
:10545000800180010000000000000000000000004A
:1054600000000C300C300C300C300C300C300C3098
:105470000C300C300C300C300C300C300C30181858
:10548000F81FE0070000000000000000000000001E
:10549000000003600630063006300C180C180C189B
:1054A000180C180C380E30063006700760036003C5
:1054B000C001C0010000000000000000000000006A
:1054C00000000360C361C361C36166336633663342
:1054D0006633663366336C1B6C1B6C1B2C1A3C1ECC
:1054E000380E380E00000000000000000000000030
:1054F00000000FE00C7018303018700C600EC00700
:1055000080038003C003E006700C301C18180C30B8
:105510000E6007E000000000000000000000000036
:10552000000003C006600C301C383818300C6006D0
:10553000E007C003800180018001800180018001BB
:105540008001800100000000000000000000000059
:105550000000FC7FFC7F006000300018000C00069B
:1055600000038001C0006000300018000C0006003D
:10557000FE7FFE7F00000000000000000000000031
:105580000000E003E0036000600060006000600075
:10559000600060006000600060006000600060000B
:1055A00060006000600060006000E003E003000055
:1055B000000030003000600060006000C000C000EB
:1055C000C000C001800180018001000300030003CE
:1055D00000060006000000000000000000000000BF
:1055E0000000E003E00300030003000300030003E6
:1055F0000003000300030003000300030003000393
:1056000000030003000300030003E003E0030000C5
:1056100000000000C001C0016003600360033006A9
:105620003006180C180C00000000000000000000FC
:10563000000000000000000000000000000000006A
:10564000000000000000000000000000000000005A
:10565000000000000000000000000000000000004A
:105660000000FFFFFFFF000000000000000000003E
:1056700000000C000C000C000C000C000C000000E2
:10568000000000000000000000000000000000001A
:10569000000000000000000000000000000000000A
:1056A000000000000000000000000000F003F80708
:1056B0001C0C0C0C000FF00FF80C0C0C0C0C1C0F3D
:1056C000F80FF018000000000000000000000000CB
:1056D000000018001800180018001800D803F80F70
:1056E000380C181818181818181818181818380C12
:1056F000F80FD803000000000000000000000000C8
:10570000000000000000000000000000C003F007DF
:10571000300E180C1800180018001800180C300E65
:10572000F007C003000000000000000000000000BF
:10573000000000180018001800180018C01BF01F07
:10574000301C181818181818181818181818301CA1
:10575000F01FC01B0000000000000000000000005F
:10576000000000000000000000000000C003F00F77
:10577000300C1818F81FF81F180018003818301CC3
:10578000F00FC00700000000000000000000000053
:105790000000800FC00FC000C000C000F007F0077D
:1057A000C000C000C000C000C000C000C000C000F9
:1057B000C000C00000000000000000000000000069
:1057C000000000000000000000000000E00DF80FE5
:1057D000180E0C0C0C0C0C0C0C0C0C0C0C0C180EED
:1057E000F80FE00D000C0C0C1C06F807F00100008F
:1057F000000018001800180018001800D807F80F4B
:10580000381C1818181818181818181818181818F4
:105810001818181800000000000000000000000028
:105820000000C000C000000000000000C000C00078
:10583000C000C000C000C000C000C000C000C00068
:10584000C000C000000000000000000000000000D8
:105850000000C000C000000000000000C000C00048
:10586000C000C000C000C000C000C000C000C00038
:10587000C000C000C000C000C000F80078000000F8
:1058800000000C000C000C000C000C000C0C0C06B2
:105890000C038C01CC006C00FC009C018C030C03FD
:1058A0000C060C0C000000000000000000000000CE
:1058B0000000C000C000C000C000C000C000C000A8
:1058C000C000C000C000C000C000C000C000C000D8
:1058D000C000C00000000000000000000000000048
:1058E0000000000000000000000000007C3CFF7E83
:1058F000C7E383C183C183C183C183C183C183C122
:1059000083C183C10000000000000000000000000F
:105910000000000000000000000000009807F80FE1
:10592000381C1818181818181818181818181818D3
:105930001818181800000000000000000000000007
:10594000000000000000000000000000C003F00F95
:10595000300C181818181818181818181818300CAF
:10596000F00FC00300000000000000000000000075
:10597000000000000000000000000000D803F80F45
:10598000380C181818181818181818181818380C6F
:10599000F80FD803180018001800180018000000AD
:1059A000000000000000000000000000C01BF01F0D
:1059B000301C181818181818181818181818301C2F
:1059C000F01FC01B00180018001800180018000075
:1059D000000000000000000000000000B007F0031D
:1059E00070003000300030003000300030003000F7
:1059F0003000300000000000000000000000000047
:105A0000000000000000000000000000E003F003C0
:105A1000380E180C3800F003C007000C180C380EB4
:105A2000F007E0030000000000000000000000009C
:105A3000000000008000C000C000C000F007F007B8
:105A4000C000C000C000C000C000C000C000C00056
:105A5000C0078007000000000000000000000000F8
:105A600000000000000000000000000018181818D6
:105A70001818181818181818181818181818381C82
:105A8000F01FE0190000000000000000000000000E
:105A90000000000000000000000000000C18180CBE
:105AA000180C180C300630063006600360036003E3
:105AB000C001C00100000000000000000000000064
:105AC000000000000000000000000000C141C141D2
:105AD000C3616363636363633636363636361C1CD4
